
src.elf:     file format elf32-littlearm

Sections:
Idx Name          Size      VMA       LMA       File off  Algn
  0 .isr_vector   00000188  08000000  08000000  00010000  2**0
                  CONTENTS, ALLOC, LOAD, READONLY, DATA
  1 .text         000038a0  08000188  08000188  00010188  2**2
                  CONTENTS, ALLOC, LOAD, READONLY, CODE
  2 .rodata       0000083c  08003a28  08003a28  00013a28  2**2
                  CONTENTS, ALLOC, LOAD, READONLY, DATA
  3 .ARM.extab    00000000  08004264  08004264  00020014  2**0
                  CONTENTS
  4 .ARM          00000000  08004264  08004264  00020014  2**0
                  CONTENTS
  5 .preinit_array 00000000  08004264  08004264  00020014  2**0
                  CONTENTS, ALLOC, LOAD, DATA
  6 .init_array   00000004  08004264  08004264  00014264  2**2
                  CONTENTS, ALLOC, LOAD, DATA
  7 .fini_array   00000004  08004268  08004268  00014268  2**2
                  CONTENTS, ALLOC, LOAD, DATA
  8 .data         00000014  20000000  0800426c  00020000  2**2
                  CONTENTS, ALLOC, LOAD, DATA
  9 .ccmram       00000000  10000000  10000000  00020014  2**0
                  CONTENTS
 10 .bss          0000058c  20000014  20000014  00020014  2**2
                  ALLOC
 11 ._user_heap_stack 00000600  200005a0  200005a0  00020014  2**0
                  ALLOC
 12 .ARM.attributes 00000030  00000000  00000000  00020014  2**0
                  CONTENTS, READONLY
 13 .debug_info   0000d96a  00000000  00000000  00020044  2**0
                  CONTENTS, READONLY, DEBUGGING, OCTETS
 14 .debug_abbrev 00001d93  00000000  00000000  0002d9ae  2**0
                  CONTENTS, READONLY, DEBUGGING, OCTETS
 15 .debug_aranges 00000a98  00000000  00000000  0002f748  2**3
                  CONTENTS, READONLY, DEBUGGING, OCTETS
 16 .debug_ranges 000009d8  00000000  00000000  000301e0  2**3
                  CONTENTS, READONLY, DEBUGGING, OCTETS
 17 .debug_macro  0001aff6  00000000  00000000  00030bb8  2**0
                  CONTENTS, READONLY, DEBUGGING, OCTETS
 18 .debug_line   0000e63a  00000000  00000000  0004bbae  2**0
                  CONTENTS, READONLY, DEBUGGING, OCTETS
 19 .debug_str    0009cefb  00000000  00000000  0005a1e8  2**0
                  CONTENTS, READONLY, DEBUGGING, OCTETS
 20 .comment      00000050  00000000  00000000  000f70e3  2**0
                  CONTENTS, READONLY
 21 .debug_frame  00002b2c  00000000  00000000  000f7134  2**2
                  CONTENTS, READONLY, DEBUGGING, OCTETS

Disassembly of section .text:

08000188 <__do_global_dtors_aux>:
 8000188:	b510      	push	{r4, lr}
 800018a:	4c05      	ldr	r4, [pc, #20]	; (80001a0 <__do_global_dtors_aux+0x18>)
 800018c:	7823      	ldrb	r3, [r4, #0]
 800018e:	b933      	cbnz	r3, 800019e <__do_global_dtors_aux+0x16>
 8000190:	4b04      	ldr	r3, [pc, #16]	; (80001a4 <__do_global_dtors_aux+0x1c>)
 8000192:	b113      	cbz	r3, 800019a <__do_global_dtors_aux+0x12>
 8000194:	4804      	ldr	r0, [pc, #16]	; (80001a8 <__do_global_dtors_aux+0x20>)
 8000196:	f3af 8000 	nop.w
 800019a:	2301      	movs	r3, #1
 800019c:	7023      	strb	r3, [r4, #0]
 800019e:	bd10      	pop	{r4, pc}
 80001a0:	20000014 	.word	0x20000014
 80001a4:	00000000 	.word	0x00000000
 80001a8:	08003a10 	.word	0x08003a10

080001ac <frame_dummy>:
 80001ac:	b508      	push	{r3, lr}
 80001ae:	4b03      	ldr	r3, [pc, #12]	; (80001bc <frame_dummy+0x10>)
 80001b0:	b11b      	cbz	r3, 80001ba <frame_dummy+0xe>
 80001b2:	4903      	ldr	r1, [pc, #12]	; (80001c0 <frame_dummy+0x14>)
 80001b4:	4803      	ldr	r0, [pc, #12]	; (80001c4 <frame_dummy+0x18>)
 80001b6:	f3af 8000 	nop.w
 80001ba:	bd08      	pop	{r3, pc}
 80001bc:	00000000 	.word	0x00000000
 80001c0:	20000018 	.word	0x20000018
 80001c4:	08003a10 	.word	0x08003a10

080001c8 <main>:
/**
  * @brief  The application entry point.
  * @retval int
  */
int main(void)
{
 80001c8:	b580      	push	{r7, lr}
 80001ca:	b082      	sub	sp, #8
 80001cc:	af00      	add	r7, sp, #0
  /* USER CODE END 1 */

  /* MCU Configuration--------------------------------------------------------*/

  /* Reset of all peripherals, Initializes the Flash interface and the Systick. */
  HAL_Init();
 80001ce:	f000 fd25 	bl	8000c1c <HAL_Init>
  /* USER CODE BEGIN Init */

  /* USER CODE END Init */

  /* Configure the system clock */
  SystemClock_Config();
 80001d2:	f000 f847 	bl	8000264 <SystemClock_Config>
  /* USER CODE BEGIN SysInit */

  /* USER CODE END SysInit */

  /* Initialize all configured peripherals */
  MX_GPIO_Init();
 80001d6:	f000 f945 	bl	8000464 <MX_GPIO_Init>
  MX_USART2_UART_Init();
 80001da:	f000 f913 	bl	8000404 <MX_USART2_UART_Init>
  MX_I2C1_Init();
 80001de:	f000 f8a1 	bl	8000324 <MX_I2C1_Init>
  MX_USART1_UART_Init();
 80001e2:	f000 f8df 	bl	80003a4 <MX_USART1_UART_Init>
  /* USER CODE BEGIN 2 */
  // Initialize OLED display
  ssd1306_Init();
 80001e6:	f000 fb17 	bl	8000818 <ssd1306_Init>
  /* Display Loading */
  ssd1306_WriteString("Lock Initializing...", Font_7x10, White);
 80001ea:	4a19      	ldr	r2, [pc, #100]	; (8000250 <main+0x88>)
 80001ec:	2301      	movs	r3, #1
 80001ee:	ca06      	ldmia	r2, {r1, r2}
 80001f0:	4818      	ldr	r0, [pc, #96]	; (8000254 <main+0x8c>)
 80001f2:	f000 fca3 	bl	8000b3c <ssd1306_WriteString>
  ssd1306_UpdateScreen();
 80001f6:	f000 fb9d 	bl	8000934 <ssd1306_UpdateScreen>
  HAL_Delay(3000); // Delay for 3 seconds
 80001fa:	f640 30b8 	movw	r0, #3000	; 0xbb8
 80001fe:	f000 fd73 	bl	8000ce8 <HAL_Delay>

    /* Clear the display */
    ssd1306_Fill(Black);
 8000202:	2000      	movs	r0, #0
 8000204:	f000 fb72 	bl	80008ec <ssd1306_Fill>
    ssd1306_SetCursor(0,0);
 8000208:	2100      	movs	r1, #0
 800020a:	2000      	movs	r0, #0
 800020c:	f000 fcbc 	bl	8000b88 <ssd1306_SetCursor>
    ssd1306_WriteString("Enter Password:", Font_7x10, White);
 8000210:	4a0f      	ldr	r2, [pc, #60]	; (8000250 <main+0x88>)
 8000212:	2301      	movs	r3, #1
 8000214:	ca06      	ldmia	r2, {r1, r2}
 8000216:	4810      	ldr	r0, [pc, #64]	; (8000258 <main+0x90>)
 8000218:	f000 fc90 	bl	8000b3c <ssd1306_WriteString>
    ssd1306_UpdateScreen();
 800021c:	f000 fb8a 	bl	8000934 <ssd1306_UpdateScreen>
    ssd1306_SetCursor(30,25);
 8000220:	2119      	movs	r1, #25
 8000222:	201e      	movs	r0, #30
 8000224:	f000 fcb0 	bl	8000b88 <ssd1306_SetCursor>
    //when it reads an input from keypad HAL_GPIO_WritePin(GPIOA, GPIO_PIN_8, GPIO_PIN_SET);
    //ssd1306_WriteChar(isPassword, Font_11x18, White);
    if(isOpen){
 8000228:	687b      	ldr	r3, [r7, #4]
 800022a:	2b00      	cmp	r3, #0
 800022c:	d006      	beq.n	800023c <main+0x74>
  	  ssd1306_WriteString("Open", Font_7x10, White);
 800022e:	4a08      	ldr	r2, [pc, #32]	; (8000250 <main+0x88>)
 8000230:	2301      	movs	r3, #1
 8000232:	ca06      	ldmia	r2, {r1, r2}
 8000234:	4809      	ldr	r0, [pc, #36]	; (800025c <main+0x94>)
 8000236:	f000 fc81 	bl	8000b3c <ssd1306_WriteString>
 800023a:	e005      	b.n	8000248 <main+0x80>
    }
    else{
  	  ssd1306_WriteString("Closed", Font_7x10, White);
 800023c:	4a04      	ldr	r2, [pc, #16]	; (8000250 <main+0x88>)
 800023e:	2301      	movs	r3, #1
 8000240:	ca06      	ldmia	r2, {r1, r2}
 8000242:	4807      	ldr	r0, [pc, #28]	; (8000260 <main+0x98>)
 8000244:	f000 fc7a 	bl	8000b3c <ssd1306_WriteString>
    }

  //  returnValue = ssd1306_WriteString(stringArray, Font_7x10, White);
    ssd1306_UpdateScreen();
 8000248:	f000 fb74 	bl	8000934 <ssd1306_UpdateScreen>
  /* USER CODE END 2 */

  /* Infinite loop */
  /* USER CODE BEGIN WHILE */
  while (1)
 800024c:	e7fe      	b.n	800024c <main+0x84>
 800024e:	bf00      	nop
 8000250:	20000004 	.word	0x20000004
 8000254:	08003a44 	.word	0x08003a44
 8000258:	08003a5c 	.word	0x08003a5c
 800025c:	08003a6c 	.word	0x08003a6c
 8000260:	08003a74 	.word	0x08003a74

08000264 <SystemClock_Config>:
/**
  * @brief System Clock Configuration
  * @retval None
  */
void SystemClock_Config(void)
{
 8000264:	b580      	push	{r7, lr}
 8000266:	b096      	sub	sp, #88	; 0x58
 8000268:	af00      	add	r7, sp, #0
  RCC_OscInitTypeDef RCC_OscInitStruct = {0};
 800026a:	f107 0330 	add.w	r3, r7, #48	; 0x30
 800026e:	2228      	movs	r2, #40	; 0x28
 8000270:	2100      	movs	r1, #0
 8000272:	4618      	mov	r0, r3
 8000274:	f003 fbc4 	bl	8003a00 <memset>
  RCC_ClkInitTypeDef RCC_ClkInitStruct = {0};
 8000278:	f107 031c 	add.w	r3, r7, #28
 800027c:	2200      	movs	r2, #0
 800027e:	601a      	str	r2, [r3, #0]
 8000280:	605a      	str	r2, [r3, #4]
 8000282:	609a      	str	r2, [r3, #8]
 8000284:	60da      	str	r2, [r3, #12]
 8000286:	611a      	str	r2, [r3, #16]
  RCC_PeriphCLKInitTypeDef PeriphClkInit = {0};
 8000288:	1d3b      	adds	r3, r7, #4
 800028a:	2200      	movs	r2, #0
 800028c:	601a      	str	r2, [r3, #0]
 800028e:	605a      	str	r2, [r3, #4]
 8000290:	609a      	str	r2, [r3, #8]
 8000292:	60da      	str	r2, [r3, #12]
 8000294:	611a      	str	r2, [r3, #16]
 8000296:	615a      	str	r2, [r3, #20]

  /** Initializes the RCC Oscillators according to the specified parameters
  * in the RCC_OscInitTypeDef structure.
  */
  RCC_OscInitStruct.OscillatorType = RCC_OSCILLATORTYPE_HSI|RCC_OSCILLATORTYPE_HSE;
 8000298:	2303      	movs	r3, #3
 800029a:	633b      	str	r3, [r7, #48]	; 0x30
  RCC_OscInitStruct.HSEState = RCC_HSE_ON;
 800029c:	f44f 3380 	mov.w	r3, #65536	; 0x10000
 80002a0:	637b      	str	r3, [r7, #52]	; 0x34
  RCC_OscInitStruct.HSEPredivValue = RCC_HSE_PREDIV_DIV1;
 80002a2:	2300      	movs	r3, #0
 80002a4:	63bb      	str	r3, [r7, #56]	; 0x38
  RCC_OscInitStruct.HSIState = RCC_HSI_ON;
 80002a6:	2301      	movs	r3, #1
 80002a8:	643b      	str	r3, [r7, #64]	; 0x40
  RCC_OscInitStruct.HSICalibrationValue = RCC_HSICALIBRATION_DEFAULT;
 80002aa:	2310      	movs	r3, #16
 80002ac:	647b      	str	r3, [r7, #68]	; 0x44
  RCC_OscInitStruct.PLL.PLLState = RCC_PLL_ON;
 80002ae:	2302      	movs	r3, #2
 80002b0:	64fb      	str	r3, [r7, #76]	; 0x4c
  RCC_OscInitStruct.PLL.PLLSource = RCC_PLLSOURCE_HSE;
 80002b2:	f44f 3380 	mov.w	r3, #65536	; 0x10000
 80002b6:	653b      	str	r3, [r7, #80]	; 0x50
  RCC_OscInitStruct.PLL.PLLMUL = RCC_PLL_MUL9;
 80002b8:	f44f 13e0 	mov.w	r3, #1835008	; 0x1c0000
 80002bc:	657b      	str	r3, [r7, #84]	; 0x54
  if (HAL_RCC_OscConfig(&RCC_OscInitStruct) != HAL_OK)
 80002be:	f107 0330 	add.w	r3, r7, #48	; 0x30
 80002c2:	4618      	mov	r0, r3
 80002c4:	f001 fc44 	bl	8001b50 <HAL_RCC_OscConfig>
 80002c8:	4603      	mov	r3, r0
 80002ca:	2b00      	cmp	r3, #0
 80002cc:	d001      	beq.n	80002d2 <SystemClock_Config+0x6e>
  {
    Error_Handler();
 80002ce:	f000 f921 	bl	8000514 <Error_Handler>
  }

  /** Initializes the CPU, AHB and APB buses clocks
  */
  RCC_ClkInitStruct.ClockType = RCC_CLOCKTYPE_HCLK|RCC_CLOCKTYPE_SYSCLK
 80002d2:	230f      	movs	r3, #15
 80002d4:	61fb      	str	r3, [r7, #28]
                              |RCC_CLOCKTYPE_PCLK1|RCC_CLOCKTYPE_PCLK2;
  RCC_ClkInitStruct.SYSCLKSource = RCC_SYSCLKSOURCE_PLLCLK;
 80002d6:	2302      	movs	r3, #2
 80002d8:	623b      	str	r3, [r7, #32]
  RCC_ClkInitStruct.AHBCLKDivider = RCC_SYSCLK_DIV1;
 80002da:	2300      	movs	r3, #0
 80002dc:	627b      	str	r3, [r7, #36]	; 0x24
  RCC_ClkInitStruct.APB1CLKDivider = RCC_HCLK_DIV2;
 80002de:	f44f 6380 	mov.w	r3, #1024	; 0x400
 80002e2:	62bb      	str	r3, [r7, #40]	; 0x28
  RCC_ClkInitStruct.APB2CLKDivider = RCC_HCLK_DIV1;
 80002e4:	2300      	movs	r3, #0
 80002e6:	62fb      	str	r3, [r7, #44]	; 0x2c

  if (HAL_RCC_ClockConfig(&RCC_ClkInitStruct, FLASH_LATENCY_2) != HAL_OK)
 80002e8:	f107 031c 	add.w	r3, r7, #28
 80002ec:	2102      	movs	r1, #2
 80002ee:	4618      	mov	r0, r3
 80002f0:	f002 fc6c 	bl	8002bcc <HAL_RCC_ClockConfig>
 80002f4:	4603      	mov	r3, r0
 80002f6:	2b00      	cmp	r3, #0
 80002f8:	d001      	beq.n	80002fe <SystemClock_Config+0x9a>
  {
    Error_Handler();
 80002fa:	f000 f90b 	bl	8000514 <Error_Handler>
  }
  PeriphClkInit.PeriphClockSelection = RCC_PERIPHCLK_USART1|RCC_PERIPHCLK_I2C1;
 80002fe:	2321      	movs	r3, #33	; 0x21
 8000300:	607b      	str	r3, [r7, #4]
  PeriphClkInit.Usart1ClockSelection = RCC_USART1CLKSOURCE_PCLK1;
 8000302:	2300      	movs	r3, #0
 8000304:	60fb      	str	r3, [r7, #12]
  PeriphClkInit.I2c1ClockSelection = RCC_I2C1CLKSOURCE_HSI;
 8000306:	2300      	movs	r3, #0
 8000308:	613b      	str	r3, [r7, #16]
  if (HAL_RCCEx_PeriphCLKConfig(&PeriphClkInit) != HAL_OK)
 800030a:	1d3b      	adds	r3, r7, #4
 800030c:	4618      	mov	r0, r3
 800030e:	f002 fe93 	bl	8003038 <HAL_RCCEx_PeriphCLKConfig>
 8000312:	4603      	mov	r3, r0
 8000314:	2b00      	cmp	r3, #0
 8000316:	d001      	beq.n	800031c <SystemClock_Config+0xb8>
  {
    Error_Handler();
 8000318:	f000 f8fc 	bl	8000514 <Error_Handler>
  }
}
 800031c:	bf00      	nop
 800031e:	3758      	adds	r7, #88	; 0x58
 8000320:	46bd      	mov	sp, r7
 8000322:	bd80      	pop	{r7, pc}

08000324 <MX_I2C1_Init>:
  * @brief I2C1 Initialization Function
  * @param None
  * @retval None
  */
static void MX_I2C1_Init(void)
{
 8000324:	b580      	push	{r7, lr}
 8000326:	af00      	add	r7, sp, #0
  /* USER CODE END I2C1_Init 0 */

  /* USER CODE BEGIN I2C1_Init 1 */

  /* USER CODE END I2C1_Init 1 */
  hi2c1.Instance = I2C1;
 8000328:	4b1b      	ldr	r3, [pc, #108]	; (8000398 <MX_I2C1_Init+0x74>)
 800032a:	4a1c      	ldr	r2, [pc, #112]	; (800039c <MX_I2C1_Init+0x78>)
 800032c:	601a      	str	r2, [r3, #0]
  hi2c1.Init.Timing = 0x2000090E;
 800032e:	4b1a      	ldr	r3, [pc, #104]	; (8000398 <MX_I2C1_Init+0x74>)
 8000330:	4a1b      	ldr	r2, [pc, #108]	; (80003a0 <MX_I2C1_Init+0x7c>)
 8000332:	605a      	str	r2, [r3, #4]
  hi2c1.Init.OwnAddress1 = 0;
 8000334:	4b18      	ldr	r3, [pc, #96]	; (8000398 <MX_I2C1_Init+0x74>)
 8000336:	2200      	movs	r2, #0
 8000338:	609a      	str	r2, [r3, #8]
  hi2c1.Init.AddressingMode = I2C_ADDRESSINGMODE_7BIT;
 800033a:	4b17      	ldr	r3, [pc, #92]	; (8000398 <MX_I2C1_Init+0x74>)
 800033c:	2201      	movs	r2, #1
 800033e:	60da      	str	r2, [r3, #12]
  hi2c1.Init.DualAddressMode = I2C_DUALADDRESS_DISABLE;
 8000340:	4b15      	ldr	r3, [pc, #84]	; (8000398 <MX_I2C1_Init+0x74>)
 8000342:	2200      	movs	r2, #0
 8000344:	611a      	str	r2, [r3, #16]
  hi2c1.Init.OwnAddress2 = 0;
 8000346:	4b14      	ldr	r3, [pc, #80]	; (8000398 <MX_I2C1_Init+0x74>)
 8000348:	2200      	movs	r2, #0
 800034a:	615a      	str	r2, [r3, #20]
  hi2c1.Init.OwnAddress2Masks = I2C_OA2_NOMASK;
 800034c:	4b12      	ldr	r3, [pc, #72]	; (8000398 <MX_I2C1_Init+0x74>)
 800034e:	2200      	movs	r2, #0
 8000350:	619a      	str	r2, [r3, #24]
  hi2c1.Init.GeneralCallMode = I2C_GENERALCALL_DISABLE;
 8000352:	4b11      	ldr	r3, [pc, #68]	; (8000398 <MX_I2C1_Init+0x74>)
 8000354:	2200      	movs	r2, #0
 8000356:	61da      	str	r2, [r3, #28]
  hi2c1.Init.NoStretchMode = I2C_NOSTRETCH_DISABLE;
 8000358:	4b0f      	ldr	r3, [pc, #60]	; (8000398 <MX_I2C1_Init+0x74>)
 800035a:	2200      	movs	r2, #0
 800035c:	621a      	str	r2, [r3, #32]
  if (HAL_I2C_Init(&hi2c1) != HAL_OK)
 800035e:	480e      	ldr	r0, [pc, #56]	; (8000398 <MX_I2C1_Init+0x74>)
 8000360:	f000 ff56 	bl	8001210 <HAL_I2C_Init>
 8000364:	4603      	mov	r3, r0
 8000366:	2b00      	cmp	r3, #0
 8000368:	d001      	beq.n	800036e <MX_I2C1_Init+0x4a>
  {
    Error_Handler();
 800036a:	f000 f8d3 	bl	8000514 <Error_Handler>
  }

  /** Configure Analogue filter
  */
  if (HAL_I2CEx_ConfigAnalogFilter(&hi2c1, I2C_ANALOGFILTER_ENABLE) != HAL_OK)
 800036e:	2100      	movs	r1, #0
 8000370:	4809      	ldr	r0, [pc, #36]	; (8000398 <MX_I2C1_Init+0x74>)
 8000372:	f001 fb55 	bl	8001a20 <HAL_I2CEx_ConfigAnalogFilter>
 8000376:	4603      	mov	r3, r0
 8000378:	2b00      	cmp	r3, #0
 800037a:	d001      	beq.n	8000380 <MX_I2C1_Init+0x5c>
  {
    Error_Handler();
 800037c:	f000 f8ca 	bl	8000514 <Error_Handler>
  }

  /** Configure Digital filter
  */
  if (HAL_I2CEx_ConfigDigitalFilter(&hi2c1, 0) != HAL_OK)
 8000380:	2100      	movs	r1, #0
 8000382:	4805      	ldr	r0, [pc, #20]	; (8000398 <MX_I2C1_Init+0x74>)
 8000384:	f001 fb97 	bl	8001ab6 <HAL_I2CEx_ConfigDigitalFilter>
 8000388:	4603      	mov	r3, r0
 800038a:	2b00      	cmp	r3, #0
 800038c:	d001      	beq.n	8000392 <MX_I2C1_Init+0x6e>
  {
    Error_Handler();
 800038e:	f000 f8c1 	bl	8000514 <Error_Handler>
  }
  /* USER CODE BEGIN I2C1_Init 2 */

  /* USER CODE END I2C1_Init 2 */

}
 8000392:	bf00      	nop
 8000394:	bd80      	pop	{r7, pc}
 8000396:	bf00      	nop
 8000398:	20000030 	.word	0x20000030
 800039c:	40005400 	.word	0x40005400
 80003a0:	2000090e 	.word	0x2000090e

080003a4 <MX_USART1_UART_Init>:
  * @brief USART1 Initialization Function
  * @param None
  * @retval None
  */
static void MX_USART1_UART_Init(void)
{
 80003a4:	b580      	push	{r7, lr}
 80003a6:	af00      	add	r7, sp, #0
  /* USER CODE END USART1_Init 0 */

  /* USER CODE BEGIN USART1_Init 1 */
//
  /* USER CODE END USART1_Init 1 */
  huart1.Instance = USART1;
 80003a8:	4b14      	ldr	r3, [pc, #80]	; (80003fc <MX_USART1_UART_Init+0x58>)
 80003aa:	4a15      	ldr	r2, [pc, #84]	; (8000400 <MX_USART1_UART_Init+0x5c>)
 80003ac:	601a      	str	r2, [r3, #0]
  huart1.Init.BaudRate = 38400;
 80003ae:	4b13      	ldr	r3, [pc, #76]	; (80003fc <MX_USART1_UART_Init+0x58>)
 80003b0:	f44f 4216 	mov.w	r2, #38400	; 0x9600
 80003b4:	605a      	str	r2, [r3, #4]
  huart1.Init.WordLength = UART_WORDLENGTH_8B;
 80003b6:	4b11      	ldr	r3, [pc, #68]	; (80003fc <MX_USART1_UART_Init+0x58>)
 80003b8:	2200      	movs	r2, #0
 80003ba:	609a      	str	r2, [r3, #8]
  huart1.Init.StopBits = UART_STOPBITS_1;
 80003bc:	4b0f      	ldr	r3, [pc, #60]	; (80003fc <MX_USART1_UART_Init+0x58>)
 80003be:	2200      	movs	r2, #0
 80003c0:	60da      	str	r2, [r3, #12]
  huart1.Init.Parity = UART_PARITY_NONE;
 80003c2:	4b0e      	ldr	r3, [pc, #56]	; (80003fc <MX_USART1_UART_Init+0x58>)
 80003c4:	2200      	movs	r2, #0
 80003c6:	611a      	str	r2, [r3, #16]
  huart1.Init.Mode = UART_MODE_TX_RX;
 80003c8:	4b0c      	ldr	r3, [pc, #48]	; (80003fc <MX_USART1_UART_Init+0x58>)
 80003ca:	220c      	movs	r2, #12
 80003cc:	615a      	str	r2, [r3, #20]
  huart1.Init.HwFlowCtl = UART_HWCONTROL_NONE;
 80003ce:	4b0b      	ldr	r3, [pc, #44]	; (80003fc <MX_USART1_UART_Init+0x58>)
 80003d0:	2200      	movs	r2, #0
 80003d2:	619a      	str	r2, [r3, #24]
  huart1.Init.OverSampling = UART_OVERSAMPLING_16;
 80003d4:	4b09      	ldr	r3, [pc, #36]	; (80003fc <MX_USART1_UART_Init+0x58>)
 80003d6:	2200      	movs	r2, #0
 80003d8:	61da      	str	r2, [r3, #28]
  huart1.Init.OneBitSampling = UART_ONE_BIT_SAMPLE_DISABLE;
 80003da:	4b08      	ldr	r3, [pc, #32]	; (80003fc <MX_USART1_UART_Init+0x58>)
 80003dc:	2200      	movs	r2, #0
 80003de:	621a      	str	r2, [r3, #32]
  huart1.AdvancedInit.AdvFeatureInit = UART_ADVFEATURE_NO_INIT;
 80003e0:	4b06      	ldr	r3, [pc, #24]	; (80003fc <MX_USART1_UART_Init+0x58>)
 80003e2:	2200      	movs	r2, #0
 80003e4:	625a      	str	r2, [r3, #36]	; 0x24
  if (HAL_UART_Init(&huart1) != HAL_OK)
 80003e6:	4805      	ldr	r0, [pc, #20]	; (80003fc <MX_USART1_UART_Init+0x58>)
 80003e8:	f002 ff4c 	bl	8003284 <HAL_UART_Init>
 80003ec:	4603      	mov	r3, r0
 80003ee:	2b00      	cmp	r3, #0
 80003f0:	d001      	beq.n	80003f6 <MX_USART1_UART_Init+0x52>
  {
    Error_Handler();
 80003f2:	f000 f88f 	bl	8000514 <Error_Handler>
  }
  /* USER CODE BEGIN USART1_Init 2 */
//
  /* USER CODE END USART1_Init 2 */

}
 80003f6:	bf00      	nop
 80003f8:	bd80      	pop	{r7, pc}
 80003fa:	bf00      	nop
 80003fc:	20000084 	.word	0x20000084
 8000400:	40013800 	.word	0x40013800

08000404 <MX_USART2_UART_Init>:
  * @brief USART2 Initialization Function
  * @param None
  * @retval None
  */
static void MX_USART2_UART_Init(void)
{
 8000404:	b580      	push	{r7, lr}
 8000406:	af00      	add	r7, sp, #0
  /* USER CODE END USART2_Init 0 */

  /* USER CODE BEGIN USART2_Init 1 */
//
  /* USER CODE END USART2_Init 1 */
  huart2.Instance = USART2;
 8000408:	4b14      	ldr	r3, [pc, #80]	; (800045c <MX_USART2_UART_Init+0x58>)
 800040a:	4a15      	ldr	r2, [pc, #84]	; (8000460 <MX_USART2_UART_Init+0x5c>)
 800040c:	601a      	str	r2, [r3, #0]
  huart2.Init.BaudRate = 57600;
 800040e:	4b13      	ldr	r3, [pc, #76]	; (800045c <MX_USART2_UART_Init+0x58>)
 8000410:	f44f 4261 	mov.w	r2, #57600	; 0xe100
 8000414:	605a      	str	r2, [r3, #4]
  huart2.Init.WordLength = UART_WORDLENGTH_8B;
 8000416:	4b11      	ldr	r3, [pc, #68]	; (800045c <MX_USART2_UART_Init+0x58>)
 8000418:	2200      	movs	r2, #0
 800041a:	609a      	str	r2, [r3, #8]
  huart2.Init.StopBits = UART_STOPBITS_1;
 800041c:	4b0f      	ldr	r3, [pc, #60]	; (800045c <MX_USART2_UART_Init+0x58>)
 800041e:	2200      	movs	r2, #0
 8000420:	60da      	str	r2, [r3, #12]
  huart2.Init.Parity = UART_PARITY_NONE;
 8000422:	4b0e      	ldr	r3, [pc, #56]	; (800045c <MX_USART2_UART_Init+0x58>)
 8000424:	2200      	movs	r2, #0
 8000426:	611a      	str	r2, [r3, #16]
  huart2.Init.Mode = UART_MODE_TX_RX;
 8000428:	4b0c      	ldr	r3, [pc, #48]	; (800045c <MX_USART2_UART_Init+0x58>)
 800042a:	220c      	movs	r2, #12
 800042c:	615a      	str	r2, [r3, #20]
  huart2.Init.HwFlowCtl = UART_HWCONTROL_NONE;
 800042e:	4b0b      	ldr	r3, [pc, #44]	; (800045c <MX_USART2_UART_Init+0x58>)
 8000430:	2200      	movs	r2, #0
 8000432:	619a      	str	r2, [r3, #24]
  huart2.Init.OverSampling = UART_OVERSAMPLING_16;
 8000434:	4b09      	ldr	r3, [pc, #36]	; (800045c <MX_USART2_UART_Init+0x58>)
 8000436:	2200      	movs	r2, #0
 8000438:	61da      	str	r2, [r3, #28]
  huart2.Init.OneBitSampling = UART_ONE_BIT_SAMPLE_DISABLE;
 800043a:	4b08      	ldr	r3, [pc, #32]	; (800045c <MX_USART2_UART_Init+0x58>)
 800043c:	2200      	movs	r2, #0
 800043e:	621a      	str	r2, [r3, #32]
  huart2.AdvancedInit.AdvFeatureInit = UART_ADVFEATURE_NO_INIT;
 8000440:	4b06      	ldr	r3, [pc, #24]	; (800045c <MX_USART2_UART_Init+0x58>)
 8000442:	2200      	movs	r2, #0
 8000444:	625a      	str	r2, [r3, #36]	; 0x24
  if (HAL_UART_Init(&huart2) != HAL_OK)
 8000446:	4805      	ldr	r0, [pc, #20]	; (800045c <MX_USART2_UART_Init+0x58>)
 8000448:	f002 ff1c 	bl	8003284 <HAL_UART_Init>
 800044c:	4603      	mov	r3, r0
 800044e:	2b00      	cmp	r3, #0
 8000450:	d001      	beq.n	8000456 <MX_USART2_UART_Init+0x52>
  {
    Error_Handler();
 8000452:	f000 f85f 	bl	8000514 <Error_Handler>
  }
  /* USER CODE BEGIN USART2_Init 2 */
//
  /* USER CODE END USART2_Init 2 */

}
 8000456:	bf00      	nop
 8000458:	bd80      	pop	{r7, pc}
 800045a:	bf00      	nop
 800045c:	2000010c 	.word	0x2000010c
 8000460:	40004400 	.word	0x40004400

08000464 <MX_GPIO_Init>:
  * @brief GPIO Initialization Function
  * @param None
  * @retval None
  */
static void MX_GPIO_Init(void)
{
 8000464:	b580      	push	{r7, lr}
 8000466:	b088      	sub	sp, #32
 8000468:	af00      	add	r7, sp, #0
  GPIO_InitTypeDef GPIO_InitStruct = {0};
 800046a:	f107 030c 	add.w	r3, r7, #12
 800046e:	2200      	movs	r2, #0
 8000470:	601a      	str	r2, [r3, #0]
 8000472:	605a      	str	r2, [r3, #4]
 8000474:	609a      	str	r2, [r3, #8]
 8000476:	60da      	str	r2, [r3, #12]
 8000478:	611a      	str	r2, [r3, #16]
/* USER CODE BEGIN MX_GPIO_Init_1 */
/* USER CODE END MX_GPIO_Init_1 */

  /* GPIO Ports Clock Enable */
  __HAL_RCC_GPIOF_CLK_ENABLE();
 800047a:	4b25      	ldr	r3, [pc, #148]	; (8000510 <MX_GPIO_Init+0xac>)
 800047c:	695b      	ldr	r3, [r3, #20]
 800047e:	4a24      	ldr	r2, [pc, #144]	; (8000510 <MX_GPIO_Init+0xac>)
 8000480:	f443 0380 	orr.w	r3, r3, #4194304	; 0x400000
 8000484:	6153      	str	r3, [r2, #20]
 8000486:	4b22      	ldr	r3, [pc, #136]	; (8000510 <MX_GPIO_Init+0xac>)
 8000488:	695b      	ldr	r3, [r3, #20]
 800048a:	f403 0380 	and.w	r3, r3, #4194304	; 0x400000
 800048e:	60bb      	str	r3, [r7, #8]
 8000490:	68bb      	ldr	r3, [r7, #8]
  __HAL_RCC_GPIOA_CLK_ENABLE();
 8000492:	4b1f      	ldr	r3, [pc, #124]	; (8000510 <MX_GPIO_Init+0xac>)
 8000494:	695b      	ldr	r3, [r3, #20]
 8000496:	4a1e      	ldr	r2, [pc, #120]	; (8000510 <MX_GPIO_Init+0xac>)
 8000498:	f443 3300 	orr.w	r3, r3, #131072	; 0x20000
 800049c:	6153      	str	r3, [r2, #20]
 800049e:	4b1c      	ldr	r3, [pc, #112]	; (8000510 <MX_GPIO_Init+0xac>)
 80004a0:	695b      	ldr	r3, [r3, #20]
 80004a2:	f403 3300 	and.w	r3, r3, #131072	; 0x20000
 80004a6:	607b      	str	r3, [r7, #4]
 80004a8:	687b      	ldr	r3, [r7, #4]
  __HAL_RCC_GPIOB_CLK_ENABLE();
 80004aa:	4b19      	ldr	r3, [pc, #100]	; (8000510 <MX_GPIO_Init+0xac>)
 80004ac:	695b      	ldr	r3, [r3, #20]
 80004ae:	4a18      	ldr	r2, [pc, #96]	; (8000510 <MX_GPIO_Init+0xac>)
 80004b0:	f443 2380 	orr.w	r3, r3, #262144	; 0x40000
 80004b4:	6153      	str	r3, [r2, #20]
 80004b6:	4b16      	ldr	r3, [pc, #88]	; (8000510 <MX_GPIO_Init+0xac>)
 80004b8:	695b      	ldr	r3, [r3, #20]
 80004ba:	f403 2380 	and.w	r3, r3, #262144	; 0x40000
 80004be:	603b      	str	r3, [r7, #0]
 80004c0:	683b      	ldr	r3, [r7, #0]

  /*Configure GPIO pin Output Level */
  HAL_GPIO_WritePin(GPIOA, Keypad_Output_5_Pin|Keypad_Output_6_Pin|Keypad_Output_7_Pin|Keypad_Output_8_Pin, GPIO_PIN_RESET);
 80004c2:	2200      	movs	r2, #0
 80004c4:	21f0      	movs	r1, #240	; 0xf0
 80004c6:	f04f 4090 	mov.w	r0, #1207959552	; 0x48000000
 80004ca:	f000 fe89 	bl	80011e0 <HAL_GPIO_WritePin>

  /*Configure GPIO pins : Keypad_Input_0_Pin Keypad_Input_1_Pin Keypad_Input_2_Pin Keypad_Input_3_Pin */
  GPIO_InitStruct.Pin = Keypad_Input_0_Pin|Keypad_Input_1_Pin|Keypad_Input_2_Pin|Keypad_Input_3_Pin;
 80004ce:	230f      	movs	r3, #15
 80004d0:	60fb      	str	r3, [r7, #12]
  GPIO_InitStruct.Mode = GPIO_MODE_INPUT;
 80004d2:	2300      	movs	r3, #0
 80004d4:	613b      	str	r3, [r7, #16]
  GPIO_InitStruct.Pull = GPIO_NOPULL;
 80004d6:	2300      	movs	r3, #0
 80004d8:	617b      	str	r3, [r7, #20]
  HAL_GPIO_Init(GPIOA, &GPIO_InitStruct);
 80004da:	f107 030c 	add.w	r3, r7, #12
 80004de:	4619      	mov	r1, r3
 80004e0:	f04f 4090 	mov.w	r0, #1207959552	; 0x48000000
 80004e4:	f000 fd0a 	bl	8000efc <HAL_GPIO_Init>

  /*Configure GPIO pins : Keypad_Output_5_Pin Keypad_Output_6_Pin Keypad_Output_7_Pin Keypad_Output_8_Pin */
  GPIO_InitStruct.Pin = Keypad_Output_5_Pin|Keypad_Output_6_Pin|Keypad_Output_7_Pin|Keypad_Output_8_Pin;
 80004e8:	23f0      	movs	r3, #240	; 0xf0
 80004ea:	60fb      	str	r3, [r7, #12]
  GPIO_InitStruct.Mode = GPIO_MODE_OUTPUT_PP;
 80004ec:	2301      	movs	r3, #1
 80004ee:	613b      	str	r3, [r7, #16]
  GPIO_InitStruct.Pull = GPIO_NOPULL;
 80004f0:	2300      	movs	r3, #0
 80004f2:	617b      	str	r3, [r7, #20]
  GPIO_InitStruct.Speed = GPIO_SPEED_FREQ_LOW;
 80004f4:	2300      	movs	r3, #0
 80004f6:	61bb      	str	r3, [r7, #24]
  HAL_GPIO_Init(GPIOA, &GPIO_InitStruct);
 80004f8:	f107 030c 	add.w	r3, r7, #12
 80004fc:	4619      	mov	r1, r3
 80004fe:	f04f 4090 	mov.w	r0, #1207959552	; 0x48000000
 8000502:	f000 fcfb 	bl	8000efc <HAL_GPIO_Init>

/* USER CODE BEGIN MX_GPIO_Init_2 */
/* USER CODE END MX_GPIO_Init_2 */
}
 8000506:	bf00      	nop
 8000508:	3720      	adds	r7, #32
 800050a:	46bd      	mov	sp, r7
 800050c:	bd80      	pop	{r7, pc}
 800050e:	bf00      	nop
 8000510:	40021000 	.word	0x40021000

08000514 <Error_Handler>:
/**
  * @brief  This function is executed in case of error occurrence.
  * @retval None
  */
void Error_Handler(void)
{
 8000514:	b480      	push	{r7}
 8000516:	af00      	add	r7, sp, #0
  \details Disables IRQ interrupts by setting the I-bit in the CPSR.
           Can only be executed in Privileged modes.
 */
__STATIC_FORCEINLINE void __disable_irq(void)
{
  __ASM volatile ("cpsid i" : : : "memory");
 8000518:	b672      	cpsid	i
}
 800051a:	bf00      	nop
  /* USER CODE BEGIN Error_Handler_Debug */
  /* User can add his own implementation to report the HAL error return state */
  __disable_irq();
  while (1)
 800051c:	e7fe      	b.n	800051c <Error_Handler+0x8>
	...

08000520 <HAL_MspInit>:
/* USER CODE END 0 */
/**
  * Initializes the Global MSP.
  */
void HAL_MspInit(void)
{
 8000520:	b480      	push	{r7}
 8000522:	b083      	sub	sp, #12
 8000524:	af00      	add	r7, sp, #0
  /* USER CODE BEGIN MspInit 0 */

  /* USER CODE END MspInit 0 */

  __HAL_RCC_SYSCFG_CLK_ENABLE();
 8000526:	4b0f      	ldr	r3, [pc, #60]	; (8000564 <HAL_MspInit+0x44>)
 8000528:	699b      	ldr	r3, [r3, #24]
 800052a:	4a0e      	ldr	r2, [pc, #56]	; (8000564 <HAL_MspInit+0x44>)
 800052c:	f043 0301 	orr.w	r3, r3, #1
 8000530:	6193      	str	r3, [r2, #24]
 8000532:	4b0c      	ldr	r3, [pc, #48]	; (8000564 <HAL_MspInit+0x44>)
 8000534:	699b      	ldr	r3, [r3, #24]
 8000536:	f003 0301 	and.w	r3, r3, #1
 800053a:	607b      	str	r3, [r7, #4]
 800053c:	687b      	ldr	r3, [r7, #4]
  __HAL_RCC_PWR_CLK_ENABLE();
 800053e:	4b09      	ldr	r3, [pc, #36]	; (8000564 <HAL_MspInit+0x44>)
 8000540:	69db      	ldr	r3, [r3, #28]
 8000542:	4a08      	ldr	r2, [pc, #32]	; (8000564 <HAL_MspInit+0x44>)
 8000544:	f043 5380 	orr.w	r3, r3, #268435456	; 0x10000000
 8000548:	61d3      	str	r3, [r2, #28]
 800054a:	4b06      	ldr	r3, [pc, #24]	; (8000564 <HAL_MspInit+0x44>)
 800054c:	69db      	ldr	r3, [r3, #28]
 800054e:	f003 5380 	and.w	r3, r3, #268435456	; 0x10000000
 8000552:	603b      	str	r3, [r7, #0]
 8000554:	683b      	ldr	r3, [r7, #0]
  /* System interrupt init*/

  /* USER CODE BEGIN MspInit 1 */

  /* USER CODE END MspInit 1 */
}
 8000556:	bf00      	nop
 8000558:	370c      	adds	r7, #12
 800055a:	46bd      	mov	sp, r7
 800055c:	f85d 7b04 	ldr.w	r7, [sp], #4
 8000560:	4770      	bx	lr
 8000562:	bf00      	nop
 8000564:	40021000 	.word	0x40021000

08000568 <HAL_I2C_MspInit>:
* This function configures the hardware resources used in this example
* @param hi2c: I2C handle pointer
* @retval None
*/
void HAL_I2C_MspInit(I2C_HandleTypeDef* hi2c)
{
 8000568:	b580      	push	{r7, lr}
 800056a:	b08a      	sub	sp, #40	; 0x28
 800056c:	af00      	add	r7, sp, #0
 800056e:	6078      	str	r0, [r7, #4]
  GPIO_InitTypeDef GPIO_InitStruct = {0};
 8000570:	f107 0314 	add.w	r3, r7, #20
 8000574:	2200      	movs	r2, #0
 8000576:	601a      	str	r2, [r3, #0]
 8000578:	605a      	str	r2, [r3, #4]
 800057a:	609a      	str	r2, [r3, #8]
 800057c:	60da      	str	r2, [r3, #12]
 800057e:	611a      	str	r2, [r3, #16]
  if(hi2c->Instance==I2C1)
 8000580:	687b      	ldr	r3, [r7, #4]
 8000582:	681b      	ldr	r3, [r3, #0]
 8000584:	4a17      	ldr	r2, [pc, #92]	; (80005e4 <HAL_I2C_MspInit+0x7c>)
 8000586:	4293      	cmp	r3, r2
 8000588:	d127      	bne.n	80005da <HAL_I2C_MspInit+0x72>
  {
  /* USER CODE BEGIN I2C1_MspInit 0 */

  /* USER CODE END I2C1_MspInit 0 */

    __HAL_RCC_GPIOB_CLK_ENABLE();
 800058a:	4b17      	ldr	r3, [pc, #92]	; (80005e8 <HAL_I2C_MspInit+0x80>)
 800058c:	695b      	ldr	r3, [r3, #20]
 800058e:	4a16      	ldr	r2, [pc, #88]	; (80005e8 <HAL_I2C_MspInit+0x80>)
 8000590:	f443 2380 	orr.w	r3, r3, #262144	; 0x40000
 8000594:	6153      	str	r3, [r2, #20]
 8000596:	4b14      	ldr	r3, [pc, #80]	; (80005e8 <HAL_I2C_MspInit+0x80>)
 8000598:	695b      	ldr	r3, [r3, #20]
 800059a:	f403 2380 	and.w	r3, r3, #262144	; 0x40000
 800059e:	613b      	str	r3, [r7, #16]
 80005a0:	693b      	ldr	r3, [r7, #16]
    /**I2C1 GPIO Configuration
    PB6     ------> I2C1_SCL
    PB7     ------> I2C1_SDA
    */
    GPIO_InitStruct.Pin = Display_SCL_Pin|Display_SDA_Pin;
 80005a2:	23c0      	movs	r3, #192	; 0xc0
 80005a4:	617b      	str	r3, [r7, #20]
    GPIO_InitStruct.Mode = GPIO_MODE_AF_OD;
 80005a6:	2312      	movs	r3, #18
 80005a8:	61bb      	str	r3, [r7, #24]
    GPIO_InitStruct.Pull = GPIO_NOPULL;
 80005aa:	2300      	movs	r3, #0
 80005ac:	61fb      	str	r3, [r7, #28]
    GPIO_InitStruct.Speed = GPIO_SPEED_FREQ_HIGH;
 80005ae:	2303      	movs	r3, #3
 80005b0:	623b      	str	r3, [r7, #32]
    GPIO_InitStruct.Alternate = GPIO_AF4_I2C1;
 80005b2:	2304      	movs	r3, #4
 80005b4:	627b      	str	r3, [r7, #36]	; 0x24
    HAL_GPIO_Init(GPIOB, &GPIO_InitStruct);
 80005b6:	f107 0314 	add.w	r3, r7, #20
 80005ba:	4619      	mov	r1, r3
 80005bc:	480b      	ldr	r0, [pc, #44]	; (80005ec <HAL_I2C_MspInit+0x84>)
 80005be:	f000 fc9d 	bl	8000efc <HAL_GPIO_Init>

    /* Peripheral clock enable */
    __HAL_RCC_I2C1_CLK_ENABLE();
 80005c2:	4b09      	ldr	r3, [pc, #36]	; (80005e8 <HAL_I2C_MspInit+0x80>)
 80005c4:	69db      	ldr	r3, [r3, #28]
 80005c6:	4a08      	ldr	r2, [pc, #32]	; (80005e8 <HAL_I2C_MspInit+0x80>)
 80005c8:	f443 1300 	orr.w	r3, r3, #2097152	; 0x200000
 80005cc:	61d3      	str	r3, [r2, #28]
 80005ce:	4b06      	ldr	r3, [pc, #24]	; (80005e8 <HAL_I2C_MspInit+0x80>)
 80005d0:	69db      	ldr	r3, [r3, #28]
 80005d2:	f403 1300 	and.w	r3, r3, #2097152	; 0x200000
 80005d6:	60fb      	str	r3, [r7, #12]
 80005d8:	68fb      	ldr	r3, [r7, #12]
  /* USER CODE BEGIN I2C1_MspInit 1 */

  /* USER CODE END I2C1_MspInit 1 */
  }

}
 80005da:	bf00      	nop
 80005dc:	3728      	adds	r7, #40	; 0x28
 80005de:	46bd      	mov	sp, r7
 80005e0:	bd80      	pop	{r7, pc}
 80005e2:	bf00      	nop
 80005e4:	40005400 	.word	0x40005400
 80005e8:	40021000 	.word	0x40021000
 80005ec:	48000400 	.word	0x48000400

080005f0 <HAL_UART_MspInit>:
* This function configures the hardware resources used in this example
* @param huart: UART handle pointer
* @retval None
*/
void HAL_UART_MspInit(UART_HandleTypeDef* huart)
{
 80005f0:	b580      	push	{r7, lr}
 80005f2:	b08c      	sub	sp, #48	; 0x30
 80005f4:	af00      	add	r7, sp, #0
 80005f6:	6078      	str	r0, [r7, #4]
  GPIO_InitTypeDef GPIO_InitStruct = {0};
 80005f8:	f107 031c 	add.w	r3, r7, #28
 80005fc:	2200      	movs	r2, #0
 80005fe:	601a      	str	r2, [r3, #0]
 8000600:	605a      	str	r2, [r3, #4]
 8000602:	609a      	str	r2, [r3, #8]
 8000604:	60da      	str	r2, [r3, #12]
 8000606:	611a      	str	r2, [r3, #16]
  if(huart->Instance==USART1)
 8000608:	687b      	ldr	r3, [r7, #4]
 800060a:	681b      	ldr	r3, [r3, #0]
 800060c:	4a2f      	ldr	r2, [pc, #188]	; (80006cc <HAL_UART_MspInit+0xdc>)
 800060e:	4293      	cmp	r3, r2
 8000610:	d12a      	bne.n	8000668 <HAL_UART_MspInit+0x78>
  {
  /* USER CODE BEGIN USART1_MspInit 0 */

  /* USER CODE END USART1_MspInit 0 */
    /* Peripheral clock enable */
    __HAL_RCC_USART1_CLK_ENABLE();
 8000612:	4b2f      	ldr	r3, [pc, #188]	; (80006d0 <HAL_UART_MspInit+0xe0>)
 8000614:	699b      	ldr	r3, [r3, #24]
 8000616:	4a2e      	ldr	r2, [pc, #184]	; (80006d0 <HAL_UART_MspInit+0xe0>)
 8000618:	f443 4380 	orr.w	r3, r3, #16384	; 0x4000
 800061c:	6193      	str	r3, [r2, #24]
 800061e:	4b2c      	ldr	r3, [pc, #176]	; (80006d0 <HAL_UART_MspInit+0xe0>)
 8000620:	699b      	ldr	r3, [r3, #24]
 8000622:	f403 4380 	and.w	r3, r3, #16384	; 0x4000
 8000626:	61bb      	str	r3, [r7, #24]
 8000628:	69bb      	ldr	r3, [r7, #24]

    __HAL_RCC_GPIOA_CLK_ENABLE();
 800062a:	4b29      	ldr	r3, [pc, #164]	; (80006d0 <HAL_UART_MspInit+0xe0>)
 800062c:	695b      	ldr	r3, [r3, #20]
 800062e:	4a28      	ldr	r2, [pc, #160]	; (80006d0 <HAL_UART_MspInit+0xe0>)
 8000630:	f443 3300 	orr.w	r3, r3, #131072	; 0x20000
 8000634:	6153      	str	r3, [r2, #20]
 8000636:	4b26      	ldr	r3, [pc, #152]	; (80006d0 <HAL_UART_MspInit+0xe0>)
 8000638:	695b      	ldr	r3, [r3, #20]
 800063a:	f403 3300 	and.w	r3, r3, #131072	; 0x20000
 800063e:	617b      	str	r3, [r7, #20]
 8000640:	697b      	ldr	r3, [r7, #20]
    /**USART1 GPIO Configuration
    PA9     ------> USART1_TX
    PA10     ------> USART1_RX
    */
    GPIO_InitStruct.Pin = RFID_TX_Pin|RFID_RX_Pin;
 8000642:	f44f 63c0 	mov.w	r3, #1536	; 0x600
 8000646:	61fb      	str	r3, [r7, #28]
    GPIO_InitStruct.Mode = GPIO_MODE_AF_PP;
 8000648:	2302      	movs	r3, #2
 800064a:	623b      	str	r3, [r7, #32]
    GPIO_InitStruct.Pull = GPIO_NOPULL;
 800064c:	2300      	movs	r3, #0
 800064e:	627b      	str	r3, [r7, #36]	; 0x24
    GPIO_InitStruct.Speed = GPIO_SPEED_FREQ_HIGH;
 8000650:	2303      	movs	r3, #3
 8000652:	62bb      	str	r3, [r7, #40]	; 0x28
    GPIO_InitStruct.Alternate = GPIO_AF7_USART1;
 8000654:	2307      	movs	r3, #7
 8000656:	62fb      	str	r3, [r7, #44]	; 0x2c
    HAL_GPIO_Init(GPIOA, &GPIO_InitStruct);
 8000658:	f107 031c 	add.w	r3, r7, #28
 800065c:	4619      	mov	r1, r3
 800065e:	f04f 4090 	mov.w	r0, #1207959552	; 0x48000000
 8000662:	f000 fc4b 	bl	8000efc <HAL_GPIO_Init>
  /* USER CODE BEGIN USART2_MspInit 1 */

  /* USER CODE END USART2_MspInit 1 */
  }

}
 8000666:	e02c      	b.n	80006c2 <HAL_UART_MspInit+0xd2>
  else if(huart->Instance==USART2)
 8000668:	687b      	ldr	r3, [r7, #4]
 800066a:	681b      	ldr	r3, [r3, #0]
 800066c:	4a19      	ldr	r2, [pc, #100]	; (80006d4 <HAL_UART_MspInit+0xe4>)
 800066e:	4293      	cmp	r3, r2
 8000670:	d127      	bne.n	80006c2 <HAL_UART_MspInit+0xd2>
    __HAL_RCC_USART2_CLK_ENABLE();
 8000672:	4b17      	ldr	r3, [pc, #92]	; (80006d0 <HAL_UART_MspInit+0xe0>)
 8000674:	69db      	ldr	r3, [r3, #28]
 8000676:	4a16      	ldr	r2, [pc, #88]	; (80006d0 <HAL_UART_MspInit+0xe0>)
 8000678:	f443 3300 	orr.w	r3, r3, #131072	; 0x20000
 800067c:	61d3      	str	r3, [r2, #28]
 800067e:	4b14      	ldr	r3, [pc, #80]	; (80006d0 <HAL_UART_MspInit+0xe0>)
 8000680:	69db      	ldr	r3, [r3, #28]
 8000682:	f403 3300 	and.w	r3, r3, #131072	; 0x20000
 8000686:	613b      	str	r3, [r7, #16]
 8000688:	693b      	ldr	r3, [r7, #16]
    __HAL_RCC_GPIOB_CLK_ENABLE();
 800068a:	4b11      	ldr	r3, [pc, #68]	; (80006d0 <HAL_UART_MspInit+0xe0>)
 800068c:	695b      	ldr	r3, [r3, #20]
 800068e:	4a10      	ldr	r2, [pc, #64]	; (80006d0 <HAL_UART_MspInit+0xe0>)
 8000690:	f443 2380 	orr.w	r3, r3, #262144	; 0x40000
 8000694:	6153      	str	r3, [r2, #20]
 8000696:	4b0e      	ldr	r3, [pc, #56]	; (80006d0 <HAL_UART_MspInit+0xe0>)
 8000698:	695b      	ldr	r3, [r3, #20]
 800069a:	f403 2380 	and.w	r3, r3, #262144	; 0x40000
 800069e:	60fb      	str	r3, [r7, #12]
 80006a0:	68fb      	ldr	r3, [r7, #12]
    GPIO_InitStruct.Pin = Finger_TX_Pin|Finger_RX_Pin;
 80006a2:	2318      	movs	r3, #24
 80006a4:	61fb      	str	r3, [r7, #28]
    GPIO_InitStruct.Mode = GPIO_MODE_AF_PP;
 80006a6:	2302      	movs	r3, #2
 80006a8:	623b      	str	r3, [r7, #32]
    GPIO_InitStruct.Pull = GPIO_NOPULL;
 80006aa:	2300      	movs	r3, #0
 80006ac:	627b      	str	r3, [r7, #36]	; 0x24
    GPIO_InitStruct.Speed = GPIO_SPEED_FREQ_HIGH;
 80006ae:	2303      	movs	r3, #3
 80006b0:	62bb      	str	r3, [r7, #40]	; 0x28
    GPIO_InitStruct.Alternate = GPIO_AF7_USART2;
 80006b2:	2307      	movs	r3, #7
 80006b4:	62fb      	str	r3, [r7, #44]	; 0x2c
    HAL_GPIO_Init(GPIOB, &GPIO_InitStruct);
 80006b6:	f107 031c 	add.w	r3, r7, #28
 80006ba:	4619      	mov	r1, r3
 80006bc:	4806      	ldr	r0, [pc, #24]	; (80006d8 <HAL_UART_MspInit+0xe8>)
 80006be:	f000 fc1d 	bl	8000efc <HAL_GPIO_Init>
}
 80006c2:	bf00      	nop
 80006c4:	3730      	adds	r7, #48	; 0x30
 80006c6:	46bd      	mov	sp, r7
 80006c8:	bd80      	pop	{r7, pc}
 80006ca:	bf00      	nop
 80006cc:	40013800 	.word	0x40013800
 80006d0:	40021000 	.word	0x40021000
 80006d4:	40004400 	.word	0x40004400
 80006d8:	48000400 	.word	0x48000400

080006dc <NMI_Handler>:
/******************************************************************************/
/**
  * @brief This function handles Non maskable interrupt.
  */
void NMI_Handler(void)
{
 80006dc:	b480      	push	{r7}
 80006de:	af00      	add	r7, sp, #0
  /* USER CODE BEGIN NonMaskableInt_IRQn 0 */

  /* USER CODE END NonMaskableInt_IRQn 0 */
  /* USER CODE BEGIN NonMaskableInt_IRQn 1 */
  while (1)
 80006e0:	e7fe      	b.n	80006e0 <NMI_Handler+0x4>

080006e2 <HardFault_Handler>:

/**
  * @brief This function handles Hard fault interrupt.
  */
void HardFault_Handler(void)
{
 80006e2:	b480      	push	{r7}
 80006e4:	af00      	add	r7, sp, #0
  /* USER CODE BEGIN HardFault_IRQn 0 */

  /* USER CODE END HardFault_IRQn 0 */
  while (1)
 80006e6:	e7fe      	b.n	80006e6 <HardFault_Handler+0x4>

080006e8 <MemManage_Handler>:

/**
  * @brief This function handles Memory management fault.
  */
void MemManage_Handler(void)
{
 80006e8:	b480      	push	{r7}
 80006ea:	af00      	add	r7, sp, #0
  /* USER CODE BEGIN MemoryManagement_IRQn 0 */

  /* USER CODE END MemoryManagement_IRQn 0 */
  while (1)
 80006ec:	e7fe      	b.n	80006ec <MemManage_Handler+0x4>

080006ee <BusFault_Handler>:

/**
  * @brief This function handles Pre-fetch fault, memory access fault.
  */
void BusFault_Handler(void)
{
 80006ee:	b480      	push	{r7}
 80006f0:	af00      	add	r7, sp, #0
  /* USER CODE BEGIN BusFault_IRQn 0 */

  /* USER CODE END BusFault_IRQn 0 */
  while (1)
 80006f2:	e7fe      	b.n	80006f2 <BusFault_Handler+0x4>

080006f4 <UsageFault_Handler>:

/**
  * @brief This function handles Undefined instruction or illegal state.
  */
void UsageFault_Handler(void)
{
 80006f4:	b480      	push	{r7}
 80006f6:	af00      	add	r7, sp, #0
  /* USER CODE BEGIN UsageFault_IRQn 0 */

  /* USER CODE END UsageFault_IRQn 0 */
  while (1)
 80006f8:	e7fe      	b.n	80006f8 <UsageFault_Handler+0x4>

080006fa <SVC_Handler>:

/**
  * @brief This function handles System service call via SWI instruction.
  */
void SVC_Handler(void)
{
 80006fa:	b480      	push	{r7}
 80006fc:	af00      	add	r7, sp, #0

  /* USER CODE END SVCall_IRQn 0 */
  /* USER CODE BEGIN SVCall_IRQn 1 */

  /* USER CODE END SVCall_IRQn 1 */
}
 80006fe:	bf00      	nop
 8000700:	46bd      	mov	sp, r7
 8000702:	f85d 7b04 	ldr.w	r7, [sp], #4
 8000706:	4770      	bx	lr

08000708 <DebugMon_Handler>:

/**
  * @brief This function handles Debug monitor.
  */
void DebugMon_Handler(void)
{
 8000708:	b480      	push	{r7}
 800070a:	af00      	add	r7, sp, #0

  /* USER CODE END DebugMonitor_IRQn 0 */
  /* USER CODE BEGIN DebugMonitor_IRQn 1 */

  /* USER CODE END DebugMonitor_IRQn 1 */
}
 800070c:	bf00      	nop
 800070e:	46bd      	mov	sp, r7
 8000710:	f85d 7b04 	ldr.w	r7, [sp], #4
 8000714:	4770      	bx	lr

08000716 <PendSV_Handler>:

/**
  * @brief This function handles Pendable request for system service.
  */
void PendSV_Handler(void)
{
 8000716:	b480      	push	{r7}
 8000718:	af00      	add	r7, sp, #0

  /* USER CODE END PendSV_IRQn 0 */
  /* USER CODE BEGIN PendSV_IRQn 1 */

  /* USER CODE END PendSV_IRQn 1 */
}
 800071a:	bf00      	nop
 800071c:	46bd      	mov	sp, r7
 800071e:	f85d 7b04 	ldr.w	r7, [sp], #4
 8000722:	4770      	bx	lr

08000724 <SysTick_Handler>:

/**
  * @brief This function handles System tick timer.
  */
void SysTick_Handler(void)
{
 8000724:	b580      	push	{r7, lr}
 8000726:	af00      	add	r7, sp, #0
  /* USER CODE BEGIN SysTick_IRQn 0 */

  /* USER CODE END SysTick_IRQn 0 */
  HAL_IncTick();
 8000728:	f000 fabe 	bl	8000ca8 <HAL_IncTick>
  /* USER CODE BEGIN SysTick_IRQn 1 */

  /* USER CODE END SysTick_IRQn 1 */
}
 800072c:	bf00      	nop
 800072e:	bd80      	pop	{r7, pc}

08000730 <SystemInit>:
  * @brief  Setup the microcontroller system
  * @param  None
  * @retval None
  */
void SystemInit(void)
{
 8000730:	b480      	push	{r7}
 8000732:	af00      	add	r7, sp, #0
/* FPU settings --------------------------------------------------------------*/
#if (__FPU_PRESENT == 1) && (__FPU_USED == 1)
  SCB->CPACR |= ((3UL << 10*2)|(3UL << 11*2));  /* set CP10 and CP11 Full Access */
 8000734:	4b06      	ldr	r3, [pc, #24]	; (8000750 <SystemInit+0x20>)
 8000736:	f8d3 3088 	ldr.w	r3, [r3, #136]	; 0x88
 800073a:	4a05      	ldr	r2, [pc, #20]	; (8000750 <SystemInit+0x20>)
 800073c:	f443 0370 	orr.w	r3, r3, #15728640	; 0xf00000
 8000740:	f8c2 3088 	str.w	r3, [r2, #136]	; 0x88

  /* Configure the Vector Table location -------------------------------------*/
#if defined(USER_VECT_TAB_ADDRESS)
  SCB->VTOR = VECT_TAB_BASE_ADDRESS | VECT_TAB_OFFSET; /* Vector Table Relocation in Internal SRAM */
#endif /* USER_VECT_TAB_ADDRESS */
}
 8000744:	bf00      	nop
 8000746:	46bd      	mov	sp, r7
 8000748:	f85d 7b04 	ldr.w	r7, [sp], #4
 800074c:	4770      	bx	lr
 800074e:	bf00      	nop
 8000750:	e000ed00 	.word	0xe000ed00

08000754 <Reset_Handler>:

    .section	.text.Reset_Handler
	.weak	Reset_Handler
	.type	Reset_Handler, %function
Reset_Handler:
  ldr   sp, =_estack    /* Atollic update: set stack pointer */
 8000754:	f8df d034 	ldr.w	sp, [pc, #52]	; 800078c <LoopForever+0x2>
  
/* Call the clock system initialization function.*/
    bl  SystemInit
 8000758:	f7ff ffea 	bl	8000730 <SystemInit>

/* Copy the data segment initializers from flash to SRAM */
  ldr r0, =_sdata
 800075c:	480c      	ldr	r0, [pc, #48]	; (8000790 <LoopForever+0x6>)
  ldr r1, =_edata
 800075e:	490d      	ldr	r1, [pc, #52]	; (8000794 <LoopForever+0xa>)
  ldr r2, =_sidata
 8000760:	4a0d      	ldr	r2, [pc, #52]	; (8000798 <LoopForever+0xe>)
  movs r3, #0
 8000762:	2300      	movs	r3, #0
  b LoopCopyDataInit
 8000764:	e002      	b.n	800076c <LoopCopyDataInit>

08000766 <CopyDataInit>:

CopyDataInit:
  ldr r4, [r2, r3]
 8000766:	58d4      	ldr	r4, [r2, r3]
  str r4, [r0, r3]
 8000768:	50c4      	str	r4, [r0, r3]
  adds r3, r3, #4
 800076a:	3304      	adds	r3, #4

0800076c <LoopCopyDataInit>:

LoopCopyDataInit:
  adds r4, r0, r3
 800076c:	18c4      	adds	r4, r0, r3
  cmp r4, r1
 800076e:	428c      	cmp	r4, r1
  bcc CopyDataInit
 8000770:	d3f9      	bcc.n	8000766 <CopyDataInit>
  
/* Zero fill the bss segment. */
  ldr r2, =_sbss
 8000772:	4a0a      	ldr	r2, [pc, #40]	; (800079c <LoopForever+0x12>)
  ldr r4, =_ebss
 8000774:	4c0a      	ldr	r4, [pc, #40]	; (80007a0 <LoopForever+0x16>)
  movs r3, #0
 8000776:	2300      	movs	r3, #0
  b LoopFillZerobss
 8000778:	e001      	b.n	800077e <LoopFillZerobss>

0800077a <FillZerobss>:

FillZerobss:
  str  r3, [r2]
 800077a:	6013      	str	r3, [r2, #0]
  adds r2, r2, #4
 800077c:	3204      	adds	r2, #4

0800077e <LoopFillZerobss>:

LoopFillZerobss:
  cmp r2, r4
 800077e:	42a2      	cmp	r2, r4
  bcc FillZerobss
 8000780:	d3fb      	bcc.n	800077a <FillZerobss>

/* Call static constructors */
    bl __libc_init_array
 8000782:	f003 f919 	bl	80039b8 <__libc_init_array>
/* Call the application's entry point.*/
	bl	main
 8000786:	f7ff fd1f 	bl	80001c8 <main>

0800078a <LoopForever>:

LoopForever:
    b LoopForever
 800078a:	e7fe      	b.n	800078a <LoopForever>
  ldr   sp, =_estack    /* Atollic update: set stack pointer */
 800078c:	20003000 	.word	0x20003000
  ldr r0, =_sdata
 8000790:	20000000 	.word	0x20000000
  ldr r1, =_edata
 8000794:	20000014 	.word	0x20000014
  ldr r2, =_sidata
 8000798:	0800426c 	.word	0x0800426c
  ldr r2, =_sbss
 800079c:	20000014 	.word	0x20000014
  ldr r4, =_ebss
 80007a0:	200005a0 	.word	0x200005a0

080007a4 <ADC1_2_IRQHandler>:
 * @retval : None
*/
    .section	.text.Default_Handler,"ax",%progbits
Default_Handler:
Infinite_Loop:
	b	Infinite_Loop
 80007a4:	e7fe      	b.n	80007a4 <ADC1_2_IRQHandler>

080007a6 <ssd1306_Reset>:
#include <stdlib.h>
#include <string.h>  // For memcpy

#if defined(SSD1306_USE_I2C)

void ssd1306_Reset(void) {
 80007a6:	b480      	push	{r7}
 80007a8:	af00      	add	r7, sp, #0
    /* for I2C - do nothing */
}
 80007aa:	bf00      	nop
 80007ac:	46bd      	mov	sp, r7
 80007ae:	f85d 7b04 	ldr.w	r7, [sp], #4
 80007b2:	4770      	bx	lr

080007b4 <ssd1306_WriteCommand>:

// Send a byte to the command register
void ssd1306_WriteCommand(uint8_t byte) {
 80007b4:	b580      	push	{r7, lr}
 80007b6:	b086      	sub	sp, #24
 80007b8:	af04      	add	r7, sp, #16
 80007ba:	4603      	mov	r3, r0
 80007bc:	71fb      	strb	r3, [r7, #7]
    HAL_I2C_Mem_Write(&SSD1306_I2C_PORT, SSD1306_I2C_ADDR, 0x00, 1, &byte, 1, HAL_MAX_DELAY);
 80007be:	f04f 33ff 	mov.w	r3, #4294967295
 80007c2:	9302      	str	r3, [sp, #8]
 80007c4:	2301      	movs	r3, #1
 80007c6:	9301      	str	r3, [sp, #4]
 80007c8:	1dfb      	adds	r3, r7, #7
 80007ca:	9300      	str	r3, [sp, #0]
 80007cc:	2301      	movs	r3, #1
 80007ce:	2200      	movs	r2, #0
 80007d0:	2178      	movs	r1, #120	; 0x78
 80007d2:	4803      	ldr	r0, [pc, #12]	; (80007e0 <ssd1306_WriteCommand+0x2c>)
 80007d4:	f000 fdac 	bl	8001330 <HAL_I2C_Mem_Write>
}
 80007d8:	bf00      	nop
 80007da:	3708      	adds	r7, #8
 80007dc:	46bd      	mov	sp, r7
 80007de:	bd80      	pop	{r7, pc}
 80007e0:	20000030 	.word	0x20000030

080007e4 <ssd1306_WriteData>:

// Send data
void ssd1306_WriteData(uint8_t* buffer, size_t buff_size) {
 80007e4:	b580      	push	{r7, lr}
 80007e6:	b086      	sub	sp, #24
 80007e8:	af04      	add	r7, sp, #16
 80007ea:	6078      	str	r0, [r7, #4]
 80007ec:	6039      	str	r1, [r7, #0]
    HAL_I2C_Mem_Write(&SSD1306_I2C_PORT, SSD1306_I2C_ADDR, 0x40, 1, buffer, buff_size, HAL_MAX_DELAY);
 80007ee:	683b      	ldr	r3, [r7, #0]
 80007f0:	b29b      	uxth	r3, r3
 80007f2:	f04f 32ff 	mov.w	r2, #4294967295
 80007f6:	9202      	str	r2, [sp, #8]
 80007f8:	9301      	str	r3, [sp, #4]
 80007fa:	687b      	ldr	r3, [r7, #4]
 80007fc:	9300      	str	r3, [sp, #0]
 80007fe:	2301      	movs	r3, #1
 8000800:	2240      	movs	r2, #64	; 0x40
 8000802:	2178      	movs	r1, #120	; 0x78
 8000804:	4803      	ldr	r0, [pc, #12]	; (8000814 <ssd1306_WriteData+0x30>)
 8000806:	f000 fd93 	bl	8001330 <HAL_I2C_Mem_Write>
}
 800080a:	bf00      	nop
 800080c:	3708      	adds	r7, #8
 800080e:	46bd      	mov	sp, r7
 8000810:	bd80      	pop	{r7, pc}
 8000812:	bf00      	nop
 8000814:	20000030 	.word	0x20000030

08000818 <ssd1306_Init>:
    }
    return ret;
}

/* Initialize the oled screen */
void ssd1306_Init(void) {
 8000818:	b580      	push	{r7, lr}
 800081a:	af00      	add	r7, sp, #0
    // Reset OLED
    ssd1306_Reset();
 800081c:	f7ff ffc3 	bl	80007a6 <ssd1306_Reset>

    // Wait for the screen to boot
    HAL_Delay(100);
 8000820:	2064      	movs	r0, #100	; 0x64
 8000822:	f000 fa61 	bl	8000ce8 <HAL_Delay>

    // Init OLED
    ssd1306_SetDisplayOn(0); //display off
 8000826:	2000      	movs	r0, #0
 8000828:	f000 f9da 	bl	8000be0 <ssd1306_SetDisplayOn>

    ssd1306_WriteCommand(0x20); //Set Memory Addressing Mode
 800082c:	2020      	movs	r0, #32
 800082e:	f7ff ffc1 	bl	80007b4 <ssd1306_WriteCommand>
    ssd1306_WriteCommand(0x00); // 00b,Horizontal Addressing Mode; 01b,Vertical Addressing Mode;
 8000832:	2000      	movs	r0, #0
 8000834:	f7ff ffbe 	bl	80007b4 <ssd1306_WriteCommand>
                                // 10b,Page Addressing Mode (RESET); 11b,Invalid

    ssd1306_WriteCommand(0xB0); //Set Page Start Address for Page Addressing Mode,0-7
 8000838:	20b0      	movs	r0, #176	; 0xb0
 800083a:	f7ff ffbb 	bl	80007b4 <ssd1306_WriteCommand>

#ifdef SSD1306_MIRROR_VERT
    ssd1306_WriteCommand(0xC0); // Mirror vertically
#else
    ssd1306_WriteCommand(0xC8); //Set COM Output Scan Direction
 800083e:	20c8      	movs	r0, #200	; 0xc8
 8000840:	f7ff ffb8 	bl	80007b4 <ssd1306_WriteCommand>
#endif

    ssd1306_WriteCommand(0x00); //---set low column address
 8000844:	2000      	movs	r0, #0
 8000846:	f7ff ffb5 	bl	80007b4 <ssd1306_WriteCommand>
    ssd1306_WriteCommand(0x10); //---set high column address
 800084a:	2010      	movs	r0, #16
 800084c:	f7ff ffb2 	bl	80007b4 <ssd1306_WriteCommand>

    ssd1306_WriteCommand(0x40); //--set start line address - CHECK
 8000850:	2040      	movs	r0, #64	; 0x40
 8000852:	f7ff ffaf 	bl	80007b4 <ssd1306_WriteCommand>

    ssd1306_SetContrast(0xFF);
 8000856:	20ff      	movs	r0, #255	; 0xff
 8000858:	f000 f9ae 	bl	8000bb8 <ssd1306_SetContrast>

#ifdef SSD1306_MIRROR_HORIZ
    ssd1306_WriteCommand(0xA0); // Mirror horizontally
#else
    ssd1306_WriteCommand(0xA1); //--set segment re-map 0 to 127 - CHECK
 800085c:	20a1      	movs	r0, #161	; 0xa1
 800085e:	f7ff ffa9 	bl	80007b4 <ssd1306_WriteCommand>
#endif

#ifdef SSD1306_INVERSE_COLOR
    ssd1306_WriteCommand(0xA7); //--set inverse color
#else
    ssd1306_WriteCommand(0xA6); //--set normal color
 8000862:	20a6      	movs	r0, #166	; 0xa6
 8000864:	f7ff ffa6 	bl	80007b4 <ssd1306_WriteCommand>
// Set multiplex ratio.
#if (SSD1306_HEIGHT == 128)
    // Found in the Luma Python lib for SH1106.
    ssd1306_WriteCommand(0xFF);
#else
    ssd1306_WriteCommand(0xA8); //--set multiplex ratio(1 to 64) - CHECK
 8000868:	20a8      	movs	r0, #168	; 0xa8
 800086a:	f7ff ffa3 	bl	80007b4 <ssd1306_WriteCommand>
#endif

#if (SSD1306_HEIGHT == 32)
    ssd1306_WriteCommand(0x1F); //
#elif (SSD1306_HEIGHT == 64)
    ssd1306_WriteCommand(0x3F); //
 800086e:	203f      	movs	r0, #63	; 0x3f
 8000870:	f7ff ffa0 	bl	80007b4 <ssd1306_WriteCommand>
    ssd1306_WriteCommand(0x3F); // Seems to work for 128px high displays too.
#else
#error "Only 32, 64, or 128 lines of height are supported!"
#endif

    ssd1306_WriteCommand(0xA4); //0xa4,Output follows RAM content;0xa5,Output ignores RAM content
 8000874:	20a4      	movs	r0, #164	; 0xa4
 8000876:	f7ff ff9d 	bl	80007b4 <ssd1306_WriteCommand>

    ssd1306_WriteCommand(0xD3); //-set display offset - CHECK
 800087a:	20d3      	movs	r0, #211	; 0xd3
 800087c:	f7ff ff9a 	bl	80007b4 <ssd1306_WriteCommand>
    ssd1306_WriteCommand(0x00); //-not offset
 8000880:	2000      	movs	r0, #0
 8000882:	f7ff ff97 	bl	80007b4 <ssd1306_WriteCommand>

    ssd1306_WriteCommand(0xD5); //--set display clock divide ratio/oscillator frequency
 8000886:	20d5      	movs	r0, #213	; 0xd5
 8000888:	f7ff ff94 	bl	80007b4 <ssd1306_WriteCommand>
    ssd1306_WriteCommand(0xF0); //--set divide ratio
 800088c:	20f0      	movs	r0, #240	; 0xf0
 800088e:	f7ff ff91 	bl	80007b4 <ssd1306_WriteCommand>

    ssd1306_WriteCommand(0xD9); //--set pre-charge period
 8000892:	20d9      	movs	r0, #217	; 0xd9
 8000894:	f7ff ff8e 	bl	80007b4 <ssd1306_WriteCommand>
    ssd1306_WriteCommand(0x22); //
 8000898:	2022      	movs	r0, #34	; 0x22
 800089a:	f7ff ff8b 	bl	80007b4 <ssd1306_WriteCommand>

    ssd1306_WriteCommand(0xDA); //--set com pins hardware configuration - CHECK
 800089e:	20da      	movs	r0, #218	; 0xda
 80008a0:	f7ff ff88 	bl	80007b4 <ssd1306_WriteCommand>
#if (SSD1306_HEIGHT == 32)
    ssd1306_WriteCommand(0x02);
#elif (SSD1306_HEIGHT == 64)
    ssd1306_WriteCommand(0x12);
 80008a4:	2012      	movs	r0, #18
 80008a6:	f7ff ff85 	bl	80007b4 <ssd1306_WriteCommand>
    ssd1306_WriteCommand(0x12);
#else
#error "Only 32, 64, or 128 lines of height are supported!"
#endif

    ssd1306_WriteCommand(0xDB); //--set vcomh
 80008aa:	20db      	movs	r0, #219	; 0xdb
 80008ac:	f7ff ff82 	bl	80007b4 <ssd1306_WriteCommand>
    ssd1306_WriteCommand(0x20); //0x20,0.77xVcc
 80008b0:	2020      	movs	r0, #32
 80008b2:	f7ff ff7f 	bl	80007b4 <ssd1306_WriteCommand>

    ssd1306_WriteCommand(0x8D); //--set DC-DC enable
 80008b6:	208d      	movs	r0, #141	; 0x8d
 80008b8:	f7ff ff7c 	bl	80007b4 <ssd1306_WriteCommand>
    ssd1306_WriteCommand(0x14); //
 80008bc:	2014      	movs	r0, #20
 80008be:	f7ff ff79 	bl	80007b4 <ssd1306_WriteCommand>
    ssd1306_SetDisplayOn(1); //--turn on SSD1306 panel
 80008c2:	2001      	movs	r0, #1
 80008c4:	f000 f98c 	bl	8000be0 <ssd1306_SetDisplayOn>

    // Clear screen
    ssd1306_Fill(Black);
 80008c8:	2000      	movs	r0, #0
 80008ca:	f000 f80f 	bl	80008ec <ssd1306_Fill>
    
    // Flush buffer to screen
    ssd1306_UpdateScreen();
 80008ce:	f000 f831 	bl	8000934 <ssd1306_UpdateScreen>
    
    // Set default values for screen object
    SSD1306.CurrentX = 0;
 80008d2:	4b05      	ldr	r3, [pc, #20]	; (80008e8 <ssd1306_Init+0xd0>)
 80008d4:	2200      	movs	r2, #0
 80008d6:	801a      	strh	r2, [r3, #0]
    SSD1306.CurrentY = 0;
 80008d8:	4b03      	ldr	r3, [pc, #12]	; (80008e8 <ssd1306_Init+0xd0>)
 80008da:	2200      	movs	r2, #0
 80008dc:	805a      	strh	r2, [r3, #2]
    
    SSD1306.Initialized = 1;
 80008de:	4b02      	ldr	r3, [pc, #8]	; (80008e8 <ssd1306_Init+0xd0>)
 80008e0:	2201      	movs	r2, #1
 80008e2:	711a      	strb	r2, [r3, #4]
}
 80008e4:	bf00      	nop
 80008e6:	bd80      	pop	{r7, pc}
 80008e8:	20000594 	.word	0x20000594

080008ec <ssd1306_Fill>:

/* Fill the whole screen with the given color */
void ssd1306_Fill(SSD1306_COLOR color) {
 80008ec:	b480      	push	{r7}
 80008ee:	b085      	sub	sp, #20
 80008f0:	af00      	add	r7, sp, #0
 80008f2:	4603      	mov	r3, r0
 80008f4:	71fb      	strb	r3, [r7, #7]
    uint32_t i;

    for(i = 0; i < sizeof(SSD1306_Buffer); i++) {
 80008f6:	2300      	movs	r3, #0
 80008f8:	60fb      	str	r3, [r7, #12]
 80008fa:	e00d      	b.n	8000918 <ssd1306_Fill+0x2c>
        SSD1306_Buffer[i] = (color == Black) ? 0x00 : 0xFF;
 80008fc:	79fb      	ldrb	r3, [r7, #7]
 80008fe:	2b00      	cmp	r3, #0
 8000900:	d101      	bne.n	8000906 <ssd1306_Fill+0x1a>
 8000902:	2100      	movs	r1, #0
 8000904:	e000      	b.n	8000908 <ssd1306_Fill+0x1c>
 8000906:	21ff      	movs	r1, #255	; 0xff
 8000908:	4a09      	ldr	r2, [pc, #36]	; (8000930 <ssd1306_Fill+0x44>)
 800090a:	68fb      	ldr	r3, [r7, #12]
 800090c:	4413      	add	r3, r2
 800090e:	460a      	mov	r2, r1
 8000910:	701a      	strb	r2, [r3, #0]
    for(i = 0; i < sizeof(SSD1306_Buffer); i++) {
 8000912:	68fb      	ldr	r3, [r7, #12]
 8000914:	3301      	adds	r3, #1
 8000916:	60fb      	str	r3, [r7, #12]
 8000918:	68fb      	ldr	r3, [r7, #12]
 800091a:	f5b3 6f80 	cmp.w	r3, #1024	; 0x400
 800091e:	d3ed      	bcc.n	80008fc <ssd1306_Fill+0x10>
    }
}
 8000920:	bf00      	nop
 8000922:	bf00      	nop
 8000924:	3714      	adds	r7, #20
 8000926:	46bd      	mov	sp, r7
 8000928:	f85d 7b04 	ldr.w	r7, [sp], #4
 800092c:	4770      	bx	lr
 800092e:	bf00      	nop
 8000930:	20000194 	.word	0x20000194

08000934 <ssd1306_UpdateScreen>:

/* Write the screenbuffer with changed to the screen */
void ssd1306_UpdateScreen(void) {
 8000934:	b580      	push	{r7, lr}
 8000936:	b082      	sub	sp, #8
 8000938:	af00      	add	r7, sp, #0
    // depends on the screen height:
    //
    //  * 32px   ==  4 pages
    //  * 64px   ==  8 pages
    //  * 128px  ==  16 pages
    for(uint8_t i = 0; i < SSD1306_HEIGHT/8; i++) {
 800093a:	2300      	movs	r3, #0
 800093c:	71fb      	strb	r3, [r7, #7]
 800093e:	e016      	b.n	800096e <ssd1306_UpdateScreen+0x3a>
        ssd1306_WriteCommand(0xB0 + i); // Set the current RAM page address.
 8000940:	79fb      	ldrb	r3, [r7, #7]
 8000942:	3b50      	subs	r3, #80	; 0x50
 8000944:	b2db      	uxtb	r3, r3
 8000946:	4618      	mov	r0, r3
 8000948:	f7ff ff34 	bl	80007b4 <ssd1306_WriteCommand>
        ssd1306_WriteCommand(0x00 + SSD1306_X_OFFSET_LOWER);
 800094c:	2000      	movs	r0, #0
 800094e:	f7ff ff31 	bl	80007b4 <ssd1306_WriteCommand>
        ssd1306_WriteCommand(0x10 + SSD1306_X_OFFSET_UPPER);
 8000952:	2010      	movs	r0, #16
 8000954:	f7ff ff2e 	bl	80007b4 <ssd1306_WriteCommand>
        ssd1306_WriteData(&SSD1306_Buffer[SSD1306_WIDTH*i],SSD1306_WIDTH);
 8000958:	79fb      	ldrb	r3, [r7, #7]
 800095a:	01db      	lsls	r3, r3, #7
 800095c:	4a08      	ldr	r2, [pc, #32]	; (8000980 <ssd1306_UpdateScreen+0x4c>)
 800095e:	4413      	add	r3, r2
 8000960:	2180      	movs	r1, #128	; 0x80
 8000962:	4618      	mov	r0, r3
 8000964:	f7ff ff3e 	bl	80007e4 <ssd1306_WriteData>
    for(uint8_t i = 0; i < SSD1306_HEIGHT/8; i++) {
 8000968:	79fb      	ldrb	r3, [r7, #7]
 800096a:	3301      	adds	r3, #1
 800096c:	71fb      	strb	r3, [r7, #7]
 800096e:	79fb      	ldrb	r3, [r7, #7]
 8000970:	2b07      	cmp	r3, #7
 8000972:	d9e5      	bls.n	8000940 <ssd1306_UpdateScreen+0xc>
    }
}
 8000974:	bf00      	nop
 8000976:	bf00      	nop
 8000978:	3708      	adds	r7, #8
 800097a:	46bd      	mov	sp, r7
 800097c:	bd80      	pop	{r7, pc}
 800097e:	bf00      	nop
 8000980:	20000194 	.word	0x20000194

08000984 <ssd1306_DrawPixel>:
 * Draw one pixel in the screenbuffer
 * X => X Coordinate
 * Y => Y Coordinate
 * color => Pixel color
 */
void ssd1306_DrawPixel(uint8_t x, uint8_t y, SSD1306_COLOR color) {
 8000984:	b480      	push	{r7}
 8000986:	b083      	sub	sp, #12
 8000988:	af00      	add	r7, sp, #0
 800098a:	4603      	mov	r3, r0
 800098c:	71fb      	strb	r3, [r7, #7]
 800098e:	460b      	mov	r3, r1
 8000990:	71bb      	strb	r3, [r7, #6]
 8000992:	4613      	mov	r3, r2
 8000994:	717b      	strb	r3, [r7, #5]
    if(x >= SSD1306_WIDTH || y >= SSD1306_HEIGHT) {
 8000996:	f997 3007 	ldrsb.w	r3, [r7, #7]
 800099a:	2b00      	cmp	r3, #0
 800099c:	db3d      	blt.n	8000a1a <ssd1306_DrawPixel+0x96>
 800099e:	79bb      	ldrb	r3, [r7, #6]
 80009a0:	2b3f      	cmp	r3, #63	; 0x3f
 80009a2:	d83a      	bhi.n	8000a1a <ssd1306_DrawPixel+0x96>
        // Don't write outside the buffer
        return;
    }
   
    // Draw in the right color
    if(color == White) {
 80009a4:	797b      	ldrb	r3, [r7, #5]
 80009a6:	2b01      	cmp	r3, #1
 80009a8:	d11a      	bne.n	80009e0 <ssd1306_DrawPixel+0x5c>
        SSD1306_Buffer[x + (y / 8) * SSD1306_WIDTH] |= 1 << (y % 8);
 80009aa:	79fa      	ldrb	r2, [r7, #7]
 80009ac:	79bb      	ldrb	r3, [r7, #6]
 80009ae:	08db      	lsrs	r3, r3, #3
 80009b0:	b2d8      	uxtb	r0, r3
 80009b2:	4603      	mov	r3, r0
 80009b4:	01db      	lsls	r3, r3, #7
 80009b6:	4413      	add	r3, r2
 80009b8:	4a1b      	ldr	r2, [pc, #108]	; (8000a28 <ssd1306_DrawPixel+0xa4>)
 80009ba:	5cd3      	ldrb	r3, [r2, r3]
 80009bc:	b25a      	sxtb	r2, r3
 80009be:	79bb      	ldrb	r3, [r7, #6]
 80009c0:	f003 0307 	and.w	r3, r3, #7
 80009c4:	2101      	movs	r1, #1
 80009c6:	fa01 f303 	lsl.w	r3, r1, r3
 80009ca:	b25b      	sxtb	r3, r3
 80009cc:	4313      	orrs	r3, r2
 80009ce:	b259      	sxtb	r1, r3
 80009d0:	79fa      	ldrb	r2, [r7, #7]
 80009d2:	4603      	mov	r3, r0
 80009d4:	01db      	lsls	r3, r3, #7
 80009d6:	4413      	add	r3, r2
 80009d8:	b2c9      	uxtb	r1, r1
 80009da:	4a13      	ldr	r2, [pc, #76]	; (8000a28 <ssd1306_DrawPixel+0xa4>)
 80009dc:	54d1      	strb	r1, [r2, r3]
 80009de:	e01d      	b.n	8000a1c <ssd1306_DrawPixel+0x98>
    } else { 
        SSD1306_Buffer[x + (y / 8) * SSD1306_WIDTH] &= ~(1 << (y % 8));
 80009e0:	79fa      	ldrb	r2, [r7, #7]
 80009e2:	79bb      	ldrb	r3, [r7, #6]
 80009e4:	08db      	lsrs	r3, r3, #3
 80009e6:	b2d8      	uxtb	r0, r3
 80009e8:	4603      	mov	r3, r0
 80009ea:	01db      	lsls	r3, r3, #7
 80009ec:	4413      	add	r3, r2
 80009ee:	4a0e      	ldr	r2, [pc, #56]	; (8000a28 <ssd1306_DrawPixel+0xa4>)
 80009f0:	5cd3      	ldrb	r3, [r2, r3]
 80009f2:	b25a      	sxtb	r2, r3
 80009f4:	79bb      	ldrb	r3, [r7, #6]
 80009f6:	f003 0307 	and.w	r3, r3, #7
 80009fa:	2101      	movs	r1, #1
 80009fc:	fa01 f303 	lsl.w	r3, r1, r3
 8000a00:	b25b      	sxtb	r3, r3
 8000a02:	43db      	mvns	r3, r3
 8000a04:	b25b      	sxtb	r3, r3
 8000a06:	4013      	ands	r3, r2
 8000a08:	b259      	sxtb	r1, r3
 8000a0a:	79fa      	ldrb	r2, [r7, #7]
 8000a0c:	4603      	mov	r3, r0
 8000a0e:	01db      	lsls	r3, r3, #7
 8000a10:	4413      	add	r3, r2
 8000a12:	b2c9      	uxtb	r1, r1
 8000a14:	4a04      	ldr	r2, [pc, #16]	; (8000a28 <ssd1306_DrawPixel+0xa4>)
 8000a16:	54d1      	strb	r1, [r2, r3]
 8000a18:	e000      	b.n	8000a1c <ssd1306_DrawPixel+0x98>
        return;
 8000a1a:	bf00      	nop
    }
}
 8000a1c:	370c      	adds	r7, #12
 8000a1e:	46bd      	mov	sp, r7
 8000a20:	f85d 7b04 	ldr.w	r7, [sp], #4
 8000a24:	4770      	bx	lr
 8000a26:	bf00      	nop
 8000a28:	20000194 	.word	0x20000194

08000a2c <ssd1306_WriteChar>:
 * Draw 1 char to the screen buffer
 * ch       => char om weg te schrijven
 * Font     => Font waarmee we gaan schrijven
 * color    => Black or White
 */
char ssd1306_WriteChar(char ch, FontDef Font, SSD1306_COLOR color) {
 8000a2c:	b590      	push	{r4, r7, lr}
 8000a2e:	b089      	sub	sp, #36	; 0x24
 8000a30:	af00      	add	r7, sp, #0
 8000a32:	4604      	mov	r4, r0
 8000a34:	1d38      	adds	r0, r7, #4
 8000a36:	e880 0006 	stmia.w	r0, {r1, r2}
 8000a3a:	461a      	mov	r2, r3
 8000a3c:	4623      	mov	r3, r4
 8000a3e:	73fb      	strb	r3, [r7, #15]
 8000a40:	4613      	mov	r3, r2
 8000a42:	73bb      	strb	r3, [r7, #14]
    uint32_t i, b, j;
    
    // Check if character is valid
    if (ch < 32 || ch > 126)
 8000a44:	7bfb      	ldrb	r3, [r7, #15]
 8000a46:	2b1f      	cmp	r3, #31
 8000a48:	d902      	bls.n	8000a50 <ssd1306_WriteChar+0x24>
 8000a4a:	7bfb      	ldrb	r3, [r7, #15]
 8000a4c:	2b7e      	cmp	r3, #126	; 0x7e
 8000a4e:	d901      	bls.n	8000a54 <ssd1306_WriteChar+0x28>
        return 0;
 8000a50:	2300      	movs	r3, #0
 8000a52:	e06d      	b.n	8000b30 <ssd1306_WriteChar+0x104>
    
    // Check remaining space on current line
    if (SSD1306_WIDTH < (SSD1306.CurrentX + Font.FontWidth) ||
 8000a54:	4b38      	ldr	r3, [pc, #224]	; (8000b38 <ssd1306_WriteChar+0x10c>)
 8000a56:	881b      	ldrh	r3, [r3, #0]
 8000a58:	461a      	mov	r2, r3
 8000a5a:	793b      	ldrb	r3, [r7, #4]
 8000a5c:	4413      	add	r3, r2
 8000a5e:	2b80      	cmp	r3, #128	; 0x80
 8000a60:	dc06      	bgt.n	8000a70 <ssd1306_WriteChar+0x44>
        SSD1306_HEIGHT < (SSD1306.CurrentY + Font.FontHeight))
 8000a62:	4b35      	ldr	r3, [pc, #212]	; (8000b38 <ssd1306_WriteChar+0x10c>)
 8000a64:	885b      	ldrh	r3, [r3, #2]
 8000a66:	461a      	mov	r2, r3
 8000a68:	797b      	ldrb	r3, [r7, #5]
 8000a6a:	4413      	add	r3, r2
    if (SSD1306_WIDTH < (SSD1306.CurrentX + Font.FontWidth) ||
 8000a6c:	2b40      	cmp	r3, #64	; 0x40
 8000a6e:	dd01      	ble.n	8000a74 <ssd1306_WriteChar+0x48>
    {
        // Not enough space on current line
        return 0;
 8000a70:	2300      	movs	r3, #0
 8000a72:	e05d      	b.n	8000b30 <ssd1306_WriteChar+0x104>
    }
    
    // Use the font to write
    for(i = 0; i < Font.FontHeight; i++) {
 8000a74:	2300      	movs	r3, #0
 8000a76:	61fb      	str	r3, [r7, #28]
 8000a78:	e04c      	b.n	8000b14 <ssd1306_WriteChar+0xe8>
        b = Font.data[(ch - 32) * Font.FontHeight + i];
 8000a7a:	68ba      	ldr	r2, [r7, #8]
 8000a7c:	7bfb      	ldrb	r3, [r7, #15]
 8000a7e:	3b20      	subs	r3, #32
 8000a80:	7979      	ldrb	r1, [r7, #5]
 8000a82:	fb01 f303 	mul.w	r3, r1, r3
 8000a86:	4619      	mov	r1, r3
 8000a88:	69fb      	ldr	r3, [r7, #28]
 8000a8a:	440b      	add	r3, r1
 8000a8c:	005b      	lsls	r3, r3, #1
 8000a8e:	4413      	add	r3, r2
 8000a90:	881b      	ldrh	r3, [r3, #0]
 8000a92:	617b      	str	r3, [r7, #20]
        for(j = 0; j < Font.FontWidth; j++) {
 8000a94:	2300      	movs	r3, #0
 8000a96:	61bb      	str	r3, [r7, #24]
 8000a98:	e034      	b.n	8000b04 <ssd1306_WriteChar+0xd8>
            if((b << j) & 0x8000)  {
 8000a9a:	697a      	ldr	r2, [r7, #20]
 8000a9c:	69bb      	ldr	r3, [r7, #24]
 8000a9e:	fa02 f303 	lsl.w	r3, r2, r3
 8000aa2:	f403 4300 	and.w	r3, r3, #32768	; 0x8000
 8000aa6:	2b00      	cmp	r3, #0
 8000aa8:	d012      	beq.n	8000ad0 <ssd1306_WriteChar+0xa4>
                ssd1306_DrawPixel(SSD1306.CurrentX + j, (SSD1306.CurrentY + i), (SSD1306_COLOR) color);
 8000aaa:	4b23      	ldr	r3, [pc, #140]	; (8000b38 <ssd1306_WriteChar+0x10c>)
 8000aac:	881b      	ldrh	r3, [r3, #0]
 8000aae:	b2da      	uxtb	r2, r3
 8000ab0:	69bb      	ldr	r3, [r7, #24]
 8000ab2:	b2db      	uxtb	r3, r3
 8000ab4:	4413      	add	r3, r2
 8000ab6:	b2d8      	uxtb	r0, r3
 8000ab8:	4b1f      	ldr	r3, [pc, #124]	; (8000b38 <ssd1306_WriteChar+0x10c>)
 8000aba:	885b      	ldrh	r3, [r3, #2]
 8000abc:	b2da      	uxtb	r2, r3
 8000abe:	69fb      	ldr	r3, [r7, #28]
 8000ac0:	b2db      	uxtb	r3, r3
 8000ac2:	4413      	add	r3, r2
 8000ac4:	b2db      	uxtb	r3, r3
 8000ac6:	7bba      	ldrb	r2, [r7, #14]
 8000ac8:	4619      	mov	r1, r3
 8000aca:	f7ff ff5b 	bl	8000984 <ssd1306_DrawPixel>
 8000ace:	e016      	b.n	8000afe <ssd1306_WriteChar+0xd2>
            } else {
                ssd1306_DrawPixel(SSD1306.CurrentX + j, (SSD1306.CurrentY + i), (SSD1306_COLOR)!color);
 8000ad0:	4b19      	ldr	r3, [pc, #100]	; (8000b38 <ssd1306_WriteChar+0x10c>)
 8000ad2:	881b      	ldrh	r3, [r3, #0]
 8000ad4:	b2da      	uxtb	r2, r3
 8000ad6:	69bb      	ldr	r3, [r7, #24]
 8000ad8:	b2db      	uxtb	r3, r3
 8000ada:	4413      	add	r3, r2
 8000adc:	b2d8      	uxtb	r0, r3
 8000ade:	4b16      	ldr	r3, [pc, #88]	; (8000b38 <ssd1306_WriteChar+0x10c>)
 8000ae0:	885b      	ldrh	r3, [r3, #2]
 8000ae2:	b2da      	uxtb	r2, r3
 8000ae4:	69fb      	ldr	r3, [r7, #28]
 8000ae6:	b2db      	uxtb	r3, r3
 8000ae8:	4413      	add	r3, r2
 8000aea:	b2d9      	uxtb	r1, r3
 8000aec:	7bbb      	ldrb	r3, [r7, #14]
 8000aee:	2b00      	cmp	r3, #0
 8000af0:	bf0c      	ite	eq
 8000af2:	2301      	moveq	r3, #1
 8000af4:	2300      	movne	r3, #0
 8000af6:	b2db      	uxtb	r3, r3
 8000af8:	461a      	mov	r2, r3
 8000afa:	f7ff ff43 	bl	8000984 <ssd1306_DrawPixel>
        for(j = 0; j < Font.FontWidth; j++) {
 8000afe:	69bb      	ldr	r3, [r7, #24]
 8000b00:	3301      	adds	r3, #1
 8000b02:	61bb      	str	r3, [r7, #24]
 8000b04:	793b      	ldrb	r3, [r7, #4]
 8000b06:	461a      	mov	r2, r3
 8000b08:	69bb      	ldr	r3, [r7, #24]
 8000b0a:	4293      	cmp	r3, r2
 8000b0c:	d3c5      	bcc.n	8000a9a <ssd1306_WriteChar+0x6e>
    for(i = 0; i < Font.FontHeight; i++) {
 8000b0e:	69fb      	ldr	r3, [r7, #28]
 8000b10:	3301      	adds	r3, #1
 8000b12:	61fb      	str	r3, [r7, #28]
 8000b14:	797b      	ldrb	r3, [r7, #5]
 8000b16:	461a      	mov	r2, r3
 8000b18:	69fb      	ldr	r3, [r7, #28]
 8000b1a:	4293      	cmp	r3, r2
 8000b1c:	d3ad      	bcc.n	8000a7a <ssd1306_WriteChar+0x4e>
            }
        }
    }
    
    // The current space is now taken
    SSD1306.CurrentX += Font.FontWidth;
 8000b1e:	4b06      	ldr	r3, [pc, #24]	; (8000b38 <ssd1306_WriteChar+0x10c>)
 8000b20:	881a      	ldrh	r2, [r3, #0]
 8000b22:	793b      	ldrb	r3, [r7, #4]
 8000b24:	b29b      	uxth	r3, r3
 8000b26:	4413      	add	r3, r2
 8000b28:	b29a      	uxth	r2, r3
 8000b2a:	4b03      	ldr	r3, [pc, #12]	; (8000b38 <ssd1306_WriteChar+0x10c>)
 8000b2c:	801a      	strh	r2, [r3, #0]
    
    // Return written char for validation
    return ch;
 8000b2e:	7bfb      	ldrb	r3, [r7, #15]
}
 8000b30:	4618      	mov	r0, r3
 8000b32:	3724      	adds	r7, #36	; 0x24
 8000b34:	46bd      	mov	sp, r7
 8000b36:	bd90      	pop	{r4, r7, pc}
 8000b38:	20000594 	.word	0x20000594

08000b3c <ssd1306_WriteString>:

/* Write full string to screenbuffer */
char ssd1306_WriteString(char* str, FontDef Font, SSD1306_COLOR color) {
 8000b3c:	b580      	push	{r7, lr}
 8000b3e:	b084      	sub	sp, #16
 8000b40:	af00      	add	r7, sp, #0
 8000b42:	60f8      	str	r0, [r7, #12]
 8000b44:	1d38      	adds	r0, r7, #4
 8000b46:	e880 0006 	stmia.w	r0, {r1, r2}
 8000b4a:	70fb      	strb	r3, [r7, #3]
    while (*str) {
 8000b4c:	e012      	b.n	8000b74 <ssd1306_WriteString+0x38>
        if (ssd1306_WriteChar(*str, Font, color) != *str) {
 8000b4e:	68fb      	ldr	r3, [r7, #12]
 8000b50:	7818      	ldrb	r0, [r3, #0]
 8000b52:	78fb      	ldrb	r3, [r7, #3]
 8000b54:	1d3a      	adds	r2, r7, #4
 8000b56:	ca06      	ldmia	r2, {r1, r2}
 8000b58:	f7ff ff68 	bl	8000a2c <ssd1306_WriteChar>
 8000b5c:	4603      	mov	r3, r0
 8000b5e:	461a      	mov	r2, r3
 8000b60:	68fb      	ldr	r3, [r7, #12]
 8000b62:	781b      	ldrb	r3, [r3, #0]
 8000b64:	429a      	cmp	r2, r3
 8000b66:	d002      	beq.n	8000b6e <ssd1306_WriteString+0x32>
            // Char could not be written
            return *str;
 8000b68:	68fb      	ldr	r3, [r7, #12]
 8000b6a:	781b      	ldrb	r3, [r3, #0]
 8000b6c:	e008      	b.n	8000b80 <ssd1306_WriteString+0x44>
        }
        str++;
 8000b6e:	68fb      	ldr	r3, [r7, #12]
 8000b70:	3301      	adds	r3, #1
 8000b72:	60fb      	str	r3, [r7, #12]
    while (*str) {
 8000b74:	68fb      	ldr	r3, [r7, #12]
 8000b76:	781b      	ldrb	r3, [r3, #0]
 8000b78:	2b00      	cmp	r3, #0
 8000b7a:	d1e8      	bne.n	8000b4e <ssd1306_WriteString+0x12>
    }
    
    // Everything ok
    return *str;
 8000b7c:	68fb      	ldr	r3, [r7, #12]
 8000b7e:	781b      	ldrb	r3, [r3, #0]
}
 8000b80:	4618      	mov	r0, r3
 8000b82:	3710      	adds	r7, #16
 8000b84:	46bd      	mov	sp, r7
 8000b86:	bd80      	pop	{r7, pc}

08000b88 <ssd1306_SetCursor>:

/* Position the cursor */
void ssd1306_SetCursor(uint8_t x, uint8_t y) {
 8000b88:	b480      	push	{r7}
 8000b8a:	b083      	sub	sp, #12
 8000b8c:	af00      	add	r7, sp, #0
 8000b8e:	4603      	mov	r3, r0
 8000b90:	460a      	mov	r2, r1
 8000b92:	71fb      	strb	r3, [r7, #7]
 8000b94:	4613      	mov	r3, r2
 8000b96:	71bb      	strb	r3, [r7, #6]
    SSD1306.CurrentX = x;
 8000b98:	79fb      	ldrb	r3, [r7, #7]
 8000b9a:	b29a      	uxth	r2, r3
 8000b9c:	4b05      	ldr	r3, [pc, #20]	; (8000bb4 <ssd1306_SetCursor+0x2c>)
 8000b9e:	801a      	strh	r2, [r3, #0]
    SSD1306.CurrentY = y;
 8000ba0:	79bb      	ldrb	r3, [r7, #6]
 8000ba2:	b29a      	uxth	r2, r3
 8000ba4:	4b03      	ldr	r3, [pc, #12]	; (8000bb4 <ssd1306_SetCursor+0x2c>)
 8000ba6:	805a      	strh	r2, [r3, #2]
}
 8000ba8:	bf00      	nop
 8000baa:	370c      	adds	r7, #12
 8000bac:	46bd      	mov	sp, r7
 8000bae:	f85d 7b04 	ldr.w	r7, [sp], #4
 8000bb2:	4770      	bx	lr
 8000bb4:	20000594 	.word	0x20000594

08000bb8 <ssd1306_SetContrast>:
        }
    }
    return;
}

void ssd1306_SetContrast(const uint8_t value) {
 8000bb8:	b580      	push	{r7, lr}
 8000bba:	b084      	sub	sp, #16
 8000bbc:	af00      	add	r7, sp, #0
 8000bbe:	4603      	mov	r3, r0
 8000bc0:	71fb      	strb	r3, [r7, #7]
    const uint8_t kSetContrastControlRegister = 0x81;
 8000bc2:	2381      	movs	r3, #129	; 0x81
 8000bc4:	73fb      	strb	r3, [r7, #15]
    ssd1306_WriteCommand(kSetContrastControlRegister);
 8000bc6:	7bfb      	ldrb	r3, [r7, #15]
 8000bc8:	4618      	mov	r0, r3
 8000bca:	f7ff fdf3 	bl	80007b4 <ssd1306_WriteCommand>
    ssd1306_WriteCommand(value);
 8000bce:	79fb      	ldrb	r3, [r7, #7]
 8000bd0:	4618      	mov	r0, r3
 8000bd2:	f7ff fdef 	bl	80007b4 <ssd1306_WriteCommand>
}
 8000bd6:	bf00      	nop
 8000bd8:	3710      	adds	r7, #16
 8000bda:	46bd      	mov	sp, r7
 8000bdc:	bd80      	pop	{r7, pc}
	...

08000be0 <ssd1306_SetDisplayOn>:

void ssd1306_SetDisplayOn(const uint8_t on) {
 8000be0:	b580      	push	{r7, lr}
 8000be2:	b084      	sub	sp, #16
 8000be4:	af00      	add	r7, sp, #0
 8000be6:	4603      	mov	r3, r0
 8000be8:	71fb      	strb	r3, [r7, #7]
    uint8_t value;
    if (on) {
 8000bea:	79fb      	ldrb	r3, [r7, #7]
 8000bec:	2b00      	cmp	r3, #0
 8000bee:	d005      	beq.n	8000bfc <ssd1306_SetDisplayOn+0x1c>
        value = 0xAF;   // Display on
 8000bf0:	23af      	movs	r3, #175	; 0xaf
 8000bf2:	73fb      	strb	r3, [r7, #15]
        SSD1306.DisplayOn = 1;
 8000bf4:	4b08      	ldr	r3, [pc, #32]	; (8000c18 <ssd1306_SetDisplayOn+0x38>)
 8000bf6:	2201      	movs	r2, #1
 8000bf8:	715a      	strb	r2, [r3, #5]
 8000bfa:	e004      	b.n	8000c06 <ssd1306_SetDisplayOn+0x26>
    } else {
        value = 0xAE;   // Display off
 8000bfc:	23ae      	movs	r3, #174	; 0xae
 8000bfe:	73fb      	strb	r3, [r7, #15]
        SSD1306.DisplayOn = 0;
 8000c00:	4b05      	ldr	r3, [pc, #20]	; (8000c18 <ssd1306_SetDisplayOn+0x38>)
 8000c02:	2200      	movs	r2, #0
 8000c04:	715a      	strb	r2, [r3, #5]
    }
    ssd1306_WriteCommand(value);
 8000c06:	7bfb      	ldrb	r3, [r7, #15]
 8000c08:	4618      	mov	r0, r3
 8000c0a:	f7ff fdd3 	bl	80007b4 <ssd1306_WriteCommand>
}
 8000c0e:	bf00      	nop
 8000c10:	3710      	adds	r7, #16
 8000c12:	46bd      	mov	sp, r7
 8000c14:	bd80      	pop	{r7, pc}
 8000c16:	bf00      	nop
 8000c18:	20000594 	.word	0x20000594

08000c1c <HAL_Init>:
  *         In the default implementation,Systick is used as source of time base.
  *       The tick variable is incremented each 1ms in its ISR.
  * @retval HAL status
  */
HAL_StatusTypeDef HAL_Init(void)
{
 8000c1c:	b580      	push	{r7, lr}
 8000c1e:	af00      	add	r7, sp, #0
  /* Configure Flash prefetch */
#if (PREFETCH_ENABLE != 0U)
  __HAL_FLASH_PREFETCH_BUFFER_ENABLE();
 8000c20:	4b08      	ldr	r3, [pc, #32]	; (8000c44 <HAL_Init+0x28>)
 8000c22:	681b      	ldr	r3, [r3, #0]
 8000c24:	4a07      	ldr	r2, [pc, #28]	; (8000c44 <HAL_Init+0x28>)
 8000c26:	f043 0310 	orr.w	r3, r3, #16
 8000c2a:	6013      	str	r3, [r2, #0]
#endif /* PREFETCH_ENABLE */

  /* Set Interrupt Group Priority */
  HAL_NVIC_SetPriorityGrouping(NVIC_PRIORITYGROUP_4);
 8000c2c:	2003      	movs	r0, #3
 8000c2e:	f000 f931 	bl	8000e94 <HAL_NVIC_SetPriorityGrouping>

  /* Enable systick and configure 1ms tick (default clock after Reset is HSI) */
  HAL_InitTick(TICK_INT_PRIORITY);
 8000c32:	2000      	movs	r0, #0
 8000c34:	f000 f808 	bl	8000c48 <HAL_InitTick>

  /* Init the low level hardware */
  HAL_MspInit();
 8000c38:	f7ff fc72 	bl	8000520 <HAL_MspInit>

  /* Return function status */
  return HAL_OK;
 8000c3c:	2300      	movs	r3, #0
}
 8000c3e:	4618      	mov	r0, r3
 8000c40:	bd80      	pop	{r7, pc}
 8000c42:	bf00      	nop
 8000c44:	40022000 	.word	0x40022000

08000c48 <HAL_InitTick>:
  *         implementation  in user file.
  * @param TickPriority Tick interrupt priority.
  * @retval HAL status
  */
__weak HAL_StatusTypeDef HAL_InitTick(uint32_t TickPriority)
{
 8000c48:	b580      	push	{r7, lr}
 8000c4a:	b082      	sub	sp, #8
 8000c4c:	af00      	add	r7, sp, #0
 8000c4e:	6078      	str	r0, [r7, #4]
  /* Configure the SysTick to have interrupt in 1ms time basis*/
  if (HAL_SYSTICK_Config(SystemCoreClock / (1000U / uwTickFreq)) > 0U)
 8000c50:	4b12      	ldr	r3, [pc, #72]	; (8000c9c <HAL_InitTick+0x54>)
 8000c52:	681a      	ldr	r2, [r3, #0]
 8000c54:	4b12      	ldr	r3, [pc, #72]	; (8000ca0 <HAL_InitTick+0x58>)
 8000c56:	781b      	ldrb	r3, [r3, #0]
 8000c58:	4619      	mov	r1, r3
 8000c5a:	f44f 737a 	mov.w	r3, #1000	; 0x3e8
 8000c5e:	fbb3 f3f1 	udiv	r3, r3, r1
 8000c62:	fbb2 f3f3 	udiv	r3, r2, r3
 8000c66:	4618      	mov	r0, r3
 8000c68:	f000 f93b 	bl	8000ee2 <HAL_SYSTICK_Config>
 8000c6c:	4603      	mov	r3, r0
 8000c6e:	2b00      	cmp	r3, #0
 8000c70:	d001      	beq.n	8000c76 <HAL_InitTick+0x2e>
  {
    return HAL_ERROR;
 8000c72:	2301      	movs	r3, #1
 8000c74:	e00e      	b.n	8000c94 <HAL_InitTick+0x4c>
  }

  /* Configure the SysTick IRQ priority */
  if (TickPriority < (1UL << __NVIC_PRIO_BITS))
 8000c76:	687b      	ldr	r3, [r7, #4]
 8000c78:	2b0f      	cmp	r3, #15
 8000c7a:	d80a      	bhi.n	8000c92 <HAL_InitTick+0x4a>
  {
    HAL_NVIC_SetPriority(SysTick_IRQn, TickPriority, 0U);
 8000c7c:	2200      	movs	r2, #0
 8000c7e:	6879      	ldr	r1, [r7, #4]
 8000c80:	f04f 30ff 	mov.w	r0, #4294967295
 8000c84:	f000 f911 	bl	8000eaa <HAL_NVIC_SetPriority>
    uwTickPrio = TickPriority;
 8000c88:	4a06      	ldr	r2, [pc, #24]	; (8000ca4 <HAL_InitTick+0x5c>)
 8000c8a:	687b      	ldr	r3, [r7, #4]
 8000c8c:	6013      	str	r3, [r2, #0]
  else
  {
    return HAL_ERROR;
  }
   /* Return function status */
  return HAL_OK;
 8000c8e:	2300      	movs	r3, #0
 8000c90:	e000      	b.n	8000c94 <HAL_InitTick+0x4c>
    return HAL_ERROR;
 8000c92:	2301      	movs	r3, #1
}
 8000c94:	4618      	mov	r0, r3
 8000c96:	3708      	adds	r7, #8
 8000c98:	46bd      	mov	sp, r7
 8000c9a:	bd80      	pop	{r7, pc}
 8000c9c:	20000000 	.word	0x20000000
 8000ca0:	20000010 	.word	0x20000010
 8000ca4:	2000000c 	.word	0x2000000c

08000ca8 <HAL_IncTick>:
  * @note This function is declared as __weak to be overwritten in case of other 
  *         implementations  in user file.
  * @retval None
  */
__weak void HAL_IncTick(void)
{
 8000ca8:	b480      	push	{r7}
 8000caa:	af00      	add	r7, sp, #0
  uwTick += uwTickFreq;
 8000cac:	4b06      	ldr	r3, [pc, #24]	; (8000cc8 <HAL_IncTick+0x20>)
 8000cae:	781b      	ldrb	r3, [r3, #0]
 8000cb0:	461a      	mov	r2, r3
 8000cb2:	4b06      	ldr	r3, [pc, #24]	; (8000ccc <HAL_IncTick+0x24>)
 8000cb4:	681b      	ldr	r3, [r3, #0]
 8000cb6:	4413      	add	r3, r2
 8000cb8:	4a04      	ldr	r2, [pc, #16]	; (8000ccc <HAL_IncTick+0x24>)
 8000cba:	6013      	str	r3, [r2, #0]
}
 8000cbc:	bf00      	nop
 8000cbe:	46bd      	mov	sp, r7
 8000cc0:	f85d 7b04 	ldr.w	r7, [sp], #4
 8000cc4:	4770      	bx	lr
 8000cc6:	bf00      	nop
 8000cc8:	20000010 	.word	0x20000010
 8000ccc:	2000059c 	.word	0x2000059c

08000cd0 <HAL_GetTick>:
  * @note   The function is declared as __Weak  to be overwritten  in case of other 
  *         implementations  in user file.
  * @retval tick value
  */
__weak uint32_t HAL_GetTick(void)
{
 8000cd0:	b480      	push	{r7}
 8000cd2:	af00      	add	r7, sp, #0
  return uwTick;  
 8000cd4:	4b03      	ldr	r3, [pc, #12]	; (8000ce4 <HAL_GetTick+0x14>)
 8000cd6:	681b      	ldr	r3, [r3, #0]
}
 8000cd8:	4618      	mov	r0, r3
 8000cda:	46bd      	mov	sp, r7
 8000cdc:	f85d 7b04 	ldr.w	r7, [sp], #4
 8000ce0:	4770      	bx	lr
 8000ce2:	bf00      	nop
 8000ce4:	2000059c 	.word	0x2000059c

08000ce8 <HAL_Delay>:
  *         implementations  in user file.
  * @param  Delay specifies the delay time length, in milliseconds.
  * @retval None
  */
__weak void HAL_Delay(uint32_t Delay)
{
 8000ce8:	b580      	push	{r7, lr}
 8000cea:	b084      	sub	sp, #16
 8000cec:	af00      	add	r7, sp, #0
 8000cee:	6078      	str	r0, [r7, #4]
  uint32_t tickstart = HAL_GetTick();
 8000cf0:	f7ff ffee 	bl	8000cd0 <HAL_GetTick>
 8000cf4:	60b8      	str	r0, [r7, #8]
  uint32_t wait = Delay;
 8000cf6:	687b      	ldr	r3, [r7, #4]
 8000cf8:	60fb      	str	r3, [r7, #12]
  
  /* Add freq to guarantee minimum wait */
  if (wait < HAL_MAX_DELAY)
 8000cfa:	68fb      	ldr	r3, [r7, #12]
 8000cfc:	f1b3 3fff 	cmp.w	r3, #4294967295
 8000d00:	d005      	beq.n	8000d0e <HAL_Delay+0x26>
  {
    wait += (uint32_t)(uwTickFreq);
 8000d02:	4b0a      	ldr	r3, [pc, #40]	; (8000d2c <HAL_Delay+0x44>)
 8000d04:	781b      	ldrb	r3, [r3, #0]
 8000d06:	461a      	mov	r2, r3
 8000d08:	68fb      	ldr	r3, [r7, #12]
 8000d0a:	4413      	add	r3, r2
 8000d0c:	60fb      	str	r3, [r7, #12]
  }
  
  while((HAL_GetTick() - tickstart) < wait)
 8000d0e:	bf00      	nop
 8000d10:	f7ff ffde 	bl	8000cd0 <HAL_GetTick>
 8000d14:	4602      	mov	r2, r0
 8000d16:	68bb      	ldr	r3, [r7, #8]
 8000d18:	1ad3      	subs	r3, r2, r3
 8000d1a:	68fa      	ldr	r2, [r7, #12]
 8000d1c:	429a      	cmp	r2, r3
 8000d1e:	d8f7      	bhi.n	8000d10 <HAL_Delay+0x28>
  {
  }
}
 8000d20:	bf00      	nop
 8000d22:	bf00      	nop
 8000d24:	3710      	adds	r7, #16
 8000d26:	46bd      	mov	sp, r7
 8000d28:	bd80      	pop	{r7, pc}
 8000d2a:	bf00      	nop
 8000d2c:	20000010 	.word	0x20000010

08000d30 <__NVIC_SetPriorityGrouping>:
           In case of a conflict between priority grouping and available
           priority bits (__NVIC_PRIO_BITS), the smallest possible priority group is set.
  \param [in]      PriorityGroup  Priority grouping field.
 */
__STATIC_INLINE void __NVIC_SetPriorityGrouping(uint32_t PriorityGroup)
{
 8000d30:	b480      	push	{r7}
 8000d32:	b085      	sub	sp, #20
 8000d34:	af00      	add	r7, sp, #0
 8000d36:	6078      	str	r0, [r7, #4]
  uint32_t reg_value;
  uint32_t PriorityGroupTmp = (PriorityGroup & (uint32_t)0x07UL);             /* only values 0..7 are used          */
 8000d38:	687b      	ldr	r3, [r7, #4]
 8000d3a:	f003 0307 	and.w	r3, r3, #7
 8000d3e:	60fb      	str	r3, [r7, #12]

  reg_value  =  SCB->AIRCR;                                                   /* read old register configuration    */
 8000d40:	4b0c      	ldr	r3, [pc, #48]	; (8000d74 <__NVIC_SetPriorityGrouping+0x44>)
 8000d42:	68db      	ldr	r3, [r3, #12]
 8000d44:	60bb      	str	r3, [r7, #8]
  reg_value &= ~((uint32_t)(SCB_AIRCR_VECTKEY_Msk | SCB_AIRCR_PRIGROUP_Msk)); /* clear bits to change               */
 8000d46:	68ba      	ldr	r2, [r7, #8]
 8000d48:	f64f 03ff 	movw	r3, #63743	; 0xf8ff
 8000d4c:	4013      	ands	r3, r2
 8000d4e:	60bb      	str	r3, [r7, #8]
  reg_value  =  (reg_value                                   |
                ((uint32_t)0x5FAUL << SCB_AIRCR_VECTKEY_Pos) |
                (PriorityGroupTmp << SCB_AIRCR_PRIGROUP_Pos)  );              /* Insert write key and priority group */
 8000d50:	68fb      	ldr	r3, [r7, #12]
 8000d52:	021a      	lsls	r2, r3, #8
                ((uint32_t)0x5FAUL << SCB_AIRCR_VECTKEY_Pos) |
 8000d54:	68bb      	ldr	r3, [r7, #8]
 8000d56:	4313      	orrs	r3, r2
  reg_value  =  (reg_value                                   |
 8000d58:	f043 63bf 	orr.w	r3, r3, #100139008	; 0x5f80000
 8000d5c:	f443 3300 	orr.w	r3, r3, #131072	; 0x20000
 8000d60:	60bb      	str	r3, [r7, #8]
  SCB->AIRCR =  reg_value;
 8000d62:	4a04      	ldr	r2, [pc, #16]	; (8000d74 <__NVIC_SetPriorityGrouping+0x44>)
 8000d64:	68bb      	ldr	r3, [r7, #8]
 8000d66:	60d3      	str	r3, [r2, #12]
}
 8000d68:	bf00      	nop
 8000d6a:	3714      	adds	r7, #20
 8000d6c:	46bd      	mov	sp, r7
 8000d6e:	f85d 7b04 	ldr.w	r7, [sp], #4
 8000d72:	4770      	bx	lr
 8000d74:	e000ed00 	.word	0xe000ed00

08000d78 <__NVIC_GetPriorityGrouping>:
  \brief   Get Priority Grouping
  \details Reads the priority grouping field from the NVIC Interrupt Controller.
  \return                Priority grouping field (SCB->AIRCR [10:8] PRIGROUP field).
 */
__STATIC_INLINE uint32_t __NVIC_GetPriorityGrouping(void)
{
 8000d78:	b480      	push	{r7}
 8000d7a:	af00      	add	r7, sp, #0
  return ((uint32_t)((SCB->AIRCR & SCB_AIRCR_PRIGROUP_Msk) >> SCB_AIRCR_PRIGROUP_Pos));
 8000d7c:	4b04      	ldr	r3, [pc, #16]	; (8000d90 <__NVIC_GetPriorityGrouping+0x18>)
 8000d7e:	68db      	ldr	r3, [r3, #12]
 8000d80:	0a1b      	lsrs	r3, r3, #8
 8000d82:	f003 0307 	and.w	r3, r3, #7
}
 8000d86:	4618      	mov	r0, r3
 8000d88:	46bd      	mov	sp, r7
 8000d8a:	f85d 7b04 	ldr.w	r7, [sp], #4
 8000d8e:	4770      	bx	lr
 8000d90:	e000ed00 	.word	0xe000ed00

08000d94 <__NVIC_SetPriority>:
  \param [in]      IRQn  Interrupt number.
  \param [in]  priority  Priority to set.
  \note    The priority cannot be set for every processor exception.
 */
__STATIC_INLINE void __NVIC_SetPriority(IRQn_Type IRQn, uint32_t priority)
{
 8000d94:	b480      	push	{r7}
 8000d96:	b083      	sub	sp, #12
 8000d98:	af00      	add	r7, sp, #0
 8000d9a:	4603      	mov	r3, r0
 8000d9c:	6039      	str	r1, [r7, #0]
 8000d9e:	71fb      	strb	r3, [r7, #7]
  if ((int32_t)(IRQn) >= 0)
 8000da0:	f997 3007 	ldrsb.w	r3, [r7, #7]
 8000da4:	2b00      	cmp	r3, #0
 8000da6:	db0a      	blt.n	8000dbe <__NVIC_SetPriority+0x2a>
  {
    NVIC->IP[((uint32_t)IRQn)]               = (uint8_t)((priority << (8U - __NVIC_PRIO_BITS)) & (uint32_t)0xFFUL);
 8000da8:	683b      	ldr	r3, [r7, #0]
 8000daa:	b2da      	uxtb	r2, r3
 8000dac:	490c      	ldr	r1, [pc, #48]	; (8000de0 <__NVIC_SetPriority+0x4c>)
 8000dae:	f997 3007 	ldrsb.w	r3, [r7, #7]
 8000db2:	0112      	lsls	r2, r2, #4
 8000db4:	b2d2      	uxtb	r2, r2
 8000db6:	440b      	add	r3, r1
 8000db8:	f883 2300 	strb.w	r2, [r3, #768]	; 0x300
  }
  else
  {
    SCB->SHP[(((uint32_t)IRQn) & 0xFUL)-4UL] = (uint8_t)((priority << (8U - __NVIC_PRIO_BITS)) & (uint32_t)0xFFUL);
  }
}
 8000dbc:	e00a      	b.n	8000dd4 <__NVIC_SetPriority+0x40>
    SCB->SHP[(((uint32_t)IRQn) & 0xFUL)-4UL] = (uint8_t)((priority << (8U - __NVIC_PRIO_BITS)) & (uint32_t)0xFFUL);
 8000dbe:	683b      	ldr	r3, [r7, #0]
 8000dc0:	b2da      	uxtb	r2, r3
 8000dc2:	4908      	ldr	r1, [pc, #32]	; (8000de4 <__NVIC_SetPriority+0x50>)
 8000dc4:	79fb      	ldrb	r3, [r7, #7]
 8000dc6:	f003 030f 	and.w	r3, r3, #15
 8000dca:	3b04      	subs	r3, #4
 8000dcc:	0112      	lsls	r2, r2, #4
 8000dce:	b2d2      	uxtb	r2, r2
 8000dd0:	440b      	add	r3, r1
 8000dd2:	761a      	strb	r2, [r3, #24]
}
 8000dd4:	bf00      	nop
 8000dd6:	370c      	adds	r7, #12
 8000dd8:	46bd      	mov	sp, r7
 8000dda:	f85d 7b04 	ldr.w	r7, [sp], #4
 8000dde:	4770      	bx	lr
 8000de0:	e000e100 	.word	0xe000e100
 8000de4:	e000ed00 	.word	0xe000ed00

08000de8 <NVIC_EncodePriority>:
  \param [in]   PreemptPriority  Preemptive priority value (starting from 0).
  \param [in]       SubPriority  Subpriority value (starting from 0).
  \return                        Encoded priority. Value can be used in the function \ref NVIC_SetPriority().
 */
__STATIC_INLINE uint32_t NVIC_EncodePriority (uint32_t PriorityGroup, uint32_t PreemptPriority, uint32_t SubPriority)
{
 8000de8:	b480      	push	{r7}
 8000dea:	b089      	sub	sp, #36	; 0x24
 8000dec:	af00      	add	r7, sp, #0
 8000dee:	60f8      	str	r0, [r7, #12]
 8000df0:	60b9      	str	r1, [r7, #8]
 8000df2:	607a      	str	r2, [r7, #4]
  uint32_t PriorityGroupTmp = (PriorityGroup & (uint32_t)0x07UL);   /* only values 0..7 are used          */
 8000df4:	68fb      	ldr	r3, [r7, #12]
 8000df6:	f003 0307 	and.w	r3, r3, #7
 8000dfa:	61fb      	str	r3, [r7, #28]
  uint32_t PreemptPriorityBits;
  uint32_t SubPriorityBits;

  PreemptPriorityBits = ((7UL - PriorityGroupTmp) > (uint32_t)(__NVIC_PRIO_BITS)) ? (uint32_t)(__NVIC_PRIO_BITS) : (uint32_t)(7UL - PriorityGroupTmp);
 8000dfc:	69fb      	ldr	r3, [r7, #28]
 8000dfe:	f1c3 0307 	rsb	r3, r3, #7
 8000e02:	2b04      	cmp	r3, #4
 8000e04:	bf28      	it	cs
 8000e06:	2304      	movcs	r3, #4
 8000e08:	61bb      	str	r3, [r7, #24]
  SubPriorityBits     = ((PriorityGroupTmp + (uint32_t)(__NVIC_PRIO_BITS)) < (uint32_t)7UL) ? (uint32_t)0UL : (uint32_t)((PriorityGroupTmp - 7UL) + (uint32_t)(__NVIC_PRIO_BITS));
 8000e0a:	69fb      	ldr	r3, [r7, #28]
 8000e0c:	3304      	adds	r3, #4
 8000e0e:	2b06      	cmp	r3, #6
 8000e10:	d902      	bls.n	8000e18 <NVIC_EncodePriority+0x30>
 8000e12:	69fb      	ldr	r3, [r7, #28]
 8000e14:	3b03      	subs	r3, #3
 8000e16:	e000      	b.n	8000e1a <NVIC_EncodePriority+0x32>
 8000e18:	2300      	movs	r3, #0
 8000e1a:	617b      	str	r3, [r7, #20]

  return (
           ((PreemptPriority & (uint32_t)((1UL << (PreemptPriorityBits)) - 1UL)) << SubPriorityBits) |
 8000e1c:	f04f 32ff 	mov.w	r2, #4294967295
 8000e20:	69bb      	ldr	r3, [r7, #24]
 8000e22:	fa02 f303 	lsl.w	r3, r2, r3
 8000e26:	43da      	mvns	r2, r3
 8000e28:	68bb      	ldr	r3, [r7, #8]
 8000e2a:	401a      	ands	r2, r3
 8000e2c:	697b      	ldr	r3, [r7, #20]
 8000e2e:	409a      	lsls	r2, r3
           ((SubPriority     & (uint32_t)((1UL << (SubPriorityBits    )) - 1UL)))
 8000e30:	f04f 31ff 	mov.w	r1, #4294967295
 8000e34:	697b      	ldr	r3, [r7, #20]
 8000e36:	fa01 f303 	lsl.w	r3, r1, r3
 8000e3a:	43d9      	mvns	r1, r3
 8000e3c:	687b      	ldr	r3, [r7, #4]
 8000e3e:	400b      	ands	r3, r1
           ((PreemptPriority & (uint32_t)((1UL << (PreemptPriorityBits)) - 1UL)) << SubPriorityBits) |
 8000e40:	4313      	orrs	r3, r2
         );
}
 8000e42:	4618      	mov	r0, r3
 8000e44:	3724      	adds	r7, #36	; 0x24
 8000e46:	46bd      	mov	sp, r7
 8000e48:	f85d 7b04 	ldr.w	r7, [sp], #4
 8000e4c:	4770      	bx	lr
	...

08000e50 <SysTick_Config>:
  \note    When the variable <b>__Vendor_SysTickConfig</b> is set to 1, then the
           function <b>SysTick_Config</b> is not included. In this case, the file <b><i>device</i>.h</b>
           must contain a vendor-specific implementation of this function.
 */
__STATIC_INLINE uint32_t SysTick_Config(uint32_t ticks)
{
 8000e50:	b580      	push	{r7, lr}
 8000e52:	b082      	sub	sp, #8
 8000e54:	af00      	add	r7, sp, #0
 8000e56:	6078      	str	r0, [r7, #4]
  if ((ticks - 1UL) > SysTick_LOAD_RELOAD_Msk)
 8000e58:	687b      	ldr	r3, [r7, #4]
 8000e5a:	3b01      	subs	r3, #1
 8000e5c:	f1b3 7f80 	cmp.w	r3, #16777216	; 0x1000000
 8000e60:	d301      	bcc.n	8000e66 <SysTick_Config+0x16>
  {
    return (1UL);                                                   /* Reload value impossible */
 8000e62:	2301      	movs	r3, #1
 8000e64:	e00f      	b.n	8000e86 <SysTick_Config+0x36>
  }

  SysTick->LOAD  = (uint32_t)(ticks - 1UL);                         /* set reload register */
 8000e66:	4a0a      	ldr	r2, [pc, #40]	; (8000e90 <SysTick_Config+0x40>)
 8000e68:	687b      	ldr	r3, [r7, #4]
 8000e6a:	3b01      	subs	r3, #1
 8000e6c:	6053      	str	r3, [r2, #4]
  NVIC_SetPriority (SysTick_IRQn, (1UL << __NVIC_PRIO_BITS) - 1UL); /* set Priority for Systick Interrupt */
 8000e6e:	210f      	movs	r1, #15
 8000e70:	f04f 30ff 	mov.w	r0, #4294967295
 8000e74:	f7ff ff8e 	bl	8000d94 <__NVIC_SetPriority>
  SysTick->VAL   = 0UL;                                             /* Load the SysTick Counter Value */
 8000e78:	4b05      	ldr	r3, [pc, #20]	; (8000e90 <SysTick_Config+0x40>)
 8000e7a:	2200      	movs	r2, #0
 8000e7c:	609a      	str	r2, [r3, #8]
  SysTick->CTRL  = SysTick_CTRL_CLKSOURCE_Msk |
 8000e7e:	4b04      	ldr	r3, [pc, #16]	; (8000e90 <SysTick_Config+0x40>)
 8000e80:	2207      	movs	r2, #7
 8000e82:	601a      	str	r2, [r3, #0]
                   SysTick_CTRL_TICKINT_Msk   |
                   SysTick_CTRL_ENABLE_Msk;                         /* Enable SysTick IRQ and SysTick Timer */
  return (0UL);                                                     /* Function successful */
 8000e84:	2300      	movs	r3, #0
}
 8000e86:	4618      	mov	r0, r3
 8000e88:	3708      	adds	r7, #8
 8000e8a:	46bd      	mov	sp, r7
 8000e8c:	bd80      	pop	{r7, pc}
 8000e8e:	bf00      	nop
 8000e90:	e000e010 	.word	0xe000e010

08000e94 <HAL_NVIC_SetPriorityGrouping>:
  * @note   When the NVIC_PriorityGroup_0 is selected, IRQ pre-emption is no more possible.
  *         The pending IRQ priority will be managed only by the subpriority.
  * @retval None
  */
void HAL_NVIC_SetPriorityGrouping(uint32_t PriorityGroup)
{
 8000e94:	b580      	push	{r7, lr}
 8000e96:	b082      	sub	sp, #8
 8000e98:	af00      	add	r7, sp, #0
 8000e9a:	6078      	str	r0, [r7, #4]
  /* Check the parameters */
  assert_param(IS_NVIC_PRIORITY_GROUP(PriorityGroup));

  /* Set the PRIGROUP[10:8] bits according to the PriorityGroup parameter value */
  NVIC_SetPriorityGrouping(PriorityGroup);
 8000e9c:	6878      	ldr	r0, [r7, #4]
 8000e9e:	f7ff ff47 	bl	8000d30 <__NVIC_SetPriorityGrouping>
}
 8000ea2:	bf00      	nop
 8000ea4:	3708      	adds	r7, #8
 8000ea6:	46bd      	mov	sp, r7
 8000ea8:	bd80      	pop	{r7, pc}

08000eaa <HAL_NVIC_SetPriority>:
  *         This parameter can be a value between 0 and 15 as described in the table CORTEX_NVIC_Priority_Table
  *         A lower priority value indicates a higher priority.
  * @retval None
  */
void HAL_NVIC_SetPriority(IRQn_Type IRQn, uint32_t PreemptPriority, uint32_t SubPriority)
{
 8000eaa:	b580      	push	{r7, lr}
 8000eac:	b086      	sub	sp, #24
 8000eae:	af00      	add	r7, sp, #0
 8000eb0:	4603      	mov	r3, r0
 8000eb2:	60b9      	str	r1, [r7, #8]
 8000eb4:	607a      	str	r2, [r7, #4]
 8000eb6:	73fb      	strb	r3, [r7, #15]
  uint32_t prioritygroup = 0x00U;
 8000eb8:	2300      	movs	r3, #0
 8000eba:	617b      	str	r3, [r7, #20]
  
  /* Check the parameters */
  assert_param(IS_NVIC_SUB_PRIORITY(SubPriority));
  assert_param(IS_NVIC_PREEMPTION_PRIORITY(PreemptPriority));
  
  prioritygroup = NVIC_GetPriorityGrouping();
 8000ebc:	f7ff ff5c 	bl	8000d78 <__NVIC_GetPriorityGrouping>
 8000ec0:	6178      	str	r0, [r7, #20]
  
  NVIC_SetPriority(IRQn, NVIC_EncodePriority(prioritygroup, PreemptPriority, SubPriority));
 8000ec2:	687a      	ldr	r2, [r7, #4]
 8000ec4:	68b9      	ldr	r1, [r7, #8]
 8000ec6:	6978      	ldr	r0, [r7, #20]
 8000ec8:	f7ff ff8e 	bl	8000de8 <NVIC_EncodePriority>
 8000ecc:	4602      	mov	r2, r0
 8000ece:	f997 300f 	ldrsb.w	r3, [r7, #15]
 8000ed2:	4611      	mov	r1, r2
 8000ed4:	4618      	mov	r0, r3
 8000ed6:	f7ff ff5d 	bl	8000d94 <__NVIC_SetPriority>
}
 8000eda:	bf00      	nop
 8000edc:	3718      	adds	r7, #24
 8000ede:	46bd      	mov	sp, r7
 8000ee0:	bd80      	pop	{r7, pc}

08000ee2 <HAL_SYSTICK_Config>:
  * @param  TicksNumb Specifies the ticks Number of ticks between two interrupts.
  * @retval status:  - 0  Function succeeded.
  *                  - 1  Function failed.
  */
uint32_t HAL_SYSTICK_Config(uint32_t TicksNumb)
{
 8000ee2:	b580      	push	{r7, lr}
 8000ee4:	b082      	sub	sp, #8
 8000ee6:	af00      	add	r7, sp, #0
 8000ee8:	6078      	str	r0, [r7, #4]
   return SysTick_Config(TicksNumb);
 8000eea:	6878      	ldr	r0, [r7, #4]
 8000eec:	f7ff ffb0 	bl	8000e50 <SysTick_Config>
 8000ef0:	4603      	mov	r3, r0
}
 8000ef2:	4618      	mov	r0, r3
 8000ef4:	3708      	adds	r7, #8
 8000ef6:	46bd      	mov	sp, r7
 8000ef8:	bd80      	pop	{r7, pc}
	...

08000efc <HAL_GPIO_Init>:
  * @param  GPIO_Init pointer to a GPIO_InitTypeDef structure that contains
  *         the configuration information for the specified GPIO peripheral.
  * @retval None
  */
void HAL_GPIO_Init(GPIO_TypeDef  *GPIOx, GPIO_InitTypeDef *GPIO_Init)
{
 8000efc:	b480      	push	{r7}
 8000efe:	b087      	sub	sp, #28
 8000f00:	af00      	add	r7, sp, #0
 8000f02:	6078      	str	r0, [r7, #4]
 8000f04:	6039      	str	r1, [r7, #0]
  uint32_t position = 0x00u;
 8000f06:	2300      	movs	r3, #0
 8000f08:	617b      	str	r3, [r7, #20]
  assert_param(IS_GPIO_ALL_INSTANCE(GPIOx));
  assert_param(IS_GPIO_PIN(GPIO_Init->Pin));
  assert_param(IS_GPIO_MODE(GPIO_Init->Mode));

  /* Configure the port pins */
  while (((GPIO_Init->Pin) >> position) != 0x00u)
 8000f0a:	e14e      	b.n	80011aa <HAL_GPIO_Init+0x2ae>
  {
    /* Get current io position */
    iocurrent = (GPIO_Init->Pin) & (1uL << position);
 8000f0c:	683b      	ldr	r3, [r7, #0]
 8000f0e:	681a      	ldr	r2, [r3, #0]
 8000f10:	2101      	movs	r1, #1
 8000f12:	697b      	ldr	r3, [r7, #20]
 8000f14:	fa01 f303 	lsl.w	r3, r1, r3
 8000f18:	4013      	ands	r3, r2
 8000f1a:	60fb      	str	r3, [r7, #12]

    if (iocurrent != 0x00u)
 8000f1c:	68fb      	ldr	r3, [r7, #12]
 8000f1e:	2b00      	cmp	r3, #0
 8000f20:	f000 8140 	beq.w	80011a4 <HAL_GPIO_Init+0x2a8>
    {
      /*--------------------- GPIO Mode Configuration ------------------------*/
      /* In case of Output or Alternate function mode selection */
      if(((GPIO_Init->Mode & GPIO_MODE) == MODE_OUTPUT) || ((GPIO_Init->Mode & GPIO_MODE) == MODE_AF))
 8000f24:	683b      	ldr	r3, [r7, #0]
 8000f26:	685b      	ldr	r3, [r3, #4]
 8000f28:	f003 0303 	and.w	r3, r3, #3
 8000f2c:	2b01      	cmp	r3, #1
 8000f2e:	d005      	beq.n	8000f3c <HAL_GPIO_Init+0x40>
 8000f30:	683b      	ldr	r3, [r7, #0]
 8000f32:	685b      	ldr	r3, [r3, #4]
 8000f34:	f003 0303 	and.w	r3, r3, #3
 8000f38:	2b02      	cmp	r3, #2
 8000f3a:	d130      	bne.n	8000f9e <HAL_GPIO_Init+0xa2>
      {
        /* Check the Speed parameter */
        assert_param(IS_GPIO_SPEED(GPIO_Init->Speed));
        /* Configure the IO Speed */
        temp = GPIOx->OSPEEDR;
 8000f3c:	687b      	ldr	r3, [r7, #4]
 8000f3e:	689b      	ldr	r3, [r3, #8]
 8000f40:	613b      	str	r3, [r7, #16]
        temp &= ~(GPIO_OSPEEDER_OSPEEDR0 << (position * 2u));
 8000f42:	697b      	ldr	r3, [r7, #20]
 8000f44:	005b      	lsls	r3, r3, #1
 8000f46:	2203      	movs	r2, #3
 8000f48:	fa02 f303 	lsl.w	r3, r2, r3
 8000f4c:	43db      	mvns	r3, r3
 8000f4e:	693a      	ldr	r2, [r7, #16]
 8000f50:	4013      	ands	r3, r2
 8000f52:	613b      	str	r3, [r7, #16]
        temp |= (GPIO_Init->Speed << (position * 2u));
 8000f54:	683b      	ldr	r3, [r7, #0]
 8000f56:	68da      	ldr	r2, [r3, #12]
 8000f58:	697b      	ldr	r3, [r7, #20]
 8000f5a:	005b      	lsls	r3, r3, #1
 8000f5c:	fa02 f303 	lsl.w	r3, r2, r3
 8000f60:	693a      	ldr	r2, [r7, #16]
 8000f62:	4313      	orrs	r3, r2
 8000f64:	613b      	str	r3, [r7, #16]
        GPIOx->OSPEEDR = temp;
 8000f66:	687b      	ldr	r3, [r7, #4]
 8000f68:	693a      	ldr	r2, [r7, #16]
 8000f6a:	609a      	str	r2, [r3, #8]

        /* Configure the IO Output Type */
        temp = GPIOx->OTYPER;
 8000f6c:	687b      	ldr	r3, [r7, #4]
 8000f6e:	685b      	ldr	r3, [r3, #4]
 8000f70:	613b      	str	r3, [r7, #16]
        temp &= ~(GPIO_OTYPER_OT_0 << position) ;
 8000f72:	2201      	movs	r2, #1
 8000f74:	697b      	ldr	r3, [r7, #20]
 8000f76:	fa02 f303 	lsl.w	r3, r2, r3
 8000f7a:	43db      	mvns	r3, r3
 8000f7c:	693a      	ldr	r2, [r7, #16]
 8000f7e:	4013      	ands	r3, r2
 8000f80:	613b      	str	r3, [r7, #16]
        temp |= (((GPIO_Init->Mode & OUTPUT_TYPE) >> OUTPUT_TYPE_Pos) << position);
 8000f82:	683b      	ldr	r3, [r7, #0]
 8000f84:	685b      	ldr	r3, [r3, #4]
 8000f86:	091b      	lsrs	r3, r3, #4
 8000f88:	f003 0201 	and.w	r2, r3, #1
 8000f8c:	697b      	ldr	r3, [r7, #20]
 8000f8e:	fa02 f303 	lsl.w	r3, r2, r3
 8000f92:	693a      	ldr	r2, [r7, #16]
 8000f94:	4313      	orrs	r3, r2
 8000f96:	613b      	str	r3, [r7, #16]
        GPIOx->OTYPER = temp;
 8000f98:	687b      	ldr	r3, [r7, #4]
 8000f9a:	693a      	ldr	r2, [r7, #16]
 8000f9c:	605a      	str	r2, [r3, #4]
      }

      if((GPIO_Init->Mode & GPIO_MODE) != MODE_ANALOG)
 8000f9e:	683b      	ldr	r3, [r7, #0]
 8000fa0:	685b      	ldr	r3, [r3, #4]
 8000fa2:	f003 0303 	and.w	r3, r3, #3
 8000fa6:	2b03      	cmp	r3, #3
 8000fa8:	d017      	beq.n	8000fda <HAL_GPIO_Init+0xde>
      {
        /* Check the Pull parameter */
        assert_param(IS_GPIO_PULL(GPIO_Init->Pull));

        /* Activate the Pull-up or Pull down resistor for the current IO */
        temp = GPIOx->PUPDR;
 8000faa:	687b      	ldr	r3, [r7, #4]
 8000fac:	68db      	ldr	r3, [r3, #12]
 8000fae:	613b      	str	r3, [r7, #16]
        temp &= ~(GPIO_PUPDR_PUPDR0 << (position * 2u));
 8000fb0:	697b      	ldr	r3, [r7, #20]
 8000fb2:	005b      	lsls	r3, r3, #1
 8000fb4:	2203      	movs	r2, #3
 8000fb6:	fa02 f303 	lsl.w	r3, r2, r3
 8000fba:	43db      	mvns	r3, r3
 8000fbc:	693a      	ldr	r2, [r7, #16]
 8000fbe:	4013      	ands	r3, r2
 8000fc0:	613b      	str	r3, [r7, #16]
        temp |= ((GPIO_Init->Pull) << (position * 2u));
 8000fc2:	683b      	ldr	r3, [r7, #0]
 8000fc4:	689a      	ldr	r2, [r3, #8]
 8000fc6:	697b      	ldr	r3, [r7, #20]
 8000fc8:	005b      	lsls	r3, r3, #1
 8000fca:	fa02 f303 	lsl.w	r3, r2, r3
 8000fce:	693a      	ldr	r2, [r7, #16]
 8000fd0:	4313      	orrs	r3, r2
 8000fd2:	613b      	str	r3, [r7, #16]
        GPIOx->PUPDR = temp;
 8000fd4:	687b      	ldr	r3, [r7, #4]
 8000fd6:	693a      	ldr	r2, [r7, #16]
 8000fd8:	60da      	str	r2, [r3, #12]
      }

      /*--------------------- GPIO Mode Configuration ------------------------*/
      /* In case of Alternate function mode selection */
      if((GPIO_Init->Mode & GPIO_MODE) == MODE_AF)
 8000fda:	683b      	ldr	r3, [r7, #0]
 8000fdc:	685b      	ldr	r3, [r3, #4]
 8000fde:	f003 0303 	and.w	r3, r3, #3
 8000fe2:	2b02      	cmp	r3, #2
 8000fe4:	d123      	bne.n	800102e <HAL_GPIO_Init+0x132>
        /* Check the Alternate function parameters */
        assert_param(IS_GPIO_AF_INSTANCE(GPIOx));
        assert_param(IS_GPIO_AF(GPIO_Init->Alternate));

        /* Configure Alternate function mapped with the current IO */
        temp = GPIOx->AFR[position >> 3u];
 8000fe6:	697b      	ldr	r3, [r7, #20]
 8000fe8:	08da      	lsrs	r2, r3, #3
 8000fea:	687b      	ldr	r3, [r7, #4]
 8000fec:	3208      	adds	r2, #8
 8000fee:	f853 3022 	ldr.w	r3, [r3, r2, lsl #2]
 8000ff2:	613b      	str	r3, [r7, #16]
        temp &= ~(0xFu << ((position & 0x07u) * 4u));
 8000ff4:	697b      	ldr	r3, [r7, #20]
 8000ff6:	f003 0307 	and.w	r3, r3, #7
 8000ffa:	009b      	lsls	r3, r3, #2
 8000ffc:	220f      	movs	r2, #15
 8000ffe:	fa02 f303 	lsl.w	r3, r2, r3
 8001002:	43db      	mvns	r3, r3
 8001004:	693a      	ldr	r2, [r7, #16]
 8001006:	4013      	ands	r3, r2
 8001008:	613b      	str	r3, [r7, #16]
        temp |= ((GPIO_Init->Alternate) << ((position & 0x07u) * 4u));
 800100a:	683b      	ldr	r3, [r7, #0]
 800100c:	691a      	ldr	r2, [r3, #16]
 800100e:	697b      	ldr	r3, [r7, #20]
 8001010:	f003 0307 	and.w	r3, r3, #7
 8001014:	009b      	lsls	r3, r3, #2
 8001016:	fa02 f303 	lsl.w	r3, r2, r3
 800101a:	693a      	ldr	r2, [r7, #16]
 800101c:	4313      	orrs	r3, r2
 800101e:	613b      	str	r3, [r7, #16]
        GPIOx->AFR[position >> 3u] = temp;
 8001020:	697b      	ldr	r3, [r7, #20]
 8001022:	08da      	lsrs	r2, r3, #3
 8001024:	687b      	ldr	r3, [r7, #4]
 8001026:	3208      	adds	r2, #8
 8001028:	6939      	ldr	r1, [r7, #16]
 800102a:	f843 1022 	str.w	r1, [r3, r2, lsl #2]
      }

      /* Configure IO Direction mode (Input, Output, Alternate or Analog) */
      temp = GPIOx->MODER;
 800102e:	687b      	ldr	r3, [r7, #4]
 8001030:	681b      	ldr	r3, [r3, #0]
 8001032:	613b      	str	r3, [r7, #16]
      temp &= ~(GPIO_MODER_MODER0 << (position * 2u));
 8001034:	697b      	ldr	r3, [r7, #20]
 8001036:	005b      	lsls	r3, r3, #1
 8001038:	2203      	movs	r2, #3
 800103a:	fa02 f303 	lsl.w	r3, r2, r3
 800103e:	43db      	mvns	r3, r3
 8001040:	693a      	ldr	r2, [r7, #16]
 8001042:	4013      	ands	r3, r2
 8001044:	613b      	str	r3, [r7, #16]
      temp |= ((GPIO_Init->Mode & GPIO_MODE) << (position * 2u));
 8001046:	683b      	ldr	r3, [r7, #0]
 8001048:	685b      	ldr	r3, [r3, #4]
 800104a:	f003 0203 	and.w	r2, r3, #3
 800104e:	697b      	ldr	r3, [r7, #20]
 8001050:	005b      	lsls	r3, r3, #1
 8001052:	fa02 f303 	lsl.w	r3, r2, r3
 8001056:	693a      	ldr	r2, [r7, #16]
 8001058:	4313      	orrs	r3, r2
 800105a:	613b      	str	r3, [r7, #16]
      GPIOx->MODER = temp;
 800105c:	687b      	ldr	r3, [r7, #4]
 800105e:	693a      	ldr	r2, [r7, #16]
 8001060:	601a      	str	r2, [r3, #0]

      /*--------------------- EXTI Mode Configuration ------------------------*/
      /* Configure the External Interrupt or event for the current IO */
      if((GPIO_Init->Mode & EXTI_MODE) != 0x00u)
 8001062:	683b      	ldr	r3, [r7, #0]
 8001064:	685b      	ldr	r3, [r3, #4]
 8001066:	f403 3340 	and.w	r3, r3, #196608	; 0x30000
 800106a:	2b00      	cmp	r3, #0
 800106c:	f000 809a 	beq.w	80011a4 <HAL_GPIO_Init+0x2a8>
      {
        /* Enable SYSCFG Clock */
        __HAL_RCC_SYSCFG_CLK_ENABLE();
 8001070:	4b55      	ldr	r3, [pc, #340]	; (80011c8 <HAL_GPIO_Init+0x2cc>)
 8001072:	699b      	ldr	r3, [r3, #24]
 8001074:	4a54      	ldr	r2, [pc, #336]	; (80011c8 <HAL_GPIO_Init+0x2cc>)
 8001076:	f043 0301 	orr.w	r3, r3, #1
 800107a:	6193      	str	r3, [r2, #24]
 800107c:	4b52      	ldr	r3, [pc, #328]	; (80011c8 <HAL_GPIO_Init+0x2cc>)
 800107e:	699b      	ldr	r3, [r3, #24]
 8001080:	f003 0301 	and.w	r3, r3, #1
 8001084:	60bb      	str	r3, [r7, #8]
 8001086:	68bb      	ldr	r3, [r7, #8]

        temp = SYSCFG->EXTICR[position >> 2u];
 8001088:	4a50      	ldr	r2, [pc, #320]	; (80011cc <HAL_GPIO_Init+0x2d0>)
 800108a:	697b      	ldr	r3, [r7, #20]
 800108c:	089b      	lsrs	r3, r3, #2
 800108e:	3302      	adds	r3, #2
 8001090:	f852 3023 	ldr.w	r3, [r2, r3, lsl #2]
 8001094:	613b      	str	r3, [r7, #16]
        temp &= ~(0x0FuL << (4u * (position & 0x03u)));
 8001096:	697b      	ldr	r3, [r7, #20]
 8001098:	f003 0303 	and.w	r3, r3, #3
 800109c:	009b      	lsls	r3, r3, #2
 800109e:	220f      	movs	r2, #15
 80010a0:	fa02 f303 	lsl.w	r3, r2, r3
 80010a4:	43db      	mvns	r3, r3
 80010a6:	693a      	ldr	r2, [r7, #16]
 80010a8:	4013      	ands	r3, r2
 80010aa:	613b      	str	r3, [r7, #16]
        temp |= (GPIO_GET_INDEX(GPIOx) << (4u * (position & 0x03u)));
 80010ac:	687b      	ldr	r3, [r7, #4]
 80010ae:	f1b3 4f90 	cmp.w	r3, #1207959552	; 0x48000000
 80010b2:	d013      	beq.n	80010dc <HAL_GPIO_Init+0x1e0>
 80010b4:	687b      	ldr	r3, [r7, #4]
 80010b6:	4a46      	ldr	r2, [pc, #280]	; (80011d0 <HAL_GPIO_Init+0x2d4>)
 80010b8:	4293      	cmp	r3, r2
 80010ba:	d00d      	beq.n	80010d8 <HAL_GPIO_Init+0x1dc>
 80010bc:	687b      	ldr	r3, [r7, #4]
 80010be:	4a45      	ldr	r2, [pc, #276]	; (80011d4 <HAL_GPIO_Init+0x2d8>)
 80010c0:	4293      	cmp	r3, r2
 80010c2:	d007      	beq.n	80010d4 <HAL_GPIO_Init+0x1d8>
 80010c4:	687b      	ldr	r3, [r7, #4]
 80010c6:	4a44      	ldr	r2, [pc, #272]	; (80011d8 <HAL_GPIO_Init+0x2dc>)
 80010c8:	4293      	cmp	r3, r2
 80010ca:	d101      	bne.n	80010d0 <HAL_GPIO_Init+0x1d4>
 80010cc:	2303      	movs	r3, #3
 80010ce:	e006      	b.n	80010de <HAL_GPIO_Init+0x1e2>
 80010d0:	2305      	movs	r3, #5
 80010d2:	e004      	b.n	80010de <HAL_GPIO_Init+0x1e2>
 80010d4:	2302      	movs	r3, #2
 80010d6:	e002      	b.n	80010de <HAL_GPIO_Init+0x1e2>
 80010d8:	2301      	movs	r3, #1
 80010da:	e000      	b.n	80010de <HAL_GPIO_Init+0x1e2>
 80010dc:	2300      	movs	r3, #0
 80010de:	697a      	ldr	r2, [r7, #20]
 80010e0:	f002 0203 	and.w	r2, r2, #3
 80010e4:	0092      	lsls	r2, r2, #2
 80010e6:	4093      	lsls	r3, r2
 80010e8:	693a      	ldr	r2, [r7, #16]
 80010ea:	4313      	orrs	r3, r2
 80010ec:	613b      	str	r3, [r7, #16]
        SYSCFG->EXTICR[position >> 2u] = temp;
 80010ee:	4937      	ldr	r1, [pc, #220]	; (80011cc <HAL_GPIO_Init+0x2d0>)
 80010f0:	697b      	ldr	r3, [r7, #20]
 80010f2:	089b      	lsrs	r3, r3, #2
 80010f4:	3302      	adds	r3, #2
 80010f6:	693a      	ldr	r2, [r7, #16]
 80010f8:	f841 2023 	str.w	r2, [r1, r3, lsl #2]

        /* Clear Rising Falling edge configuration */
        temp = EXTI->RTSR;
 80010fc:	4b37      	ldr	r3, [pc, #220]	; (80011dc <HAL_GPIO_Init+0x2e0>)
 80010fe:	689b      	ldr	r3, [r3, #8]
 8001100:	613b      	str	r3, [r7, #16]
        temp &= ~(iocurrent);
 8001102:	68fb      	ldr	r3, [r7, #12]
 8001104:	43db      	mvns	r3, r3
 8001106:	693a      	ldr	r2, [r7, #16]
 8001108:	4013      	ands	r3, r2
 800110a:	613b      	str	r3, [r7, #16]
        if((GPIO_Init->Mode & TRIGGER_RISING) != 0x00u)
 800110c:	683b      	ldr	r3, [r7, #0]
 800110e:	685b      	ldr	r3, [r3, #4]
 8001110:	f403 1380 	and.w	r3, r3, #1048576	; 0x100000
 8001114:	2b00      	cmp	r3, #0
 8001116:	d003      	beq.n	8001120 <HAL_GPIO_Init+0x224>
        {
          temp |= iocurrent;
 8001118:	693a      	ldr	r2, [r7, #16]
 800111a:	68fb      	ldr	r3, [r7, #12]
 800111c:	4313      	orrs	r3, r2
 800111e:	613b      	str	r3, [r7, #16]
        }
        EXTI->RTSR = temp;
 8001120:	4a2e      	ldr	r2, [pc, #184]	; (80011dc <HAL_GPIO_Init+0x2e0>)
 8001122:	693b      	ldr	r3, [r7, #16]
 8001124:	6093      	str	r3, [r2, #8]

        temp = EXTI->FTSR;
 8001126:	4b2d      	ldr	r3, [pc, #180]	; (80011dc <HAL_GPIO_Init+0x2e0>)
 8001128:	68db      	ldr	r3, [r3, #12]
 800112a:	613b      	str	r3, [r7, #16]
        temp &= ~(iocurrent);
 800112c:	68fb      	ldr	r3, [r7, #12]
 800112e:	43db      	mvns	r3, r3
 8001130:	693a      	ldr	r2, [r7, #16]
 8001132:	4013      	ands	r3, r2
 8001134:	613b      	str	r3, [r7, #16]
        if((GPIO_Init->Mode & TRIGGER_FALLING) != 0x00u)
 8001136:	683b      	ldr	r3, [r7, #0]
 8001138:	685b      	ldr	r3, [r3, #4]
 800113a:	f403 1300 	and.w	r3, r3, #2097152	; 0x200000
 800113e:	2b00      	cmp	r3, #0
 8001140:	d003      	beq.n	800114a <HAL_GPIO_Init+0x24e>
        {
          temp |= iocurrent;
 8001142:	693a      	ldr	r2, [r7, #16]
 8001144:	68fb      	ldr	r3, [r7, #12]
 8001146:	4313      	orrs	r3, r2
 8001148:	613b      	str	r3, [r7, #16]
        }
        EXTI->FTSR = temp;
 800114a:	4a24      	ldr	r2, [pc, #144]	; (80011dc <HAL_GPIO_Init+0x2e0>)
 800114c:	693b      	ldr	r3, [r7, #16]
 800114e:	60d3      	str	r3, [r2, #12]

        temp = EXTI->EMR;
 8001150:	4b22      	ldr	r3, [pc, #136]	; (80011dc <HAL_GPIO_Init+0x2e0>)
 8001152:	685b      	ldr	r3, [r3, #4]
 8001154:	613b      	str	r3, [r7, #16]
        temp &= ~(iocurrent);
 8001156:	68fb      	ldr	r3, [r7, #12]
 8001158:	43db      	mvns	r3, r3
 800115a:	693a      	ldr	r2, [r7, #16]
 800115c:	4013      	ands	r3, r2
 800115e:	613b      	str	r3, [r7, #16]
        if((GPIO_Init->Mode & EXTI_EVT) != 0x00u)
 8001160:	683b      	ldr	r3, [r7, #0]
 8001162:	685b      	ldr	r3, [r3, #4]
 8001164:	f403 3300 	and.w	r3, r3, #131072	; 0x20000
 8001168:	2b00      	cmp	r3, #0
 800116a:	d003      	beq.n	8001174 <HAL_GPIO_Init+0x278>
        {
          temp |= iocurrent;
 800116c:	693a      	ldr	r2, [r7, #16]
 800116e:	68fb      	ldr	r3, [r7, #12]
 8001170:	4313      	orrs	r3, r2
 8001172:	613b      	str	r3, [r7, #16]
        }
        EXTI->EMR = temp;
 8001174:	4a19      	ldr	r2, [pc, #100]	; (80011dc <HAL_GPIO_Init+0x2e0>)
 8001176:	693b      	ldr	r3, [r7, #16]
 8001178:	6053      	str	r3, [r2, #4]

        /* Clear EXTI line configuration */
        temp = EXTI->IMR;
 800117a:	4b18      	ldr	r3, [pc, #96]	; (80011dc <HAL_GPIO_Init+0x2e0>)
 800117c:	681b      	ldr	r3, [r3, #0]
 800117e:	613b      	str	r3, [r7, #16]
        temp &= ~(iocurrent);
 8001180:	68fb      	ldr	r3, [r7, #12]
 8001182:	43db      	mvns	r3, r3
 8001184:	693a      	ldr	r2, [r7, #16]
 8001186:	4013      	ands	r3, r2
 8001188:	613b      	str	r3, [r7, #16]
        if((GPIO_Init->Mode & EXTI_IT) != 0x00u)
 800118a:	683b      	ldr	r3, [r7, #0]
 800118c:	685b      	ldr	r3, [r3, #4]
 800118e:	f403 3380 	and.w	r3, r3, #65536	; 0x10000
 8001192:	2b00      	cmp	r3, #0
 8001194:	d003      	beq.n	800119e <HAL_GPIO_Init+0x2a2>
        {
          temp |= iocurrent;
 8001196:	693a      	ldr	r2, [r7, #16]
 8001198:	68fb      	ldr	r3, [r7, #12]
 800119a:	4313      	orrs	r3, r2
 800119c:	613b      	str	r3, [r7, #16]
        }
        EXTI->IMR = temp;
 800119e:	4a0f      	ldr	r2, [pc, #60]	; (80011dc <HAL_GPIO_Init+0x2e0>)
 80011a0:	693b      	ldr	r3, [r7, #16]
 80011a2:	6013      	str	r3, [r2, #0]
      }
    }

    position++;
 80011a4:	697b      	ldr	r3, [r7, #20]
 80011a6:	3301      	adds	r3, #1
 80011a8:	617b      	str	r3, [r7, #20]
  while (((GPIO_Init->Pin) >> position) != 0x00u)
 80011aa:	683b      	ldr	r3, [r7, #0]
 80011ac:	681a      	ldr	r2, [r3, #0]
 80011ae:	697b      	ldr	r3, [r7, #20]
 80011b0:	fa22 f303 	lsr.w	r3, r2, r3
 80011b4:	2b00      	cmp	r3, #0
 80011b6:	f47f aea9 	bne.w	8000f0c <HAL_GPIO_Init+0x10>
  }
}
 80011ba:	bf00      	nop
 80011bc:	bf00      	nop
 80011be:	371c      	adds	r7, #28
 80011c0:	46bd      	mov	sp, r7
 80011c2:	f85d 7b04 	ldr.w	r7, [sp], #4
 80011c6:	4770      	bx	lr
 80011c8:	40021000 	.word	0x40021000
 80011cc:	40010000 	.word	0x40010000
 80011d0:	48000400 	.word	0x48000400
 80011d4:	48000800 	.word	0x48000800
 80011d8:	48000c00 	.word	0x48000c00
 80011dc:	40010400 	.word	0x40010400

080011e0 <HAL_GPIO_WritePin>:
  *            @arg GPIO_PIN_RESET: to clear the port pin
  *            @arg GPIO_PIN_SET: to set the port pin
  * @retval None
  */
void HAL_GPIO_WritePin(GPIO_TypeDef* GPIOx, uint16_t GPIO_Pin, GPIO_PinState PinState)
{
 80011e0:	b480      	push	{r7}
 80011e2:	b083      	sub	sp, #12
 80011e4:	af00      	add	r7, sp, #0
 80011e6:	6078      	str	r0, [r7, #4]
 80011e8:	460b      	mov	r3, r1
 80011ea:	807b      	strh	r3, [r7, #2]
 80011ec:	4613      	mov	r3, r2
 80011ee:	707b      	strb	r3, [r7, #1]
  /* Check the parameters */
  assert_param(IS_GPIO_PIN(GPIO_Pin));
  assert_param(IS_GPIO_PIN_ACTION(PinState));

  if(PinState != GPIO_PIN_RESET)
 80011f0:	787b      	ldrb	r3, [r7, #1]
 80011f2:	2b00      	cmp	r3, #0
 80011f4:	d003      	beq.n	80011fe <HAL_GPIO_WritePin+0x1e>
  {
    GPIOx->BSRR = (uint32_t)GPIO_Pin;
 80011f6:	887a      	ldrh	r2, [r7, #2]
 80011f8:	687b      	ldr	r3, [r7, #4]
 80011fa:	619a      	str	r2, [r3, #24]
  }
  else
  {
    GPIOx->BRR = (uint32_t)GPIO_Pin;
  }
}
 80011fc:	e002      	b.n	8001204 <HAL_GPIO_WritePin+0x24>
    GPIOx->BRR = (uint32_t)GPIO_Pin;
 80011fe:	887a      	ldrh	r2, [r7, #2]
 8001200:	687b      	ldr	r3, [r7, #4]
 8001202:	629a      	str	r2, [r3, #40]	; 0x28
}
 8001204:	bf00      	nop
 8001206:	370c      	adds	r7, #12
 8001208:	46bd      	mov	sp, r7
 800120a:	f85d 7b04 	ldr.w	r7, [sp], #4
 800120e:	4770      	bx	lr

08001210 <HAL_I2C_Init>:
  * @param  hi2c Pointer to a I2C_HandleTypeDef structure that contains
  *                the configuration information for the specified I2C.
  * @retval HAL status
  */
HAL_StatusTypeDef HAL_I2C_Init(I2C_HandleTypeDef *hi2c)
{
 8001210:	b580      	push	{r7, lr}
 8001212:	b082      	sub	sp, #8
 8001214:	af00      	add	r7, sp, #0
 8001216:	6078      	str	r0, [r7, #4]
  /* Check the I2C handle allocation */
  if (hi2c == NULL)
 8001218:	687b      	ldr	r3, [r7, #4]
 800121a:	2b00      	cmp	r3, #0
 800121c:	d101      	bne.n	8001222 <HAL_I2C_Init+0x12>
  {
    return HAL_ERROR;
 800121e:	2301      	movs	r3, #1
 8001220:	e081      	b.n	8001326 <HAL_I2C_Init+0x116>
  assert_param(IS_I2C_OWN_ADDRESS2(hi2c->Init.OwnAddress2));
  assert_param(IS_I2C_OWN_ADDRESS2_MASK(hi2c->Init.OwnAddress2Masks));
  assert_param(IS_I2C_GENERAL_CALL(hi2c->Init.GeneralCallMode));
  assert_param(IS_I2C_NO_STRETCH(hi2c->Init.NoStretchMode));

  if (hi2c->State == HAL_I2C_STATE_RESET)
 8001222:	687b      	ldr	r3, [r7, #4]
 8001224:	f893 3041 	ldrb.w	r3, [r3, #65]	; 0x41
 8001228:	b2db      	uxtb	r3, r3
 800122a:	2b00      	cmp	r3, #0
 800122c:	d106      	bne.n	800123c <HAL_I2C_Init+0x2c>
  {
    /* Allocate lock resource and initialize it */
    hi2c->Lock = HAL_UNLOCKED;
 800122e:	687b      	ldr	r3, [r7, #4]
 8001230:	2200      	movs	r2, #0
 8001232:	f883 2040 	strb.w	r2, [r3, #64]	; 0x40

    /* Init the low level hardware : GPIO, CLOCK, CORTEX...etc */
    hi2c->MspInitCallback(hi2c);
#else
    /* Init the low level hardware : GPIO, CLOCK, CORTEX...etc */
    HAL_I2C_MspInit(hi2c);
 8001236:	6878      	ldr	r0, [r7, #4]
 8001238:	f7ff f996 	bl	8000568 <HAL_I2C_MspInit>
#endif /* USE_HAL_I2C_REGISTER_CALLBACKS */
  }

  hi2c->State = HAL_I2C_STATE_BUSY;
 800123c:	687b      	ldr	r3, [r7, #4]
 800123e:	2224      	movs	r2, #36	; 0x24
 8001240:	f883 2041 	strb.w	r2, [r3, #65]	; 0x41

  /* Disable the selected I2C peripheral */
  __HAL_I2C_DISABLE(hi2c);
 8001244:	687b      	ldr	r3, [r7, #4]
 8001246:	681b      	ldr	r3, [r3, #0]
 8001248:	681a      	ldr	r2, [r3, #0]
 800124a:	687b      	ldr	r3, [r7, #4]
 800124c:	681b      	ldr	r3, [r3, #0]
 800124e:	f022 0201 	bic.w	r2, r2, #1
 8001252:	601a      	str	r2, [r3, #0]

  /*---------------------------- I2Cx TIMINGR Configuration ------------------*/
  /* Configure I2Cx: Frequency range */
  hi2c->Instance->TIMINGR = hi2c->Init.Timing & TIMING_CLEAR_MASK;
 8001254:	687b      	ldr	r3, [r7, #4]
 8001256:	685a      	ldr	r2, [r3, #4]
 8001258:	687b      	ldr	r3, [r7, #4]
 800125a:	681b      	ldr	r3, [r3, #0]
 800125c:	f022 6270 	bic.w	r2, r2, #251658240	; 0xf000000
 8001260:	611a      	str	r2, [r3, #16]

  /*---------------------------- I2Cx OAR1 Configuration ---------------------*/
  /* Disable Own Address1 before set the Own Address1 configuration */
  hi2c->Instance->OAR1 &= ~I2C_OAR1_OA1EN;
 8001262:	687b      	ldr	r3, [r7, #4]
 8001264:	681b      	ldr	r3, [r3, #0]
 8001266:	689a      	ldr	r2, [r3, #8]
 8001268:	687b      	ldr	r3, [r7, #4]
 800126a:	681b      	ldr	r3, [r3, #0]
 800126c:	f422 4200 	bic.w	r2, r2, #32768	; 0x8000
 8001270:	609a      	str	r2, [r3, #8]

  /* Configure I2Cx: Own Address1 and ack own address1 mode */
  if (hi2c->Init.AddressingMode == I2C_ADDRESSINGMODE_7BIT)
 8001272:	687b      	ldr	r3, [r7, #4]
 8001274:	68db      	ldr	r3, [r3, #12]
 8001276:	2b01      	cmp	r3, #1
 8001278:	d107      	bne.n	800128a <HAL_I2C_Init+0x7a>
  {
    hi2c->Instance->OAR1 = (I2C_OAR1_OA1EN | hi2c->Init.OwnAddress1);
 800127a:	687b      	ldr	r3, [r7, #4]
 800127c:	689a      	ldr	r2, [r3, #8]
 800127e:	687b      	ldr	r3, [r7, #4]
 8001280:	681b      	ldr	r3, [r3, #0]
 8001282:	f442 4200 	orr.w	r2, r2, #32768	; 0x8000
 8001286:	609a      	str	r2, [r3, #8]
 8001288:	e006      	b.n	8001298 <HAL_I2C_Init+0x88>
  }
  else /* I2C_ADDRESSINGMODE_10BIT */
  {
    hi2c->Instance->OAR1 = (I2C_OAR1_OA1EN | I2C_OAR1_OA1MODE | hi2c->Init.OwnAddress1);
 800128a:	687b      	ldr	r3, [r7, #4]
 800128c:	689a      	ldr	r2, [r3, #8]
 800128e:	687b      	ldr	r3, [r7, #4]
 8001290:	681b      	ldr	r3, [r3, #0]
 8001292:	f442 4204 	orr.w	r2, r2, #33792	; 0x8400
 8001296:	609a      	str	r2, [r3, #8]
  }

  /*---------------------------- I2Cx CR2 Configuration ----------------------*/
  /* Configure I2Cx: Addressing Master mode */
  if (hi2c->Init.AddressingMode == I2C_ADDRESSINGMODE_10BIT)
 8001298:	687b      	ldr	r3, [r7, #4]
 800129a:	68db      	ldr	r3, [r3, #12]
 800129c:	2b02      	cmp	r3, #2
 800129e:	d104      	bne.n	80012aa <HAL_I2C_Init+0x9a>
  {
    hi2c->Instance->CR2 = (I2C_CR2_ADD10);
 80012a0:	687b      	ldr	r3, [r7, #4]
 80012a2:	681b      	ldr	r3, [r3, #0]
 80012a4:	f44f 6200 	mov.w	r2, #2048	; 0x800
 80012a8:	605a      	str	r2, [r3, #4]
  }
  /* Enable the AUTOEND by default, and enable NACK (should be disable only during Slave process */
  hi2c->Instance->CR2 |= (I2C_CR2_AUTOEND | I2C_CR2_NACK);
 80012aa:	687b      	ldr	r3, [r7, #4]
 80012ac:	681b      	ldr	r3, [r3, #0]
 80012ae:	685b      	ldr	r3, [r3, #4]
 80012b0:	687a      	ldr	r2, [r7, #4]
 80012b2:	6812      	ldr	r2, [r2, #0]
 80012b4:	f043 7300 	orr.w	r3, r3, #33554432	; 0x2000000
 80012b8:	f443 4300 	orr.w	r3, r3, #32768	; 0x8000
 80012bc:	6053      	str	r3, [r2, #4]

  /*---------------------------- I2Cx OAR2 Configuration ---------------------*/
  /* Disable Own Address2 before set the Own Address2 configuration */
  hi2c->Instance->OAR2 &= ~I2C_DUALADDRESS_ENABLE;
 80012be:	687b      	ldr	r3, [r7, #4]
 80012c0:	681b      	ldr	r3, [r3, #0]
 80012c2:	68da      	ldr	r2, [r3, #12]
 80012c4:	687b      	ldr	r3, [r7, #4]
 80012c6:	681b      	ldr	r3, [r3, #0]
 80012c8:	f422 4200 	bic.w	r2, r2, #32768	; 0x8000
 80012cc:	60da      	str	r2, [r3, #12]

  /* Configure I2Cx: Dual mode and Own Address2 */
  hi2c->Instance->OAR2 = (hi2c->Init.DualAddressMode | hi2c->Init.OwnAddress2 | \
 80012ce:	687b      	ldr	r3, [r7, #4]
 80012d0:	691a      	ldr	r2, [r3, #16]
 80012d2:	687b      	ldr	r3, [r7, #4]
 80012d4:	695b      	ldr	r3, [r3, #20]
 80012d6:	ea42 0103 	orr.w	r1, r2, r3
                          (hi2c->Init.OwnAddress2Masks << 8));
 80012da:	687b      	ldr	r3, [r7, #4]
 80012dc:	699b      	ldr	r3, [r3, #24]
 80012de:	021a      	lsls	r2, r3, #8
  hi2c->Instance->OAR2 = (hi2c->Init.DualAddressMode | hi2c->Init.OwnAddress2 | \
 80012e0:	687b      	ldr	r3, [r7, #4]
 80012e2:	681b      	ldr	r3, [r3, #0]
 80012e4:	430a      	orrs	r2, r1
 80012e6:	60da      	str	r2, [r3, #12]

  /*---------------------------- I2Cx CR1 Configuration ----------------------*/
  /* Configure I2Cx: Generalcall and NoStretch mode */
  hi2c->Instance->CR1 = (hi2c->Init.GeneralCallMode | hi2c->Init.NoStretchMode);
 80012e8:	687b      	ldr	r3, [r7, #4]
 80012ea:	69d9      	ldr	r1, [r3, #28]
 80012ec:	687b      	ldr	r3, [r7, #4]
 80012ee:	6a1a      	ldr	r2, [r3, #32]
 80012f0:	687b      	ldr	r3, [r7, #4]
 80012f2:	681b      	ldr	r3, [r3, #0]
 80012f4:	430a      	orrs	r2, r1
 80012f6:	601a      	str	r2, [r3, #0]

  /* Enable the selected I2C peripheral */
  __HAL_I2C_ENABLE(hi2c);
 80012f8:	687b      	ldr	r3, [r7, #4]
 80012fa:	681b      	ldr	r3, [r3, #0]
 80012fc:	681a      	ldr	r2, [r3, #0]
 80012fe:	687b      	ldr	r3, [r7, #4]
 8001300:	681b      	ldr	r3, [r3, #0]
 8001302:	f042 0201 	orr.w	r2, r2, #1
 8001306:	601a      	str	r2, [r3, #0]

  hi2c->ErrorCode = HAL_I2C_ERROR_NONE;
 8001308:	687b      	ldr	r3, [r7, #4]
 800130a:	2200      	movs	r2, #0
 800130c:	645a      	str	r2, [r3, #68]	; 0x44
  hi2c->State = HAL_I2C_STATE_READY;
 800130e:	687b      	ldr	r3, [r7, #4]
 8001310:	2220      	movs	r2, #32
 8001312:	f883 2041 	strb.w	r2, [r3, #65]	; 0x41
  hi2c->PreviousState = I2C_STATE_NONE;
 8001316:	687b      	ldr	r3, [r7, #4]
 8001318:	2200      	movs	r2, #0
 800131a:	631a      	str	r2, [r3, #48]	; 0x30
  hi2c->Mode = HAL_I2C_MODE_NONE;
 800131c:	687b      	ldr	r3, [r7, #4]
 800131e:	2200      	movs	r2, #0
 8001320:	f883 2042 	strb.w	r2, [r3, #66]	; 0x42

  return HAL_OK;
 8001324:	2300      	movs	r3, #0
}
 8001326:	4618      	mov	r0, r3
 8001328:	3708      	adds	r7, #8
 800132a:	46bd      	mov	sp, r7
 800132c:	bd80      	pop	{r7, pc}
	...

08001330 <HAL_I2C_Mem_Write>:
  * @param  Timeout Timeout duration
  * @retval HAL status
  */
HAL_StatusTypeDef HAL_I2C_Mem_Write(I2C_HandleTypeDef *hi2c, uint16_t DevAddress, uint16_t MemAddress,
                                    uint16_t MemAddSize, uint8_t *pData, uint16_t Size, uint32_t Timeout)
{
 8001330:	b580      	push	{r7, lr}
 8001332:	b088      	sub	sp, #32
 8001334:	af02      	add	r7, sp, #8
 8001336:	60f8      	str	r0, [r7, #12]
 8001338:	4608      	mov	r0, r1
 800133a:	4611      	mov	r1, r2
 800133c:	461a      	mov	r2, r3
 800133e:	4603      	mov	r3, r0
 8001340:	817b      	strh	r3, [r7, #10]
 8001342:	460b      	mov	r3, r1
 8001344:	813b      	strh	r3, [r7, #8]
 8001346:	4613      	mov	r3, r2
 8001348:	80fb      	strh	r3, [r7, #6]
  uint32_t tickstart;

  /* Check the parameters */
  assert_param(IS_I2C_MEMADD_SIZE(MemAddSize));

  if (hi2c->State == HAL_I2C_STATE_READY)
 800134a:	68fb      	ldr	r3, [r7, #12]
 800134c:	f893 3041 	ldrb.w	r3, [r3, #65]	; 0x41
 8001350:	b2db      	uxtb	r3, r3
 8001352:	2b20      	cmp	r3, #32
 8001354:	f040 80f9 	bne.w	800154a <HAL_I2C_Mem_Write+0x21a>
  {
    if ((pData == NULL) || (Size == 0U))
 8001358:	6a3b      	ldr	r3, [r7, #32]
 800135a:	2b00      	cmp	r3, #0
 800135c:	d002      	beq.n	8001364 <HAL_I2C_Mem_Write+0x34>
 800135e:	8cbb      	ldrh	r3, [r7, #36]	; 0x24
 8001360:	2b00      	cmp	r3, #0
 8001362:	d105      	bne.n	8001370 <HAL_I2C_Mem_Write+0x40>
    {
      hi2c->ErrorCode = HAL_I2C_ERROR_INVALID_PARAM;
 8001364:	68fb      	ldr	r3, [r7, #12]
 8001366:	f44f 7200 	mov.w	r2, #512	; 0x200
 800136a:	645a      	str	r2, [r3, #68]	; 0x44
      return  HAL_ERROR;
 800136c:	2301      	movs	r3, #1
 800136e:	e0ed      	b.n	800154c <HAL_I2C_Mem_Write+0x21c>
    }

    /* Process Locked */
    __HAL_LOCK(hi2c);
 8001370:	68fb      	ldr	r3, [r7, #12]
 8001372:	f893 3040 	ldrb.w	r3, [r3, #64]	; 0x40
 8001376:	2b01      	cmp	r3, #1
 8001378:	d101      	bne.n	800137e <HAL_I2C_Mem_Write+0x4e>
 800137a:	2302      	movs	r3, #2
 800137c:	e0e6      	b.n	800154c <HAL_I2C_Mem_Write+0x21c>
 800137e:	68fb      	ldr	r3, [r7, #12]
 8001380:	2201      	movs	r2, #1
 8001382:	f883 2040 	strb.w	r2, [r3, #64]	; 0x40

    /* Init tickstart for timeout management*/
    tickstart = HAL_GetTick();
 8001386:	f7ff fca3 	bl	8000cd0 <HAL_GetTick>
 800138a:	6178      	str	r0, [r7, #20]

    if (I2C_WaitOnFlagUntilTimeout(hi2c, I2C_FLAG_BUSY, SET, I2C_TIMEOUT_BUSY, tickstart) != HAL_OK)
 800138c:	697b      	ldr	r3, [r7, #20]
 800138e:	9300      	str	r3, [sp, #0]
 8001390:	2319      	movs	r3, #25
 8001392:	2201      	movs	r2, #1
 8001394:	f44f 4100 	mov.w	r1, #32768	; 0x8000
 8001398:	68f8      	ldr	r0, [r7, #12]
 800139a:	f000 f955 	bl	8001648 <I2C_WaitOnFlagUntilTimeout>
 800139e:	4603      	mov	r3, r0
 80013a0:	2b00      	cmp	r3, #0
 80013a2:	d001      	beq.n	80013a8 <HAL_I2C_Mem_Write+0x78>
    {
      return HAL_ERROR;
 80013a4:	2301      	movs	r3, #1
 80013a6:	e0d1      	b.n	800154c <HAL_I2C_Mem_Write+0x21c>
    }

    hi2c->State     = HAL_I2C_STATE_BUSY_TX;
 80013a8:	68fb      	ldr	r3, [r7, #12]
 80013aa:	2221      	movs	r2, #33	; 0x21
 80013ac:	f883 2041 	strb.w	r2, [r3, #65]	; 0x41
    hi2c->Mode      = HAL_I2C_MODE_MEM;
 80013b0:	68fb      	ldr	r3, [r7, #12]
 80013b2:	2240      	movs	r2, #64	; 0x40
 80013b4:	f883 2042 	strb.w	r2, [r3, #66]	; 0x42
    hi2c->ErrorCode = HAL_I2C_ERROR_NONE;
 80013b8:	68fb      	ldr	r3, [r7, #12]
 80013ba:	2200      	movs	r2, #0
 80013bc:	645a      	str	r2, [r3, #68]	; 0x44

    /* Prepare transfer parameters */
    hi2c->pBuffPtr  = pData;
 80013be:	68fb      	ldr	r3, [r7, #12]
 80013c0:	6a3a      	ldr	r2, [r7, #32]
 80013c2:	625a      	str	r2, [r3, #36]	; 0x24
    hi2c->XferCount = Size;
 80013c4:	68fb      	ldr	r3, [r7, #12]
 80013c6:	8cba      	ldrh	r2, [r7, #36]	; 0x24
 80013c8:	855a      	strh	r2, [r3, #42]	; 0x2a
    hi2c->XferISR   = NULL;
 80013ca:	68fb      	ldr	r3, [r7, #12]
 80013cc:	2200      	movs	r2, #0
 80013ce:	635a      	str	r2, [r3, #52]	; 0x34

    /* Send Slave Address and Memory Address */
    if (I2C_RequestMemoryWrite(hi2c, DevAddress, MemAddress, MemAddSize, Timeout, tickstart) != HAL_OK)
 80013d0:	88f8      	ldrh	r0, [r7, #6]
 80013d2:	893a      	ldrh	r2, [r7, #8]
 80013d4:	8979      	ldrh	r1, [r7, #10]
 80013d6:	697b      	ldr	r3, [r7, #20]
 80013d8:	9301      	str	r3, [sp, #4]
 80013da:	6abb      	ldr	r3, [r7, #40]	; 0x28
 80013dc:	9300      	str	r3, [sp, #0]
 80013de:	4603      	mov	r3, r0
 80013e0:	68f8      	ldr	r0, [r7, #12]
 80013e2:	f000 f8b9 	bl	8001558 <I2C_RequestMemoryWrite>
 80013e6:	4603      	mov	r3, r0
 80013e8:	2b00      	cmp	r3, #0
 80013ea:	d005      	beq.n	80013f8 <HAL_I2C_Mem_Write+0xc8>
    {
      /* Process Unlocked */
      __HAL_UNLOCK(hi2c);
 80013ec:	68fb      	ldr	r3, [r7, #12]
 80013ee:	2200      	movs	r2, #0
 80013f0:	f883 2040 	strb.w	r2, [r3, #64]	; 0x40
      return HAL_ERROR;
 80013f4:	2301      	movs	r3, #1
 80013f6:	e0a9      	b.n	800154c <HAL_I2C_Mem_Write+0x21c>
    }

    /* Set NBYTES to write and reload if hi2c->XferCount > MAX_NBYTE_SIZE */
    if (hi2c->XferCount > MAX_NBYTE_SIZE)
 80013f8:	68fb      	ldr	r3, [r7, #12]
 80013fa:	8d5b      	ldrh	r3, [r3, #42]	; 0x2a
 80013fc:	b29b      	uxth	r3, r3
 80013fe:	2bff      	cmp	r3, #255	; 0xff
 8001400:	d90e      	bls.n	8001420 <HAL_I2C_Mem_Write+0xf0>
    {
      hi2c->XferSize = MAX_NBYTE_SIZE;
 8001402:	68fb      	ldr	r3, [r7, #12]
 8001404:	22ff      	movs	r2, #255	; 0xff
 8001406:	851a      	strh	r2, [r3, #40]	; 0x28
      I2C_TransferConfig(hi2c, DevAddress, (uint8_t)hi2c->XferSize, I2C_RELOAD_MODE, I2C_NO_STARTSTOP);
 8001408:	68fb      	ldr	r3, [r7, #12]
 800140a:	8d1b      	ldrh	r3, [r3, #40]	; 0x28
 800140c:	b2da      	uxtb	r2, r3
 800140e:	8979      	ldrh	r1, [r7, #10]
 8001410:	2300      	movs	r3, #0
 8001412:	9300      	str	r3, [sp, #0]
 8001414:	f04f 7380 	mov.w	r3, #16777216	; 0x1000000
 8001418:	68f8      	ldr	r0, [r7, #12]
 800141a:	f000 facf 	bl	80019bc <I2C_TransferConfig>
 800141e:	e00f      	b.n	8001440 <HAL_I2C_Mem_Write+0x110>
    }
    else
    {
      hi2c->XferSize = hi2c->XferCount;
 8001420:	68fb      	ldr	r3, [r7, #12]
 8001422:	8d5b      	ldrh	r3, [r3, #42]	; 0x2a
 8001424:	b29a      	uxth	r2, r3
 8001426:	68fb      	ldr	r3, [r7, #12]
 8001428:	851a      	strh	r2, [r3, #40]	; 0x28
      I2C_TransferConfig(hi2c, DevAddress, (uint8_t)hi2c->XferSize, I2C_AUTOEND_MODE, I2C_NO_STARTSTOP);
 800142a:	68fb      	ldr	r3, [r7, #12]
 800142c:	8d1b      	ldrh	r3, [r3, #40]	; 0x28
 800142e:	b2da      	uxtb	r2, r3
 8001430:	8979      	ldrh	r1, [r7, #10]
 8001432:	2300      	movs	r3, #0
 8001434:	9300      	str	r3, [sp, #0]
 8001436:	f04f 7300 	mov.w	r3, #33554432	; 0x2000000
 800143a:	68f8      	ldr	r0, [r7, #12]
 800143c:	f000 fabe 	bl	80019bc <I2C_TransferConfig>
    }

    do
    {
      /* Wait until TXIS flag is set */
      if (I2C_WaitOnTXISFlagUntilTimeout(hi2c, Timeout, tickstart) != HAL_OK)
 8001440:	697a      	ldr	r2, [r7, #20]
 8001442:	6ab9      	ldr	r1, [r7, #40]	; 0x28
 8001444:	68f8      	ldr	r0, [r7, #12]
 8001446:	f000 f94e 	bl	80016e6 <I2C_WaitOnTXISFlagUntilTimeout>
 800144a:	4603      	mov	r3, r0
 800144c:	2b00      	cmp	r3, #0
 800144e:	d001      	beq.n	8001454 <HAL_I2C_Mem_Write+0x124>
      {
        return HAL_ERROR;
 8001450:	2301      	movs	r3, #1
 8001452:	e07b      	b.n	800154c <HAL_I2C_Mem_Write+0x21c>
      }

      /* Write data to TXDR */
      hi2c->Instance->TXDR = *hi2c->pBuffPtr;
 8001454:	68fb      	ldr	r3, [r7, #12]
 8001456:	6a5b      	ldr	r3, [r3, #36]	; 0x24
 8001458:	781a      	ldrb	r2, [r3, #0]
 800145a:	68fb      	ldr	r3, [r7, #12]
 800145c:	681b      	ldr	r3, [r3, #0]
 800145e:	629a      	str	r2, [r3, #40]	; 0x28

      /* Increment Buffer pointer */
      hi2c->pBuffPtr++;
 8001460:	68fb      	ldr	r3, [r7, #12]
 8001462:	6a5b      	ldr	r3, [r3, #36]	; 0x24
 8001464:	1c5a      	adds	r2, r3, #1
 8001466:	68fb      	ldr	r3, [r7, #12]
 8001468:	625a      	str	r2, [r3, #36]	; 0x24

      hi2c->XferCount--;
 800146a:	68fb      	ldr	r3, [r7, #12]
 800146c:	8d5b      	ldrh	r3, [r3, #42]	; 0x2a
 800146e:	b29b      	uxth	r3, r3
 8001470:	3b01      	subs	r3, #1
 8001472:	b29a      	uxth	r2, r3
 8001474:	68fb      	ldr	r3, [r7, #12]
 8001476:	855a      	strh	r2, [r3, #42]	; 0x2a
      hi2c->XferSize--;
 8001478:	68fb      	ldr	r3, [r7, #12]
 800147a:	8d1b      	ldrh	r3, [r3, #40]	; 0x28
 800147c:	3b01      	subs	r3, #1
 800147e:	b29a      	uxth	r2, r3
 8001480:	68fb      	ldr	r3, [r7, #12]
 8001482:	851a      	strh	r2, [r3, #40]	; 0x28

      if ((hi2c->XferCount != 0U) && (hi2c->XferSize == 0U))
 8001484:	68fb      	ldr	r3, [r7, #12]
 8001486:	8d5b      	ldrh	r3, [r3, #42]	; 0x2a
 8001488:	b29b      	uxth	r3, r3
 800148a:	2b00      	cmp	r3, #0
 800148c:	d034      	beq.n	80014f8 <HAL_I2C_Mem_Write+0x1c8>
 800148e:	68fb      	ldr	r3, [r7, #12]
 8001490:	8d1b      	ldrh	r3, [r3, #40]	; 0x28
 8001492:	2b00      	cmp	r3, #0
 8001494:	d130      	bne.n	80014f8 <HAL_I2C_Mem_Write+0x1c8>
      {
        /* Wait until TCR flag is set */
        if (I2C_WaitOnFlagUntilTimeout(hi2c, I2C_FLAG_TCR, RESET, Timeout, tickstart) != HAL_OK)
 8001496:	697b      	ldr	r3, [r7, #20]
 8001498:	9300      	str	r3, [sp, #0]
 800149a:	6abb      	ldr	r3, [r7, #40]	; 0x28
 800149c:	2200      	movs	r2, #0
 800149e:	2180      	movs	r1, #128	; 0x80
 80014a0:	68f8      	ldr	r0, [r7, #12]
 80014a2:	f000 f8d1 	bl	8001648 <I2C_WaitOnFlagUntilTimeout>
 80014a6:	4603      	mov	r3, r0
 80014a8:	2b00      	cmp	r3, #0
 80014aa:	d001      	beq.n	80014b0 <HAL_I2C_Mem_Write+0x180>
        {
          return HAL_ERROR;
 80014ac:	2301      	movs	r3, #1
 80014ae:	e04d      	b.n	800154c <HAL_I2C_Mem_Write+0x21c>
        }

        if (hi2c->XferCount > MAX_NBYTE_SIZE)
 80014b0:	68fb      	ldr	r3, [r7, #12]
 80014b2:	8d5b      	ldrh	r3, [r3, #42]	; 0x2a
 80014b4:	b29b      	uxth	r3, r3
 80014b6:	2bff      	cmp	r3, #255	; 0xff
 80014b8:	d90e      	bls.n	80014d8 <HAL_I2C_Mem_Write+0x1a8>
        {
          hi2c->XferSize = MAX_NBYTE_SIZE;
 80014ba:	68fb      	ldr	r3, [r7, #12]
 80014bc:	22ff      	movs	r2, #255	; 0xff
 80014be:	851a      	strh	r2, [r3, #40]	; 0x28
          I2C_TransferConfig(hi2c, DevAddress, (uint8_t)hi2c->XferSize, I2C_RELOAD_MODE,
 80014c0:	68fb      	ldr	r3, [r7, #12]
 80014c2:	8d1b      	ldrh	r3, [r3, #40]	; 0x28
 80014c4:	b2da      	uxtb	r2, r3
 80014c6:	8979      	ldrh	r1, [r7, #10]
 80014c8:	2300      	movs	r3, #0
 80014ca:	9300      	str	r3, [sp, #0]
 80014cc:	f04f 7380 	mov.w	r3, #16777216	; 0x1000000
 80014d0:	68f8      	ldr	r0, [r7, #12]
 80014d2:	f000 fa73 	bl	80019bc <I2C_TransferConfig>
 80014d6:	e00f      	b.n	80014f8 <HAL_I2C_Mem_Write+0x1c8>
                             I2C_NO_STARTSTOP);
        }
        else
        {
          hi2c->XferSize = hi2c->XferCount;
 80014d8:	68fb      	ldr	r3, [r7, #12]
 80014da:	8d5b      	ldrh	r3, [r3, #42]	; 0x2a
 80014dc:	b29a      	uxth	r2, r3
 80014de:	68fb      	ldr	r3, [r7, #12]
 80014e0:	851a      	strh	r2, [r3, #40]	; 0x28
          I2C_TransferConfig(hi2c, DevAddress, (uint8_t)hi2c->XferSize, I2C_AUTOEND_MODE,
 80014e2:	68fb      	ldr	r3, [r7, #12]
 80014e4:	8d1b      	ldrh	r3, [r3, #40]	; 0x28
 80014e6:	b2da      	uxtb	r2, r3
 80014e8:	8979      	ldrh	r1, [r7, #10]
 80014ea:	2300      	movs	r3, #0
 80014ec:	9300      	str	r3, [sp, #0]
 80014ee:	f04f 7300 	mov.w	r3, #33554432	; 0x2000000
 80014f2:	68f8      	ldr	r0, [r7, #12]
 80014f4:	f000 fa62 	bl	80019bc <I2C_TransferConfig>
                             I2C_NO_STARTSTOP);
        }
      }

    } while (hi2c->XferCount > 0U);
 80014f8:	68fb      	ldr	r3, [r7, #12]
 80014fa:	8d5b      	ldrh	r3, [r3, #42]	; 0x2a
 80014fc:	b29b      	uxth	r3, r3
 80014fe:	2b00      	cmp	r3, #0
 8001500:	d19e      	bne.n	8001440 <HAL_I2C_Mem_Write+0x110>

    /* No need to Check TC flag, with AUTOEND mode the stop is automatically generated */
    /* Wait until STOPF flag is reset */
    if (I2C_WaitOnSTOPFlagUntilTimeout(hi2c, Timeout, tickstart) != HAL_OK)
 8001502:	697a      	ldr	r2, [r7, #20]
 8001504:	6ab9      	ldr	r1, [r7, #40]	; 0x28
 8001506:	68f8      	ldr	r0, [r7, #12]
 8001508:	f000 f934 	bl	8001774 <I2C_WaitOnSTOPFlagUntilTimeout>
 800150c:	4603      	mov	r3, r0
 800150e:	2b00      	cmp	r3, #0
 8001510:	d001      	beq.n	8001516 <HAL_I2C_Mem_Write+0x1e6>
    {
      return HAL_ERROR;
 8001512:	2301      	movs	r3, #1
 8001514:	e01a      	b.n	800154c <HAL_I2C_Mem_Write+0x21c>
    }

    /* Clear STOP Flag */
    __HAL_I2C_CLEAR_FLAG(hi2c, I2C_FLAG_STOPF);
 8001516:	68fb      	ldr	r3, [r7, #12]
 8001518:	681b      	ldr	r3, [r3, #0]
 800151a:	2220      	movs	r2, #32
 800151c:	61da      	str	r2, [r3, #28]

    /* Clear Configuration Register 2 */
    I2C_RESET_CR2(hi2c);
 800151e:	68fb      	ldr	r3, [r7, #12]
 8001520:	681b      	ldr	r3, [r3, #0]
 8001522:	6859      	ldr	r1, [r3, #4]
 8001524:	68fb      	ldr	r3, [r7, #12]
 8001526:	681a      	ldr	r2, [r3, #0]
 8001528:	4b0a      	ldr	r3, [pc, #40]	; (8001554 <HAL_I2C_Mem_Write+0x224>)
 800152a:	400b      	ands	r3, r1
 800152c:	6053      	str	r3, [r2, #4]

    hi2c->State = HAL_I2C_STATE_READY;
 800152e:	68fb      	ldr	r3, [r7, #12]
 8001530:	2220      	movs	r2, #32
 8001532:	f883 2041 	strb.w	r2, [r3, #65]	; 0x41
    hi2c->Mode  = HAL_I2C_MODE_NONE;
 8001536:	68fb      	ldr	r3, [r7, #12]
 8001538:	2200      	movs	r2, #0
 800153a:	f883 2042 	strb.w	r2, [r3, #66]	; 0x42

    /* Process Unlocked */
    __HAL_UNLOCK(hi2c);
 800153e:	68fb      	ldr	r3, [r7, #12]
 8001540:	2200      	movs	r2, #0
 8001542:	f883 2040 	strb.w	r2, [r3, #64]	; 0x40

    return HAL_OK;
 8001546:	2300      	movs	r3, #0
 8001548:	e000      	b.n	800154c <HAL_I2C_Mem_Write+0x21c>
  }
  else
  {
    return HAL_BUSY;
 800154a:	2302      	movs	r3, #2
  }
}
 800154c:	4618      	mov	r0, r3
 800154e:	3718      	adds	r7, #24
 8001550:	46bd      	mov	sp, r7
 8001552:	bd80      	pop	{r7, pc}
 8001554:	fe00e800 	.word	0xfe00e800

08001558 <I2C_RequestMemoryWrite>:
  * @retval HAL status
  */
static HAL_StatusTypeDef I2C_RequestMemoryWrite(I2C_HandleTypeDef *hi2c, uint16_t DevAddress,
                                                uint16_t MemAddress, uint16_t MemAddSize, uint32_t Timeout,
                                                uint32_t Tickstart)
{
 8001558:	b580      	push	{r7, lr}
 800155a:	b086      	sub	sp, #24
 800155c:	af02      	add	r7, sp, #8
 800155e:	60f8      	str	r0, [r7, #12]
 8001560:	4608      	mov	r0, r1
 8001562:	4611      	mov	r1, r2
 8001564:	461a      	mov	r2, r3
 8001566:	4603      	mov	r3, r0
 8001568:	817b      	strh	r3, [r7, #10]
 800156a:	460b      	mov	r3, r1
 800156c:	813b      	strh	r3, [r7, #8]
 800156e:	4613      	mov	r3, r2
 8001570:	80fb      	strh	r3, [r7, #6]
  I2C_TransferConfig(hi2c, DevAddress, (uint8_t)MemAddSize, I2C_RELOAD_MODE, I2C_GENERATE_START_WRITE);
 8001572:	88fb      	ldrh	r3, [r7, #6]
 8001574:	b2da      	uxtb	r2, r3
 8001576:	8979      	ldrh	r1, [r7, #10]
 8001578:	4b20      	ldr	r3, [pc, #128]	; (80015fc <I2C_RequestMemoryWrite+0xa4>)
 800157a:	9300      	str	r3, [sp, #0]
 800157c:	f04f 7380 	mov.w	r3, #16777216	; 0x1000000
 8001580:	68f8      	ldr	r0, [r7, #12]
 8001582:	f000 fa1b 	bl	80019bc <I2C_TransferConfig>

  /* Wait until TXIS flag is set */
  if (I2C_WaitOnTXISFlagUntilTimeout(hi2c, Timeout, Tickstart) != HAL_OK)
 8001586:	69fa      	ldr	r2, [r7, #28]
 8001588:	69b9      	ldr	r1, [r7, #24]
 800158a:	68f8      	ldr	r0, [r7, #12]
 800158c:	f000 f8ab 	bl	80016e6 <I2C_WaitOnTXISFlagUntilTimeout>
 8001590:	4603      	mov	r3, r0
 8001592:	2b00      	cmp	r3, #0
 8001594:	d001      	beq.n	800159a <I2C_RequestMemoryWrite+0x42>
  {
    return HAL_ERROR;
 8001596:	2301      	movs	r3, #1
 8001598:	e02c      	b.n	80015f4 <I2C_RequestMemoryWrite+0x9c>
  }

  /* If Memory address size is 8Bit */
  if (MemAddSize == I2C_MEMADD_SIZE_8BIT)
 800159a:	88fb      	ldrh	r3, [r7, #6]
 800159c:	2b01      	cmp	r3, #1
 800159e:	d105      	bne.n	80015ac <I2C_RequestMemoryWrite+0x54>
  {
    /* Send Memory Address */
    hi2c->Instance->TXDR = I2C_MEM_ADD_LSB(MemAddress);
 80015a0:	893b      	ldrh	r3, [r7, #8]
 80015a2:	b2da      	uxtb	r2, r3
 80015a4:	68fb      	ldr	r3, [r7, #12]
 80015a6:	681b      	ldr	r3, [r3, #0]
 80015a8:	629a      	str	r2, [r3, #40]	; 0x28
 80015aa:	e015      	b.n	80015d8 <I2C_RequestMemoryWrite+0x80>
  }
  /* If Memory address size is 16Bit */
  else
  {
    /* Send MSB of Memory Address */
    hi2c->Instance->TXDR = I2C_MEM_ADD_MSB(MemAddress);
 80015ac:	893b      	ldrh	r3, [r7, #8]
 80015ae:	0a1b      	lsrs	r3, r3, #8
 80015b0:	b29b      	uxth	r3, r3
 80015b2:	b2da      	uxtb	r2, r3
 80015b4:	68fb      	ldr	r3, [r7, #12]
 80015b6:	681b      	ldr	r3, [r3, #0]
 80015b8:	629a      	str	r2, [r3, #40]	; 0x28

    /* Wait until TXIS flag is set */
    if (I2C_WaitOnTXISFlagUntilTimeout(hi2c, Timeout, Tickstart) != HAL_OK)
 80015ba:	69fa      	ldr	r2, [r7, #28]
 80015bc:	69b9      	ldr	r1, [r7, #24]
 80015be:	68f8      	ldr	r0, [r7, #12]
 80015c0:	f000 f891 	bl	80016e6 <I2C_WaitOnTXISFlagUntilTimeout>
 80015c4:	4603      	mov	r3, r0
 80015c6:	2b00      	cmp	r3, #0
 80015c8:	d001      	beq.n	80015ce <I2C_RequestMemoryWrite+0x76>
    {
      return HAL_ERROR;
 80015ca:	2301      	movs	r3, #1
 80015cc:	e012      	b.n	80015f4 <I2C_RequestMemoryWrite+0x9c>
    }

    /* Send LSB of Memory Address */
    hi2c->Instance->TXDR = I2C_MEM_ADD_LSB(MemAddress);
 80015ce:	893b      	ldrh	r3, [r7, #8]
 80015d0:	b2da      	uxtb	r2, r3
 80015d2:	68fb      	ldr	r3, [r7, #12]
 80015d4:	681b      	ldr	r3, [r3, #0]
 80015d6:	629a      	str	r2, [r3, #40]	; 0x28
  }

  /* Wait until TCR flag is set */
  if (I2C_WaitOnFlagUntilTimeout(hi2c, I2C_FLAG_TCR, RESET, Timeout, Tickstart) != HAL_OK)
 80015d8:	69fb      	ldr	r3, [r7, #28]
 80015da:	9300      	str	r3, [sp, #0]
 80015dc:	69bb      	ldr	r3, [r7, #24]
 80015de:	2200      	movs	r2, #0
 80015e0:	2180      	movs	r1, #128	; 0x80
 80015e2:	68f8      	ldr	r0, [r7, #12]
 80015e4:	f000 f830 	bl	8001648 <I2C_WaitOnFlagUntilTimeout>
 80015e8:	4603      	mov	r3, r0
 80015ea:	2b00      	cmp	r3, #0
 80015ec:	d001      	beq.n	80015f2 <I2C_RequestMemoryWrite+0x9a>
  {
    return HAL_ERROR;
 80015ee:	2301      	movs	r3, #1
 80015f0:	e000      	b.n	80015f4 <I2C_RequestMemoryWrite+0x9c>
  }

  return HAL_OK;
 80015f2:	2300      	movs	r3, #0
}
 80015f4:	4618      	mov	r0, r3
 80015f6:	3710      	adds	r7, #16
 80015f8:	46bd      	mov	sp, r7
 80015fa:	bd80      	pop	{r7, pc}
 80015fc:	80002000 	.word	0x80002000

08001600 <I2C_Flush_TXDR>:
  * @brief  I2C Tx data register flush process.
  * @param  hi2c I2C handle.
  * @retval None
  */
static void I2C_Flush_TXDR(I2C_HandleTypeDef *hi2c)
{
 8001600:	b480      	push	{r7}
 8001602:	b083      	sub	sp, #12
 8001604:	af00      	add	r7, sp, #0
 8001606:	6078      	str	r0, [r7, #4]
  /* If a pending TXIS flag is set */
  /* Write a dummy data in TXDR to clear it */
  if (__HAL_I2C_GET_FLAG(hi2c, I2C_FLAG_TXIS) != RESET)
 8001608:	687b      	ldr	r3, [r7, #4]
 800160a:	681b      	ldr	r3, [r3, #0]
 800160c:	699b      	ldr	r3, [r3, #24]
 800160e:	f003 0302 	and.w	r3, r3, #2
 8001612:	2b02      	cmp	r3, #2
 8001614:	d103      	bne.n	800161e <I2C_Flush_TXDR+0x1e>
  {
    hi2c->Instance->TXDR = 0x00U;
 8001616:	687b      	ldr	r3, [r7, #4]
 8001618:	681b      	ldr	r3, [r3, #0]
 800161a:	2200      	movs	r2, #0
 800161c:	629a      	str	r2, [r3, #40]	; 0x28
  }

  /* Flush TX register if not empty */
  if (__HAL_I2C_GET_FLAG(hi2c, I2C_FLAG_TXE) == RESET)
 800161e:	687b      	ldr	r3, [r7, #4]
 8001620:	681b      	ldr	r3, [r3, #0]
 8001622:	699b      	ldr	r3, [r3, #24]
 8001624:	f003 0301 	and.w	r3, r3, #1
 8001628:	2b01      	cmp	r3, #1
 800162a:	d007      	beq.n	800163c <I2C_Flush_TXDR+0x3c>
  {
    __HAL_I2C_CLEAR_FLAG(hi2c, I2C_FLAG_TXE);
 800162c:	687b      	ldr	r3, [r7, #4]
 800162e:	681b      	ldr	r3, [r3, #0]
 8001630:	699a      	ldr	r2, [r3, #24]
 8001632:	687b      	ldr	r3, [r7, #4]
 8001634:	681b      	ldr	r3, [r3, #0]
 8001636:	f042 0201 	orr.w	r2, r2, #1
 800163a:	619a      	str	r2, [r3, #24]
  }
}
 800163c:	bf00      	nop
 800163e:	370c      	adds	r7, #12
 8001640:	46bd      	mov	sp, r7
 8001642:	f85d 7b04 	ldr.w	r7, [sp], #4
 8001646:	4770      	bx	lr

08001648 <I2C_WaitOnFlagUntilTimeout>:
  * @param  Tickstart Tick start value
  * @retval HAL status
  */
static HAL_StatusTypeDef I2C_WaitOnFlagUntilTimeout(I2C_HandleTypeDef *hi2c, uint32_t Flag, FlagStatus Status,
                                                    uint32_t Timeout, uint32_t Tickstart)
{
 8001648:	b580      	push	{r7, lr}
 800164a:	b084      	sub	sp, #16
 800164c:	af00      	add	r7, sp, #0
 800164e:	60f8      	str	r0, [r7, #12]
 8001650:	60b9      	str	r1, [r7, #8]
 8001652:	603b      	str	r3, [r7, #0]
 8001654:	4613      	mov	r3, r2
 8001656:	71fb      	strb	r3, [r7, #7]
  while (__HAL_I2C_GET_FLAG(hi2c, Flag) == Status)
 8001658:	e031      	b.n	80016be <I2C_WaitOnFlagUntilTimeout+0x76>
  {
    /* Check for the Timeout */
    if (Timeout != HAL_MAX_DELAY)
 800165a:	683b      	ldr	r3, [r7, #0]
 800165c:	f1b3 3fff 	cmp.w	r3, #4294967295
 8001660:	d02d      	beq.n	80016be <I2C_WaitOnFlagUntilTimeout+0x76>
    {
      if (((HAL_GetTick() - Tickstart) > Timeout) || (Timeout == 0U))
 8001662:	f7ff fb35 	bl	8000cd0 <HAL_GetTick>
 8001666:	4602      	mov	r2, r0
 8001668:	69bb      	ldr	r3, [r7, #24]
 800166a:	1ad3      	subs	r3, r2, r3
 800166c:	683a      	ldr	r2, [r7, #0]
 800166e:	429a      	cmp	r2, r3
 8001670:	d302      	bcc.n	8001678 <I2C_WaitOnFlagUntilTimeout+0x30>
 8001672:	683b      	ldr	r3, [r7, #0]
 8001674:	2b00      	cmp	r3, #0
 8001676:	d122      	bne.n	80016be <I2C_WaitOnFlagUntilTimeout+0x76>
      {
        if ((__HAL_I2C_GET_FLAG(hi2c, Flag) == Status))
 8001678:	68fb      	ldr	r3, [r7, #12]
 800167a:	681b      	ldr	r3, [r3, #0]
 800167c:	699a      	ldr	r2, [r3, #24]
 800167e:	68bb      	ldr	r3, [r7, #8]
 8001680:	4013      	ands	r3, r2
 8001682:	68ba      	ldr	r2, [r7, #8]
 8001684:	429a      	cmp	r2, r3
 8001686:	bf0c      	ite	eq
 8001688:	2301      	moveq	r3, #1
 800168a:	2300      	movne	r3, #0
 800168c:	b2db      	uxtb	r3, r3
 800168e:	461a      	mov	r2, r3
 8001690:	79fb      	ldrb	r3, [r7, #7]
 8001692:	429a      	cmp	r2, r3
 8001694:	d113      	bne.n	80016be <I2C_WaitOnFlagUntilTimeout+0x76>
        {
          hi2c->ErrorCode |= HAL_I2C_ERROR_TIMEOUT;
 8001696:	68fb      	ldr	r3, [r7, #12]
 8001698:	6c5b      	ldr	r3, [r3, #68]	; 0x44
 800169a:	f043 0220 	orr.w	r2, r3, #32
 800169e:	68fb      	ldr	r3, [r7, #12]
 80016a0:	645a      	str	r2, [r3, #68]	; 0x44
          hi2c->State = HAL_I2C_STATE_READY;
 80016a2:	68fb      	ldr	r3, [r7, #12]
 80016a4:	2220      	movs	r2, #32
 80016a6:	f883 2041 	strb.w	r2, [r3, #65]	; 0x41
          hi2c->Mode = HAL_I2C_MODE_NONE;
 80016aa:	68fb      	ldr	r3, [r7, #12]
 80016ac:	2200      	movs	r2, #0
 80016ae:	f883 2042 	strb.w	r2, [r3, #66]	; 0x42

          /* Process Unlocked */
          __HAL_UNLOCK(hi2c);
 80016b2:	68fb      	ldr	r3, [r7, #12]
 80016b4:	2200      	movs	r2, #0
 80016b6:	f883 2040 	strb.w	r2, [r3, #64]	; 0x40
          return HAL_ERROR;
 80016ba:	2301      	movs	r3, #1
 80016bc:	e00f      	b.n	80016de <I2C_WaitOnFlagUntilTimeout+0x96>
  while (__HAL_I2C_GET_FLAG(hi2c, Flag) == Status)
 80016be:	68fb      	ldr	r3, [r7, #12]
 80016c0:	681b      	ldr	r3, [r3, #0]
 80016c2:	699a      	ldr	r2, [r3, #24]
 80016c4:	68bb      	ldr	r3, [r7, #8]
 80016c6:	4013      	ands	r3, r2
 80016c8:	68ba      	ldr	r2, [r7, #8]
 80016ca:	429a      	cmp	r2, r3
 80016cc:	bf0c      	ite	eq
 80016ce:	2301      	moveq	r3, #1
 80016d0:	2300      	movne	r3, #0
 80016d2:	b2db      	uxtb	r3, r3
 80016d4:	461a      	mov	r2, r3
 80016d6:	79fb      	ldrb	r3, [r7, #7]
 80016d8:	429a      	cmp	r2, r3
 80016da:	d0be      	beq.n	800165a <I2C_WaitOnFlagUntilTimeout+0x12>
        }
      }
    }
  }
  return HAL_OK;
 80016dc:	2300      	movs	r3, #0
}
 80016de:	4618      	mov	r0, r3
 80016e0:	3710      	adds	r7, #16
 80016e2:	46bd      	mov	sp, r7
 80016e4:	bd80      	pop	{r7, pc}

080016e6 <I2C_WaitOnTXISFlagUntilTimeout>:
  * @param  Tickstart Tick start value
  * @retval HAL status
  */
static HAL_StatusTypeDef I2C_WaitOnTXISFlagUntilTimeout(I2C_HandleTypeDef *hi2c, uint32_t Timeout,
                                                        uint32_t Tickstart)
{
 80016e6:	b580      	push	{r7, lr}
 80016e8:	b084      	sub	sp, #16
 80016ea:	af00      	add	r7, sp, #0
 80016ec:	60f8      	str	r0, [r7, #12]
 80016ee:	60b9      	str	r1, [r7, #8]
 80016f0:	607a      	str	r2, [r7, #4]
  while (__HAL_I2C_GET_FLAG(hi2c, I2C_FLAG_TXIS) == RESET)
 80016f2:	e033      	b.n	800175c <I2C_WaitOnTXISFlagUntilTimeout+0x76>
  {
    /* Check if an error is detected */
    if (I2C_IsErrorOccurred(hi2c, Timeout, Tickstart) != HAL_OK)
 80016f4:	687a      	ldr	r2, [r7, #4]
 80016f6:	68b9      	ldr	r1, [r7, #8]
 80016f8:	68f8      	ldr	r0, [r7, #12]
 80016fa:	f000 f87f 	bl	80017fc <I2C_IsErrorOccurred>
 80016fe:	4603      	mov	r3, r0
 8001700:	2b00      	cmp	r3, #0
 8001702:	d001      	beq.n	8001708 <I2C_WaitOnTXISFlagUntilTimeout+0x22>
    {
      return HAL_ERROR;
 8001704:	2301      	movs	r3, #1
 8001706:	e031      	b.n	800176c <I2C_WaitOnTXISFlagUntilTimeout+0x86>
    }

    /* Check for the Timeout */
    if (Timeout != HAL_MAX_DELAY)
 8001708:	68bb      	ldr	r3, [r7, #8]
 800170a:	f1b3 3fff 	cmp.w	r3, #4294967295
 800170e:	d025      	beq.n	800175c <I2C_WaitOnTXISFlagUntilTimeout+0x76>
    {
      if (((HAL_GetTick() - Tickstart) > Timeout) || (Timeout == 0U))
 8001710:	f7ff fade 	bl	8000cd0 <HAL_GetTick>
 8001714:	4602      	mov	r2, r0
 8001716:	687b      	ldr	r3, [r7, #4]
 8001718:	1ad3      	subs	r3, r2, r3
 800171a:	68ba      	ldr	r2, [r7, #8]
 800171c:	429a      	cmp	r2, r3
 800171e:	d302      	bcc.n	8001726 <I2C_WaitOnTXISFlagUntilTimeout+0x40>
 8001720:	68bb      	ldr	r3, [r7, #8]
 8001722:	2b00      	cmp	r3, #0
 8001724:	d11a      	bne.n	800175c <I2C_WaitOnTXISFlagUntilTimeout+0x76>
      {
        if ((__HAL_I2C_GET_FLAG(hi2c, I2C_FLAG_TXIS) == RESET))
 8001726:	68fb      	ldr	r3, [r7, #12]
 8001728:	681b      	ldr	r3, [r3, #0]
 800172a:	699b      	ldr	r3, [r3, #24]
 800172c:	f003 0302 	and.w	r3, r3, #2
 8001730:	2b02      	cmp	r3, #2
 8001732:	d013      	beq.n	800175c <I2C_WaitOnTXISFlagUntilTimeout+0x76>
        {
          hi2c->ErrorCode |= HAL_I2C_ERROR_TIMEOUT;
 8001734:	68fb      	ldr	r3, [r7, #12]
 8001736:	6c5b      	ldr	r3, [r3, #68]	; 0x44
 8001738:	f043 0220 	orr.w	r2, r3, #32
 800173c:	68fb      	ldr	r3, [r7, #12]
 800173e:	645a      	str	r2, [r3, #68]	; 0x44
          hi2c->State = HAL_I2C_STATE_READY;
 8001740:	68fb      	ldr	r3, [r7, #12]
 8001742:	2220      	movs	r2, #32
 8001744:	f883 2041 	strb.w	r2, [r3, #65]	; 0x41
          hi2c->Mode = HAL_I2C_MODE_NONE;
 8001748:	68fb      	ldr	r3, [r7, #12]
 800174a:	2200      	movs	r2, #0
 800174c:	f883 2042 	strb.w	r2, [r3, #66]	; 0x42

          /* Process Unlocked */
          __HAL_UNLOCK(hi2c);
 8001750:	68fb      	ldr	r3, [r7, #12]
 8001752:	2200      	movs	r2, #0
 8001754:	f883 2040 	strb.w	r2, [r3, #64]	; 0x40

          return HAL_ERROR;
 8001758:	2301      	movs	r3, #1
 800175a:	e007      	b.n	800176c <I2C_WaitOnTXISFlagUntilTimeout+0x86>
  while (__HAL_I2C_GET_FLAG(hi2c, I2C_FLAG_TXIS) == RESET)
 800175c:	68fb      	ldr	r3, [r7, #12]
 800175e:	681b      	ldr	r3, [r3, #0]
 8001760:	699b      	ldr	r3, [r3, #24]
 8001762:	f003 0302 	and.w	r3, r3, #2
 8001766:	2b02      	cmp	r3, #2
 8001768:	d1c4      	bne.n	80016f4 <I2C_WaitOnTXISFlagUntilTimeout+0xe>
        }
      }
    }
  }
  return HAL_OK;
 800176a:	2300      	movs	r3, #0
}
 800176c:	4618      	mov	r0, r3
 800176e:	3710      	adds	r7, #16
 8001770:	46bd      	mov	sp, r7
 8001772:	bd80      	pop	{r7, pc}

08001774 <I2C_WaitOnSTOPFlagUntilTimeout>:
  * @param  Tickstart Tick start value
  * @retval HAL status
  */
static HAL_StatusTypeDef I2C_WaitOnSTOPFlagUntilTimeout(I2C_HandleTypeDef *hi2c, uint32_t Timeout,
                                                        uint32_t Tickstart)
{
 8001774:	b580      	push	{r7, lr}
 8001776:	b084      	sub	sp, #16
 8001778:	af00      	add	r7, sp, #0
 800177a:	60f8      	str	r0, [r7, #12]
 800177c:	60b9      	str	r1, [r7, #8]
 800177e:	607a      	str	r2, [r7, #4]
  while (__HAL_I2C_GET_FLAG(hi2c, I2C_FLAG_STOPF) == RESET)
 8001780:	e02f      	b.n	80017e2 <I2C_WaitOnSTOPFlagUntilTimeout+0x6e>
  {
    /* Check if an error is detected */
    if (I2C_IsErrorOccurred(hi2c, Timeout, Tickstart) != HAL_OK)
 8001782:	687a      	ldr	r2, [r7, #4]
 8001784:	68b9      	ldr	r1, [r7, #8]
 8001786:	68f8      	ldr	r0, [r7, #12]
 8001788:	f000 f838 	bl	80017fc <I2C_IsErrorOccurred>
 800178c:	4603      	mov	r3, r0
 800178e:	2b00      	cmp	r3, #0
 8001790:	d001      	beq.n	8001796 <I2C_WaitOnSTOPFlagUntilTimeout+0x22>
    {
      return HAL_ERROR;
 8001792:	2301      	movs	r3, #1
 8001794:	e02d      	b.n	80017f2 <I2C_WaitOnSTOPFlagUntilTimeout+0x7e>
    }

    /* Check for the Timeout */
    if (((HAL_GetTick() - Tickstart) > Timeout) || (Timeout == 0U))
 8001796:	f7ff fa9b 	bl	8000cd0 <HAL_GetTick>
 800179a:	4602      	mov	r2, r0
 800179c:	687b      	ldr	r3, [r7, #4]
 800179e:	1ad3      	subs	r3, r2, r3
 80017a0:	68ba      	ldr	r2, [r7, #8]
 80017a2:	429a      	cmp	r2, r3
 80017a4:	d302      	bcc.n	80017ac <I2C_WaitOnSTOPFlagUntilTimeout+0x38>
 80017a6:	68bb      	ldr	r3, [r7, #8]
 80017a8:	2b00      	cmp	r3, #0
 80017aa:	d11a      	bne.n	80017e2 <I2C_WaitOnSTOPFlagUntilTimeout+0x6e>
    {
      if ((__HAL_I2C_GET_FLAG(hi2c, I2C_FLAG_STOPF) == RESET))
 80017ac:	68fb      	ldr	r3, [r7, #12]
 80017ae:	681b      	ldr	r3, [r3, #0]
 80017b0:	699b      	ldr	r3, [r3, #24]
 80017b2:	f003 0320 	and.w	r3, r3, #32
 80017b6:	2b20      	cmp	r3, #32
 80017b8:	d013      	beq.n	80017e2 <I2C_WaitOnSTOPFlagUntilTimeout+0x6e>
      {
        hi2c->ErrorCode |= HAL_I2C_ERROR_TIMEOUT;
 80017ba:	68fb      	ldr	r3, [r7, #12]
 80017bc:	6c5b      	ldr	r3, [r3, #68]	; 0x44
 80017be:	f043 0220 	orr.w	r2, r3, #32
 80017c2:	68fb      	ldr	r3, [r7, #12]
 80017c4:	645a      	str	r2, [r3, #68]	; 0x44
        hi2c->State = HAL_I2C_STATE_READY;
 80017c6:	68fb      	ldr	r3, [r7, #12]
 80017c8:	2220      	movs	r2, #32
 80017ca:	f883 2041 	strb.w	r2, [r3, #65]	; 0x41
        hi2c->Mode = HAL_I2C_MODE_NONE;
 80017ce:	68fb      	ldr	r3, [r7, #12]
 80017d0:	2200      	movs	r2, #0
 80017d2:	f883 2042 	strb.w	r2, [r3, #66]	; 0x42

        /* Process Unlocked */
        __HAL_UNLOCK(hi2c);
 80017d6:	68fb      	ldr	r3, [r7, #12]
 80017d8:	2200      	movs	r2, #0
 80017da:	f883 2040 	strb.w	r2, [r3, #64]	; 0x40

        return HAL_ERROR;
 80017de:	2301      	movs	r3, #1
 80017e0:	e007      	b.n	80017f2 <I2C_WaitOnSTOPFlagUntilTimeout+0x7e>
  while (__HAL_I2C_GET_FLAG(hi2c, I2C_FLAG_STOPF) == RESET)
 80017e2:	68fb      	ldr	r3, [r7, #12]
 80017e4:	681b      	ldr	r3, [r3, #0]
 80017e6:	699b      	ldr	r3, [r3, #24]
 80017e8:	f003 0320 	and.w	r3, r3, #32
 80017ec:	2b20      	cmp	r3, #32
 80017ee:	d1c8      	bne.n	8001782 <I2C_WaitOnSTOPFlagUntilTimeout+0xe>
      }
    }
  }
  return HAL_OK;
 80017f0:	2300      	movs	r3, #0
}
 80017f2:	4618      	mov	r0, r3
 80017f4:	3710      	adds	r7, #16
 80017f6:	46bd      	mov	sp, r7
 80017f8:	bd80      	pop	{r7, pc}
	...

080017fc <I2C_IsErrorOccurred>:
  * @param  Timeout Timeout duration
  * @param  Tickstart Tick start value
  * @retval HAL status
  */
static HAL_StatusTypeDef I2C_IsErrorOccurred(I2C_HandleTypeDef *hi2c, uint32_t Timeout, uint32_t Tickstart)
{
 80017fc:	b580      	push	{r7, lr}
 80017fe:	b08a      	sub	sp, #40	; 0x28
 8001800:	af00      	add	r7, sp, #0
 8001802:	60f8      	str	r0, [r7, #12]
 8001804:	60b9      	str	r1, [r7, #8]
 8001806:	607a      	str	r2, [r7, #4]
  HAL_StatusTypeDef status = HAL_OK;
 8001808:	2300      	movs	r3, #0
 800180a:	f887 3027 	strb.w	r3, [r7, #39]	; 0x27
  uint32_t itflag   = hi2c->Instance->ISR;
 800180e:	68fb      	ldr	r3, [r7, #12]
 8001810:	681b      	ldr	r3, [r3, #0]
 8001812:	699b      	ldr	r3, [r3, #24]
 8001814:	61bb      	str	r3, [r7, #24]
  uint32_t error_code = 0;
 8001816:	2300      	movs	r3, #0
 8001818:	623b      	str	r3, [r7, #32]
  uint32_t tickstart = Tickstart;
 800181a:	687b      	ldr	r3, [r7, #4]
 800181c:	61fb      	str	r3, [r7, #28]
  uint32_t tmp1;
  HAL_I2C_ModeTypeDef tmp2;

  if (HAL_IS_BIT_SET(itflag, I2C_FLAG_AF))
 800181e:	69bb      	ldr	r3, [r7, #24]
 8001820:	f003 0310 	and.w	r3, r3, #16
 8001824:	2b00      	cmp	r3, #0
 8001826:	d068      	beq.n	80018fa <I2C_IsErrorOccurred+0xfe>
  {
    /* Clear NACKF Flag */
    __HAL_I2C_CLEAR_FLAG(hi2c, I2C_FLAG_AF);
 8001828:	68fb      	ldr	r3, [r7, #12]
 800182a:	681b      	ldr	r3, [r3, #0]
 800182c:	2210      	movs	r2, #16
 800182e:	61da      	str	r2, [r3, #28]

    /* Wait until STOP Flag is set or timeout occurred */
    /* AutoEnd should be initiate after AF */
    while ((__HAL_I2C_GET_FLAG(hi2c, I2C_FLAG_STOPF) == RESET) && (status == HAL_OK))
 8001830:	e049      	b.n	80018c6 <I2C_IsErrorOccurred+0xca>
    {
      /* Check for the Timeout */
      if (Timeout != HAL_MAX_DELAY)
 8001832:	68bb      	ldr	r3, [r7, #8]
 8001834:	f1b3 3fff 	cmp.w	r3, #4294967295
 8001838:	d045      	beq.n	80018c6 <I2C_IsErrorOccurred+0xca>
      {
        if (((HAL_GetTick() - tickstart) > Timeout) || (Timeout == 0U))
 800183a:	f7ff fa49 	bl	8000cd0 <HAL_GetTick>
 800183e:	4602      	mov	r2, r0
 8001840:	69fb      	ldr	r3, [r7, #28]
 8001842:	1ad3      	subs	r3, r2, r3
 8001844:	68ba      	ldr	r2, [r7, #8]
 8001846:	429a      	cmp	r2, r3
 8001848:	d302      	bcc.n	8001850 <I2C_IsErrorOccurred+0x54>
 800184a:	68bb      	ldr	r3, [r7, #8]
 800184c:	2b00      	cmp	r3, #0
 800184e:	d13a      	bne.n	80018c6 <I2C_IsErrorOccurred+0xca>
        {
          tmp1 = (uint32_t)(hi2c->Instance->CR2 & I2C_CR2_STOP);
 8001850:	68fb      	ldr	r3, [r7, #12]
 8001852:	681b      	ldr	r3, [r3, #0]
 8001854:	685b      	ldr	r3, [r3, #4]
 8001856:	f403 4380 	and.w	r3, r3, #16384	; 0x4000
 800185a:	617b      	str	r3, [r7, #20]
          tmp2 = hi2c->Mode;
 800185c:	68fb      	ldr	r3, [r7, #12]
 800185e:	f893 3042 	ldrb.w	r3, [r3, #66]	; 0x42
 8001862:	74fb      	strb	r3, [r7, #19]

          /* In case of I2C still busy, try to regenerate a STOP manually */
          if ((__HAL_I2C_GET_FLAG(hi2c, I2C_FLAG_BUSY) != RESET) && \
 8001864:	68fb      	ldr	r3, [r7, #12]
 8001866:	681b      	ldr	r3, [r3, #0]
 8001868:	699b      	ldr	r3, [r3, #24]
 800186a:	f403 4300 	and.w	r3, r3, #32768	; 0x8000
 800186e:	f5b3 4f00 	cmp.w	r3, #32768	; 0x8000
 8001872:	d121      	bne.n	80018b8 <I2C_IsErrorOccurred+0xbc>
 8001874:	697b      	ldr	r3, [r7, #20]
 8001876:	f5b3 4f80 	cmp.w	r3, #16384	; 0x4000
 800187a:	d01d      	beq.n	80018b8 <I2C_IsErrorOccurred+0xbc>
              (tmp1 != I2C_CR2_STOP) && \
 800187c:	7cfb      	ldrb	r3, [r7, #19]
 800187e:	2b20      	cmp	r3, #32
 8001880:	d01a      	beq.n	80018b8 <I2C_IsErrorOccurred+0xbc>
              (tmp2 != HAL_I2C_MODE_SLAVE))
          {
            /* Generate Stop */
            hi2c->Instance->CR2 |= I2C_CR2_STOP;
 8001882:	68fb      	ldr	r3, [r7, #12]
 8001884:	681b      	ldr	r3, [r3, #0]
 8001886:	685a      	ldr	r2, [r3, #4]
 8001888:	68fb      	ldr	r3, [r7, #12]
 800188a:	681b      	ldr	r3, [r3, #0]
 800188c:	f442 4280 	orr.w	r2, r2, #16384	; 0x4000
 8001890:	605a      	str	r2, [r3, #4]

            /* Update Tick with new reference */
            tickstart = HAL_GetTick();
 8001892:	f7ff fa1d 	bl	8000cd0 <HAL_GetTick>
 8001896:	61f8      	str	r0, [r7, #28]
          }

          while (__HAL_I2C_GET_FLAG(hi2c, I2C_FLAG_STOPF) == RESET)
 8001898:	e00e      	b.n	80018b8 <I2C_IsErrorOccurred+0xbc>
          {
            /* Check for the Timeout */
            if ((HAL_GetTick() - tickstart) > I2C_TIMEOUT_STOPF)
 800189a:	f7ff fa19 	bl	8000cd0 <HAL_GetTick>
 800189e:	4602      	mov	r2, r0
 80018a0:	69fb      	ldr	r3, [r7, #28]
 80018a2:	1ad3      	subs	r3, r2, r3
 80018a4:	2b19      	cmp	r3, #25
 80018a6:	d907      	bls.n	80018b8 <I2C_IsErrorOccurred+0xbc>
            {
              error_code |= HAL_I2C_ERROR_TIMEOUT;
 80018a8:	6a3b      	ldr	r3, [r7, #32]
 80018aa:	f043 0320 	orr.w	r3, r3, #32
 80018ae:	623b      	str	r3, [r7, #32]

              status = HAL_ERROR;
 80018b0:	2301      	movs	r3, #1
 80018b2:	f887 3027 	strb.w	r3, [r7, #39]	; 0x27

              break;
 80018b6:	e006      	b.n	80018c6 <I2C_IsErrorOccurred+0xca>
          while (__HAL_I2C_GET_FLAG(hi2c, I2C_FLAG_STOPF) == RESET)
 80018b8:	68fb      	ldr	r3, [r7, #12]
 80018ba:	681b      	ldr	r3, [r3, #0]
 80018bc:	699b      	ldr	r3, [r3, #24]
 80018be:	f003 0320 	and.w	r3, r3, #32
 80018c2:	2b20      	cmp	r3, #32
 80018c4:	d1e9      	bne.n	800189a <I2C_IsErrorOccurred+0x9e>
    while ((__HAL_I2C_GET_FLAG(hi2c, I2C_FLAG_STOPF) == RESET) && (status == HAL_OK))
 80018c6:	68fb      	ldr	r3, [r7, #12]
 80018c8:	681b      	ldr	r3, [r3, #0]
 80018ca:	699b      	ldr	r3, [r3, #24]
 80018cc:	f003 0320 	and.w	r3, r3, #32
 80018d0:	2b20      	cmp	r3, #32
 80018d2:	d003      	beq.n	80018dc <I2C_IsErrorOccurred+0xe0>
 80018d4:	f897 3027 	ldrb.w	r3, [r7, #39]	; 0x27
 80018d8:	2b00      	cmp	r3, #0
 80018da:	d0aa      	beq.n	8001832 <I2C_IsErrorOccurred+0x36>
        }
      }
    }

    /* In case STOP Flag is detected, clear it */
    if (status == HAL_OK)
 80018dc:	f897 3027 	ldrb.w	r3, [r7, #39]	; 0x27
 80018e0:	2b00      	cmp	r3, #0
 80018e2:	d103      	bne.n	80018ec <I2C_IsErrorOccurred+0xf0>
    {
      /* Clear STOP Flag */
      __HAL_I2C_CLEAR_FLAG(hi2c, I2C_FLAG_STOPF);
 80018e4:	68fb      	ldr	r3, [r7, #12]
 80018e6:	681b      	ldr	r3, [r3, #0]
 80018e8:	2220      	movs	r2, #32
 80018ea:	61da      	str	r2, [r3, #28]
    }

    error_code |= HAL_I2C_ERROR_AF;
 80018ec:	6a3b      	ldr	r3, [r7, #32]
 80018ee:	f043 0304 	orr.w	r3, r3, #4
 80018f2:	623b      	str	r3, [r7, #32]

    status = HAL_ERROR;
 80018f4:	2301      	movs	r3, #1
 80018f6:	f887 3027 	strb.w	r3, [r7, #39]	; 0x27
  }

  /* Refresh Content of Status register */
  itflag = hi2c->Instance->ISR;
 80018fa:	68fb      	ldr	r3, [r7, #12]
 80018fc:	681b      	ldr	r3, [r3, #0]
 80018fe:	699b      	ldr	r3, [r3, #24]
 8001900:	61bb      	str	r3, [r7, #24]

  /* Then verify if an additional errors occurs */
  /* Check if a Bus error occurred */
  if (HAL_IS_BIT_SET(itflag, I2C_FLAG_BERR))
 8001902:	69bb      	ldr	r3, [r7, #24]
 8001904:	f403 7380 	and.w	r3, r3, #256	; 0x100
 8001908:	2b00      	cmp	r3, #0
 800190a:	d00b      	beq.n	8001924 <I2C_IsErrorOccurred+0x128>
  {
    error_code |= HAL_I2C_ERROR_BERR;
 800190c:	6a3b      	ldr	r3, [r7, #32]
 800190e:	f043 0301 	orr.w	r3, r3, #1
 8001912:	623b      	str	r3, [r7, #32]

    /* Clear BERR flag */
    __HAL_I2C_CLEAR_FLAG(hi2c, I2C_FLAG_BERR);
 8001914:	68fb      	ldr	r3, [r7, #12]
 8001916:	681b      	ldr	r3, [r3, #0]
 8001918:	f44f 7280 	mov.w	r2, #256	; 0x100
 800191c:	61da      	str	r2, [r3, #28]

    status = HAL_ERROR;
 800191e:	2301      	movs	r3, #1
 8001920:	f887 3027 	strb.w	r3, [r7, #39]	; 0x27
  }

  /* Check if an Over-Run/Under-Run error occurred */
  if (HAL_IS_BIT_SET(itflag, I2C_FLAG_OVR))
 8001924:	69bb      	ldr	r3, [r7, #24]
 8001926:	f403 6380 	and.w	r3, r3, #1024	; 0x400
 800192a:	2b00      	cmp	r3, #0
 800192c:	d00b      	beq.n	8001946 <I2C_IsErrorOccurred+0x14a>
  {
    error_code |= HAL_I2C_ERROR_OVR;
 800192e:	6a3b      	ldr	r3, [r7, #32]
 8001930:	f043 0308 	orr.w	r3, r3, #8
 8001934:	623b      	str	r3, [r7, #32]

    /* Clear OVR flag */
    __HAL_I2C_CLEAR_FLAG(hi2c, I2C_FLAG_OVR);
 8001936:	68fb      	ldr	r3, [r7, #12]
 8001938:	681b      	ldr	r3, [r3, #0]
 800193a:	f44f 6280 	mov.w	r2, #1024	; 0x400
 800193e:	61da      	str	r2, [r3, #28]

    status = HAL_ERROR;
 8001940:	2301      	movs	r3, #1
 8001942:	f887 3027 	strb.w	r3, [r7, #39]	; 0x27
  }

  /* Check if an Arbitration Loss error occurred */
  if (HAL_IS_BIT_SET(itflag, I2C_FLAG_ARLO))
 8001946:	69bb      	ldr	r3, [r7, #24]
 8001948:	f403 7300 	and.w	r3, r3, #512	; 0x200
 800194c:	2b00      	cmp	r3, #0
 800194e:	d00b      	beq.n	8001968 <I2C_IsErrorOccurred+0x16c>
  {
    error_code |= HAL_I2C_ERROR_ARLO;
 8001950:	6a3b      	ldr	r3, [r7, #32]
 8001952:	f043 0302 	orr.w	r3, r3, #2
 8001956:	623b      	str	r3, [r7, #32]

    /* Clear ARLO flag */
    __HAL_I2C_CLEAR_FLAG(hi2c, I2C_FLAG_ARLO);
 8001958:	68fb      	ldr	r3, [r7, #12]
 800195a:	681b      	ldr	r3, [r3, #0]
 800195c:	f44f 7200 	mov.w	r2, #512	; 0x200
 8001960:	61da      	str	r2, [r3, #28]

    status = HAL_ERROR;
 8001962:	2301      	movs	r3, #1
 8001964:	f887 3027 	strb.w	r3, [r7, #39]	; 0x27
  }

  if (status != HAL_OK)
 8001968:	f897 3027 	ldrb.w	r3, [r7, #39]	; 0x27
 800196c:	2b00      	cmp	r3, #0
 800196e:	d01c      	beq.n	80019aa <I2C_IsErrorOccurred+0x1ae>
  {
    /* Flush TX register */
    I2C_Flush_TXDR(hi2c);
 8001970:	68f8      	ldr	r0, [r7, #12]
 8001972:	f7ff fe45 	bl	8001600 <I2C_Flush_TXDR>

    /* Clear Configuration Register 2 */
    I2C_RESET_CR2(hi2c);
 8001976:	68fb      	ldr	r3, [r7, #12]
 8001978:	681b      	ldr	r3, [r3, #0]
 800197a:	6859      	ldr	r1, [r3, #4]
 800197c:	68fb      	ldr	r3, [r7, #12]
 800197e:	681a      	ldr	r2, [r3, #0]
 8001980:	4b0d      	ldr	r3, [pc, #52]	; (80019b8 <I2C_IsErrorOccurred+0x1bc>)
 8001982:	400b      	ands	r3, r1
 8001984:	6053      	str	r3, [r2, #4]

    hi2c->ErrorCode |= error_code;
 8001986:	68fb      	ldr	r3, [r7, #12]
 8001988:	6c5a      	ldr	r2, [r3, #68]	; 0x44
 800198a:	6a3b      	ldr	r3, [r7, #32]
 800198c:	431a      	orrs	r2, r3
 800198e:	68fb      	ldr	r3, [r7, #12]
 8001990:	645a      	str	r2, [r3, #68]	; 0x44
    hi2c->State = HAL_I2C_STATE_READY;
 8001992:	68fb      	ldr	r3, [r7, #12]
 8001994:	2220      	movs	r2, #32
 8001996:	f883 2041 	strb.w	r2, [r3, #65]	; 0x41
    hi2c->Mode = HAL_I2C_MODE_NONE;
 800199a:	68fb      	ldr	r3, [r7, #12]
 800199c:	2200      	movs	r2, #0
 800199e:	f883 2042 	strb.w	r2, [r3, #66]	; 0x42

    /* Process Unlocked */
    __HAL_UNLOCK(hi2c);
 80019a2:	68fb      	ldr	r3, [r7, #12]
 80019a4:	2200      	movs	r2, #0
 80019a6:	f883 2040 	strb.w	r2, [r3, #64]	; 0x40
  }

  return status;
 80019aa:	f897 3027 	ldrb.w	r3, [r7, #39]	; 0x27
}
 80019ae:	4618      	mov	r0, r3
 80019b0:	3728      	adds	r7, #40	; 0x28
 80019b2:	46bd      	mov	sp, r7
 80019b4:	bd80      	pop	{r7, pc}
 80019b6:	bf00      	nop
 80019b8:	fe00e800 	.word	0xfe00e800

080019bc <I2C_TransferConfig>:
  *     @arg @ref I2C_GENERATE_START_WRITE Generate Restart for write request.
  * @retval None
  */
static void I2C_TransferConfig(I2C_HandleTypeDef *hi2c, uint16_t DevAddress, uint8_t Size, uint32_t Mode,
                               uint32_t Request)
{
 80019bc:	b480      	push	{r7}
 80019be:	b087      	sub	sp, #28
 80019c0:	af00      	add	r7, sp, #0
 80019c2:	60f8      	str	r0, [r7, #12]
 80019c4:	607b      	str	r3, [r7, #4]
 80019c6:	460b      	mov	r3, r1
 80019c8:	817b      	strh	r3, [r7, #10]
 80019ca:	4613      	mov	r3, r2
 80019cc:	727b      	strb	r3, [r7, #9]
  assert_param(IS_I2C_ALL_INSTANCE(hi2c->Instance));
  assert_param(IS_TRANSFER_MODE(Mode));
  assert_param(IS_TRANSFER_REQUEST(Request));

  /* Declaration of tmp to prevent undefined behavior of volatile usage */
  uint32_t tmp = ((uint32_t)(((uint32_t)DevAddress & I2C_CR2_SADD) | \
 80019ce:	897b      	ldrh	r3, [r7, #10]
 80019d0:	f3c3 0209 	ubfx	r2, r3, #0, #10
                             (((uint32_t)Size << I2C_CR2_NBYTES_Pos) & I2C_CR2_NBYTES) | \
 80019d4:	7a7b      	ldrb	r3, [r7, #9]
 80019d6:	041b      	lsls	r3, r3, #16
 80019d8:	f403 037f 	and.w	r3, r3, #16711680	; 0xff0000
  uint32_t tmp = ((uint32_t)(((uint32_t)DevAddress & I2C_CR2_SADD) | \
 80019dc:	431a      	orrs	r2, r3
                             (((uint32_t)Size << I2C_CR2_NBYTES_Pos) & I2C_CR2_NBYTES) | \
 80019de:	687b      	ldr	r3, [r7, #4]
 80019e0:	431a      	orrs	r2, r3
  uint32_t tmp = ((uint32_t)(((uint32_t)DevAddress & I2C_CR2_SADD) | \
 80019e2:	6a3b      	ldr	r3, [r7, #32]
 80019e4:	4313      	orrs	r3, r2
 80019e6:	f023 4300 	bic.w	r3, r3, #2147483648	; 0x80000000
 80019ea:	617b      	str	r3, [r7, #20]
                             (uint32_t)Mode | (uint32_t)Request) & (~0x80000000U));

  /* update CR2 register */
  MODIFY_REG(hi2c->Instance->CR2, \
 80019ec:	68fb      	ldr	r3, [r7, #12]
 80019ee:	681b      	ldr	r3, [r3, #0]
 80019f0:	685a      	ldr	r2, [r3, #4]
 80019f2:	6a3b      	ldr	r3, [r7, #32]
 80019f4:	0d5b      	lsrs	r3, r3, #21
 80019f6:	f403 6180 	and.w	r1, r3, #1024	; 0x400
 80019fa:	4b08      	ldr	r3, [pc, #32]	; (8001a1c <I2C_TransferConfig+0x60>)
 80019fc:	430b      	orrs	r3, r1
 80019fe:	43db      	mvns	r3, r3
 8001a00:	ea02 0103 	and.w	r1, r2, r3
 8001a04:	68fb      	ldr	r3, [r7, #12]
 8001a06:	681b      	ldr	r3, [r3, #0]
 8001a08:	697a      	ldr	r2, [r7, #20]
 8001a0a:	430a      	orrs	r2, r1
 8001a0c:	605a      	str	r2, [r3, #4]
             ((I2C_CR2_SADD | I2C_CR2_NBYTES | I2C_CR2_RELOAD | I2C_CR2_AUTOEND | \
               (I2C_CR2_RD_WRN & (uint32_t)(Request >> (31U - I2C_CR2_RD_WRN_Pos))) | \
               I2C_CR2_START | I2C_CR2_STOP)), tmp);
}
 8001a0e:	bf00      	nop
 8001a10:	371c      	adds	r7, #28
 8001a12:	46bd      	mov	sp, r7
 8001a14:	f85d 7b04 	ldr.w	r7, [sp], #4
 8001a18:	4770      	bx	lr
 8001a1a:	bf00      	nop
 8001a1c:	03ff63ff 	.word	0x03ff63ff

08001a20 <HAL_I2CEx_ConfigAnalogFilter>:
  *                the configuration information for the specified I2Cx peripheral.
  * @param  AnalogFilter New state of the Analog filter.
  * @retval HAL status
  */
HAL_StatusTypeDef HAL_I2CEx_ConfigAnalogFilter(I2C_HandleTypeDef *hi2c, uint32_t AnalogFilter)
{
 8001a20:	b480      	push	{r7}
 8001a22:	b083      	sub	sp, #12
 8001a24:	af00      	add	r7, sp, #0
 8001a26:	6078      	str	r0, [r7, #4]
 8001a28:	6039      	str	r1, [r7, #0]
  /* Check the parameters */
  assert_param(IS_I2C_ALL_INSTANCE(hi2c->Instance));
  assert_param(IS_I2C_ANALOG_FILTER(AnalogFilter));

  if (hi2c->State == HAL_I2C_STATE_READY)
 8001a2a:	687b      	ldr	r3, [r7, #4]
 8001a2c:	f893 3041 	ldrb.w	r3, [r3, #65]	; 0x41
 8001a30:	b2db      	uxtb	r3, r3
 8001a32:	2b20      	cmp	r3, #32
 8001a34:	d138      	bne.n	8001aa8 <HAL_I2CEx_ConfigAnalogFilter+0x88>
  {
    /* Process Locked */
    __HAL_LOCK(hi2c);
 8001a36:	687b      	ldr	r3, [r7, #4]
 8001a38:	f893 3040 	ldrb.w	r3, [r3, #64]	; 0x40
 8001a3c:	2b01      	cmp	r3, #1
 8001a3e:	d101      	bne.n	8001a44 <HAL_I2CEx_ConfigAnalogFilter+0x24>
 8001a40:	2302      	movs	r3, #2
 8001a42:	e032      	b.n	8001aaa <HAL_I2CEx_ConfigAnalogFilter+0x8a>
 8001a44:	687b      	ldr	r3, [r7, #4]
 8001a46:	2201      	movs	r2, #1
 8001a48:	f883 2040 	strb.w	r2, [r3, #64]	; 0x40

    hi2c->State = HAL_I2C_STATE_BUSY;
 8001a4c:	687b      	ldr	r3, [r7, #4]
 8001a4e:	2224      	movs	r2, #36	; 0x24
 8001a50:	f883 2041 	strb.w	r2, [r3, #65]	; 0x41

    /* Disable the selected I2C peripheral */
    __HAL_I2C_DISABLE(hi2c);
 8001a54:	687b      	ldr	r3, [r7, #4]
 8001a56:	681b      	ldr	r3, [r3, #0]
 8001a58:	681a      	ldr	r2, [r3, #0]
 8001a5a:	687b      	ldr	r3, [r7, #4]
 8001a5c:	681b      	ldr	r3, [r3, #0]
 8001a5e:	f022 0201 	bic.w	r2, r2, #1
 8001a62:	601a      	str	r2, [r3, #0]

    /* Reset I2Cx ANOFF bit */
    hi2c->Instance->CR1 &= ~(I2C_CR1_ANFOFF);
 8001a64:	687b      	ldr	r3, [r7, #4]
 8001a66:	681b      	ldr	r3, [r3, #0]
 8001a68:	681a      	ldr	r2, [r3, #0]
 8001a6a:	687b      	ldr	r3, [r7, #4]
 8001a6c:	681b      	ldr	r3, [r3, #0]
 8001a6e:	f422 5280 	bic.w	r2, r2, #4096	; 0x1000
 8001a72:	601a      	str	r2, [r3, #0]

    /* Set analog filter bit*/
    hi2c->Instance->CR1 |= AnalogFilter;
 8001a74:	687b      	ldr	r3, [r7, #4]
 8001a76:	681b      	ldr	r3, [r3, #0]
 8001a78:	6819      	ldr	r1, [r3, #0]
 8001a7a:	687b      	ldr	r3, [r7, #4]
 8001a7c:	681b      	ldr	r3, [r3, #0]
 8001a7e:	683a      	ldr	r2, [r7, #0]
 8001a80:	430a      	orrs	r2, r1
 8001a82:	601a      	str	r2, [r3, #0]

    __HAL_I2C_ENABLE(hi2c);
 8001a84:	687b      	ldr	r3, [r7, #4]
 8001a86:	681b      	ldr	r3, [r3, #0]
 8001a88:	681a      	ldr	r2, [r3, #0]
 8001a8a:	687b      	ldr	r3, [r7, #4]
 8001a8c:	681b      	ldr	r3, [r3, #0]
 8001a8e:	f042 0201 	orr.w	r2, r2, #1
 8001a92:	601a      	str	r2, [r3, #0]

    hi2c->State = HAL_I2C_STATE_READY;
 8001a94:	687b      	ldr	r3, [r7, #4]
 8001a96:	2220      	movs	r2, #32
 8001a98:	f883 2041 	strb.w	r2, [r3, #65]	; 0x41

    /* Process Unlocked */
    __HAL_UNLOCK(hi2c);
 8001a9c:	687b      	ldr	r3, [r7, #4]
 8001a9e:	2200      	movs	r2, #0
 8001aa0:	f883 2040 	strb.w	r2, [r3, #64]	; 0x40

    return HAL_OK;
 8001aa4:	2300      	movs	r3, #0
 8001aa6:	e000      	b.n	8001aaa <HAL_I2CEx_ConfigAnalogFilter+0x8a>
  }
  else
  {
    return HAL_BUSY;
 8001aa8:	2302      	movs	r3, #2
  }
}
 8001aaa:	4618      	mov	r0, r3
 8001aac:	370c      	adds	r7, #12
 8001aae:	46bd      	mov	sp, r7
 8001ab0:	f85d 7b04 	ldr.w	r7, [sp], #4
 8001ab4:	4770      	bx	lr

08001ab6 <HAL_I2CEx_ConfigDigitalFilter>:
  *                the configuration information for the specified I2Cx peripheral.
  * @param  DigitalFilter Coefficient of digital noise filter between Min_Data=0x00 and Max_Data=0x0F.
  * @retval HAL status
  */
HAL_StatusTypeDef HAL_I2CEx_ConfigDigitalFilter(I2C_HandleTypeDef *hi2c, uint32_t DigitalFilter)
{
 8001ab6:	b480      	push	{r7}
 8001ab8:	b085      	sub	sp, #20
 8001aba:	af00      	add	r7, sp, #0
 8001abc:	6078      	str	r0, [r7, #4]
 8001abe:	6039      	str	r1, [r7, #0]

  /* Check the parameters */
  assert_param(IS_I2C_ALL_INSTANCE(hi2c->Instance));
  assert_param(IS_I2C_DIGITAL_FILTER(DigitalFilter));

  if (hi2c->State == HAL_I2C_STATE_READY)
 8001ac0:	687b      	ldr	r3, [r7, #4]
 8001ac2:	f893 3041 	ldrb.w	r3, [r3, #65]	; 0x41
 8001ac6:	b2db      	uxtb	r3, r3
 8001ac8:	2b20      	cmp	r3, #32
 8001aca:	d139      	bne.n	8001b40 <HAL_I2CEx_ConfigDigitalFilter+0x8a>
  {
    /* Process Locked */
    __HAL_LOCK(hi2c);
 8001acc:	687b      	ldr	r3, [r7, #4]
 8001ace:	f893 3040 	ldrb.w	r3, [r3, #64]	; 0x40
 8001ad2:	2b01      	cmp	r3, #1
 8001ad4:	d101      	bne.n	8001ada <HAL_I2CEx_ConfigDigitalFilter+0x24>
 8001ad6:	2302      	movs	r3, #2
 8001ad8:	e033      	b.n	8001b42 <HAL_I2CEx_ConfigDigitalFilter+0x8c>
 8001ada:	687b      	ldr	r3, [r7, #4]
 8001adc:	2201      	movs	r2, #1
 8001ade:	f883 2040 	strb.w	r2, [r3, #64]	; 0x40

    hi2c->State = HAL_I2C_STATE_BUSY;
 8001ae2:	687b      	ldr	r3, [r7, #4]
 8001ae4:	2224      	movs	r2, #36	; 0x24
 8001ae6:	f883 2041 	strb.w	r2, [r3, #65]	; 0x41

    /* Disable the selected I2C peripheral */
    __HAL_I2C_DISABLE(hi2c);
 8001aea:	687b      	ldr	r3, [r7, #4]
 8001aec:	681b      	ldr	r3, [r3, #0]
 8001aee:	681a      	ldr	r2, [r3, #0]
 8001af0:	687b      	ldr	r3, [r7, #4]
 8001af2:	681b      	ldr	r3, [r3, #0]
 8001af4:	f022 0201 	bic.w	r2, r2, #1
 8001af8:	601a      	str	r2, [r3, #0]

    /* Get the old register value */
    tmpreg = hi2c->Instance->CR1;
 8001afa:	687b      	ldr	r3, [r7, #4]
 8001afc:	681b      	ldr	r3, [r3, #0]
 8001afe:	681b      	ldr	r3, [r3, #0]
 8001b00:	60fb      	str	r3, [r7, #12]

    /* Reset I2Cx DNF bits [11:8] */
    tmpreg &= ~(I2C_CR1_DNF);
 8001b02:	68fb      	ldr	r3, [r7, #12]
 8001b04:	f423 6370 	bic.w	r3, r3, #3840	; 0xf00
 8001b08:	60fb      	str	r3, [r7, #12]

    /* Set I2Cx DNF coefficient */
    tmpreg |= DigitalFilter << 8U;
 8001b0a:	683b      	ldr	r3, [r7, #0]
 8001b0c:	021b      	lsls	r3, r3, #8
 8001b0e:	68fa      	ldr	r2, [r7, #12]
 8001b10:	4313      	orrs	r3, r2
 8001b12:	60fb      	str	r3, [r7, #12]

    /* Store the new register value */
    hi2c->Instance->CR1 = tmpreg;
 8001b14:	687b      	ldr	r3, [r7, #4]
 8001b16:	681b      	ldr	r3, [r3, #0]
 8001b18:	68fa      	ldr	r2, [r7, #12]
 8001b1a:	601a      	str	r2, [r3, #0]

    __HAL_I2C_ENABLE(hi2c);
 8001b1c:	687b      	ldr	r3, [r7, #4]
 8001b1e:	681b      	ldr	r3, [r3, #0]
 8001b20:	681a      	ldr	r2, [r3, #0]
 8001b22:	687b      	ldr	r3, [r7, #4]
 8001b24:	681b      	ldr	r3, [r3, #0]
 8001b26:	f042 0201 	orr.w	r2, r2, #1
 8001b2a:	601a      	str	r2, [r3, #0]

    hi2c->State = HAL_I2C_STATE_READY;
 8001b2c:	687b      	ldr	r3, [r7, #4]
 8001b2e:	2220      	movs	r2, #32
 8001b30:	f883 2041 	strb.w	r2, [r3, #65]	; 0x41

    /* Process Unlocked */
    __HAL_UNLOCK(hi2c);
 8001b34:	687b      	ldr	r3, [r7, #4]
 8001b36:	2200      	movs	r2, #0
 8001b38:	f883 2040 	strb.w	r2, [r3, #64]	; 0x40

    return HAL_OK;
 8001b3c:	2300      	movs	r3, #0
 8001b3e:	e000      	b.n	8001b42 <HAL_I2CEx_ConfigDigitalFilter+0x8c>
  }
  else
  {
    return HAL_BUSY;
 8001b40:	2302      	movs	r3, #2
  }
}
 8001b42:	4618      	mov	r0, r3
 8001b44:	3714      	adds	r7, #20
 8001b46:	46bd      	mov	sp, r7
 8001b48:	f85d 7b04 	ldr.w	r7, [sp], #4
 8001b4c:	4770      	bx	lr
	...

08001b50 <HAL_RCC_OscConfig>:
  *         supported by this macro. User should request a transition to HSE Off
  *         first and then HSE On or HSE Bypass.
  * @retval HAL status
  */
HAL_StatusTypeDef HAL_RCC_OscConfig(RCC_OscInitTypeDef  *RCC_OscInitStruct)
{
 8001b50:	b580      	push	{r7, lr}
 8001b52:	f5ad 7d00 	sub.w	sp, sp, #512	; 0x200
 8001b56:	af00      	add	r7, sp, #0
 8001b58:	f507 7300 	add.w	r3, r7, #512	; 0x200
 8001b5c:	f5a3 73fe 	sub.w	r3, r3, #508	; 0x1fc
 8001b60:	6018      	str	r0, [r3, #0]
#if defined(RCC_CFGR_PLLSRC_HSI_PREDIV)
  uint32_t pll_config2;
#endif /* RCC_CFGR_PLLSRC_HSI_PREDIV */

  /* Check Null pointer */
  if(RCC_OscInitStruct == NULL)
 8001b62:	f507 7300 	add.w	r3, r7, #512	; 0x200
 8001b66:	f5a3 73fe 	sub.w	r3, r3, #508	; 0x1fc
 8001b6a:	681b      	ldr	r3, [r3, #0]
 8001b6c:	2b00      	cmp	r3, #0
 8001b6e:	d102      	bne.n	8001b76 <HAL_RCC_OscConfig+0x26>
  {
    return HAL_ERROR;
 8001b70:	2301      	movs	r3, #1
 8001b72:	f001 b823 	b.w	8002bbc <HAL_RCC_OscConfig+0x106c>

  /* Check the parameters */
  assert_param(IS_RCC_OSCILLATORTYPE(RCC_OscInitStruct->OscillatorType));

  /*------------------------------- HSE Configuration ------------------------*/ 
  if(((RCC_OscInitStruct->OscillatorType) & RCC_OSCILLATORTYPE_HSE) == RCC_OSCILLATORTYPE_HSE)
 8001b76:	f507 7300 	add.w	r3, r7, #512	; 0x200
 8001b7a:	f5a3 73fe 	sub.w	r3, r3, #508	; 0x1fc
 8001b7e:	681b      	ldr	r3, [r3, #0]
 8001b80:	681b      	ldr	r3, [r3, #0]
 8001b82:	f003 0301 	and.w	r3, r3, #1
 8001b86:	2b00      	cmp	r3, #0
 8001b88:	f000 817d 	beq.w	8001e86 <HAL_RCC_OscConfig+0x336>
  {
    /* Check the parameters */
    assert_param(IS_RCC_HSE(RCC_OscInitStruct->HSEState));

    /* When the HSE is used as system clock or clock source for PLL in these cases it is not allowed to be disabled */
    if((__HAL_RCC_GET_SYSCLK_SOURCE() == RCC_SYSCLKSOURCE_STATUS_HSE) 
 8001b8c:	4bbc      	ldr	r3, [pc, #752]	; (8001e80 <HAL_RCC_OscConfig+0x330>)
 8001b8e:	685b      	ldr	r3, [r3, #4]
 8001b90:	f003 030c 	and.w	r3, r3, #12
 8001b94:	2b04      	cmp	r3, #4
 8001b96:	d00c      	beq.n	8001bb2 <HAL_RCC_OscConfig+0x62>
       || ((__HAL_RCC_GET_SYSCLK_SOURCE() == RCC_SYSCLKSOURCE_STATUS_PLLCLK) && (__HAL_RCC_GET_PLL_OSCSOURCE() == RCC_PLLSOURCE_HSE)))
 8001b98:	4bb9      	ldr	r3, [pc, #740]	; (8001e80 <HAL_RCC_OscConfig+0x330>)
 8001b9a:	685b      	ldr	r3, [r3, #4]
 8001b9c:	f003 030c 	and.w	r3, r3, #12
 8001ba0:	2b08      	cmp	r3, #8
 8001ba2:	d15c      	bne.n	8001c5e <HAL_RCC_OscConfig+0x10e>
 8001ba4:	4bb6      	ldr	r3, [pc, #728]	; (8001e80 <HAL_RCC_OscConfig+0x330>)
 8001ba6:	685b      	ldr	r3, [r3, #4]
 8001ba8:	f403 3380 	and.w	r3, r3, #65536	; 0x10000
 8001bac:	f5b3 3f80 	cmp.w	r3, #65536	; 0x10000
 8001bb0:	d155      	bne.n	8001c5e <HAL_RCC_OscConfig+0x10e>
 8001bb2:	f44f 3300 	mov.w	r3, #131072	; 0x20000
 8001bb6:	f8c7 31f0 	str.w	r3, [r7, #496]	; 0x1f0
  uint32_t result;

#if ((defined (__ARM_ARCH_7M__      ) && (__ARM_ARCH_7M__      == 1)) || \
     (defined (__ARM_ARCH_7EM__     ) && (__ARM_ARCH_7EM__     == 1)) || \
     (defined (__ARM_ARCH_8M_MAIN__ ) && (__ARM_ARCH_8M_MAIN__ == 1))    )
   __ASM volatile ("rbit %0, %1" : "=r" (result) : "r" (value) );
 8001bba:	f8d7 31f0 	ldr.w	r3, [r7, #496]	; 0x1f0
 8001bbe:	fa93 f3a3 	rbit	r3, r3
 8001bc2:	f8c7 31ec 	str.w	r3, [r7, #492]	; 0x1ec
    result |= value & 1U;
    s--;
  }
  result <<= s;                        /* shift when v's highest bits are zero */
#endif
  return result;
 8001bc6:	f8d7 31ec 	ldr.w	r3, [r7, #492]	; 0x1ec
    {
      if((__HAL_RCC_GET_FLAG(RCC_FLAG_HSERDY) != RESET) && (RCC_OscInitStruct->HSEState == RCC_HSE_OFF))
 8001bca:	fab3 f383 	clz	r3, r3
 8001bce:	b2db      	uxtb	r3, r3
 8001bd0:	095b      	lsrs	r3, r3, #5
 8001bd2:	b2db      	uxtb	r3, r3
 8001bd4:	f043 0301 	orr.w	r3, r3, #1
 8001bd8:	b2db      	uxtb	r3, r3
 8001bda:	2b01      	cmp	r3, #1
 8001bdc:	d102      	bne.n	8001be4 <HAL_RCC_OscConfig+0x94>
 8001bde:	4ba8      	ldr	r3, [pc, #672]	; (8001e80 <HAL_RCC_OscConfig+0x330>)
 8001be0:	681b      	ldr	r3, [r3, #0]
 8001be2:	e015      	b.n	8001c10 <HAL_RCC_OscConfig+0xc0>
 8001be4:	f44f 3300 	mov.w	r3, #131072	; 0x20000
 8001be8:	f8c7 31e8 	str.w	r3, [r7, #488]	; 0x1e8
   __ASM volatile ("rbit %0, %1" : "=r" (result) : "r" (value) );
 8001bec:	f8d7 31e8 	ldr.w	r3, [r7, #488]	; 0x1e8
 8001bf0:	fa93 f3a3 	rbit	r3, r3
 8001bf4:	f8c7 31e4 	str.w	r3, [r7, #484]	; 0x1e4
 8001bf8:	f44f 3300 	mov.w	r3, #131072	; 0x20000
 8001bfc:	f8c7 31e0 	str.w	r3, [r7, #480]	; 0x1e0
 8001c00:	f8d7 31e0 	ldr.w	r3, [r7, #480]	; 0x1e0
 8001c04:	fa93 f3a3 	rbit	r3, r3
 8001c08:	f8c7 31dc 	str.w	r3, [r7, #476]	; 0x1dc
 8001c0c:	4b9c      	ldr	r3, [pc, #624]	; (8001e80 <HAL_RCC_OscConfig+0x330>)
 8001c0e:	6a5b      	ldr	r3, [r3, #36]	; 0x24
 8001c10:	f44f 3200 	mov.w	r2, #131072	; 0x20000
 8001c14:	f8c7 21d8 	str.w	r2, [r7, #472]	; 0x1d8
 8001c18:	f8d7 21d8 	ldr.w	r2, [r7, #472]	; 0x1d8
 8001c1c:	fa92 f2a2 	rbit	r2, r2
 8001c20:	f8c7 21d4 	str.w	r2, [r7, #468]	; 0x1d4
  return result;
 8001c24:	f8d7 21d4 	ldr.w	r2, [r7, #468]	; 0x1d4
 8001c28:	fab2 f282 	clz	r2, r2
 8001c2c:	b2d2      	uxtb	r2, r2
 8001c2e:	f042 0220 	orr.w	r2, r2, #32
 8001c32:	b2d2      	uxtb	r2, r2
 8001c34:	f002 021f 	and.w	r2, r2, #31
 8001c38:	2101      	movs	r1, #1
 8001c3a:	fa01 f202 	lsl.w	r2, r1, r2
 8001c3e:	4013      	ands	r3, r2
 8001c40:	2b00      	cmp	r3, #0
 8001c42:	f000 811f 	beq.w	8001e84 <HAL_RCC_OscConfig+0x334>
 8001c46:	f507 7300 	add.w	r3, r7, #512	; 0x200
 8001c4a:	f5a3 73fe 	sub.w	r3, r3, #508	; 0x1fc
 8001c4e:	681b      	ldr	r3, [r3, #0]
 8001c50:	685b      	ldr	r3, [r3, #4]
 8001c52:	2b00      	cmp	r3, #0
 8001c54:	f040 8116 	bne.w	8001e84 <HAL_RCC_OscConfig+0x334>
      {
        return HAL_ERROR;
 8001c58:	2301      	movs	r3, #1
 8001c5a:	f000 bfaf 	b.w	8002bbc <HAL_RCC_OscConfig+0x106c>
      }
    }
    else
    {
      /* Set the new HSE configuration ---------------------------------------*/
      __HAL_RCC_HSE_CONFIG(RCC_OscInitStruct->HSEState);
 8001c5e:	f507 7300 	add.w	r3, r7, #512	; 0x200
 8001c62:	f5a3 73fe 	sub.w	r3, r3, #508	; 0x1fc
 8001c66:	681b      	ldr	r3, [r3, #0]
 8001c68:	685b      	ldr	r3, [r3, #4]
 8001c6a:	f5b3 3f80 	cmp.w	r3, #65536	; 0x10000
 8001c6e:	d106      	bne.n	8001c7e <HAL_RCC_OscConfig+0x12e>
 8001c70:	4b83      	ldr	r3, [pc, #524]	; (8001e80 <HAL_RCC_OscConfig+0x330>)
 8001c72:	681b      	ldr	r3, [r3, #0]
 8001c74:	4a82      	ldr	r2, [pc, #520]	; (8001e80 <HAL_RCC_OscConfig+0x330>)
 8001c76:	f443 3380 	orr.w	r3, r3, #65536	; 0x10000
 8001c7a:	6013      	str	r3, [r2, #0]
 8001c7c:	e036      	b.n	8001cec <HAL_RCC_OscConfig+0x19c>
 8001c7e:	f507 7300 	add.w	r3, r7, #512	; 0x200
 8001c82:	f5a3 73fe 	sub.w	r3, r3, #508	; 0x1fc
 8001c86:	681b      	ldr	r3, [r3, #0]
 8001c88:	685b      	ldr	r3, [r3, #4]
 8001c8a:	2b00      	cmp	r3, #0
 8001c8c:	d10c      	bne.n	8001ca8 <HAL_RCC_OscConfig+0x158>
 8001c8e:	4b7c      	ldr	r3, [pc, #496]	; (8001e80 <HAL_RCC_OscConfig+0x330>)
 8001c90:	681b      	ldr	r3, [r3, #0]
 8001c92:	4a7b      	ldr	r2, [pc, #492]	; (8001e80 <HAL_RCC_OscConfig+0x330>)
 8001c94:	f423 3380 	bic.w	r3, r3, #65536	; 0x10000
 8001c98:	6013      	str	r3, [r2, #0]
 8001c9a:	4b79      	ldr	r3, [pc, #484]	; (8001e80 <HAL_RCC_OscConfig+0x330>)
 8001c9c:	681b      	ldr	r3, [r3, #0]
 8001c9e:	4a78      	ldr	r2, [pc, #480]	; (8001e80 <HAL_RCC_OscConfig+0x330>)
 8001ca0:	f423 2380 	bic.w	r3, r3, #262144	; 0x40000
 8001ca4:	6013      	str	r3, [r2, #0]
 8001ca6:	e021      	b.n	8001cec <HAL_RCC_OscConfig+0x19c>
 8001ca8:	f507 7300 	add.w	r3, r7, #512	; 0x200
 8001cac:	f5a3 73fe 	sub.w	r3, r3, #508	; 0x1fc
 8001cb0:	681b      	ldr	r3, [r3, #0]
 8001cb2:	685b      	ldr	r3, [r3, #4]
 8001cb4:	f5b3 2fa0 	cmp.w	r3, #327680	; 0x50000
 8001cb8:	d10c      	bne.n	8001cd4 <HAL_RCC_OscConfig+0x184>
 8001cba:	4b71      	ldr	r3, [pc, #452]	; (8001e80 <HAL_RCC_OscConfig+0x330>)
 8001cbc:	681b      	ldr	r3, [r3, #0]
 8001cbe:	4a70      	ldr	r2, [pc, #448]	; (8001e80 <HAL_RCC_OscConfig+0x330>)
 8001cc0:	f443 2380 	orr.w	r3, r3, #262144	; 0x40000
 8001cc4:	6013      	str	r3, [r2, #0]
 8001cc6:	4b6e      	ldr	r3, [pc, #440]	; (8001e80 <HAL_RCC_OscConfig+0x330>)
 8001cc8:	681b      	ldr	r3, [r3, #0]
 8001cca:	4a6d      	ldr	r2, [pc, #436]	; (8001e80 <HAL_RCC_OscConfig+0x330>)
 8001ccc:	f443 3380 	orr.w	r3, r3, #65536	; 0x10000
 8001cd0:	6013      	str	r3, [r2, #0]
 8001cd2:	e00b      	b.n	8001cec <HAL_RCC_OscConfig+0x19c>
 8001cd4:	4b6a      	ldr	r3, [pc, #424]	; (8001e80 <HAL_RCC_OscConfig+0x330>)
 8001cd6:	681b      	ldr	r3, [r3, #0]
 8001cd8:	4a69      	ldr	r2, [pc, #420]	; (8001e80 <HAL_RCC_OscConfig+0x330>)
 8001cda:	f423 3380 	bic.w	r3, r3, #65536	; 0x10000
 8001cde:	6013      	str	r3, [r2, #0]
 8001ce0:	4b67      	ldr	r3, [pc, #412]	; (8001e80 <HAL_RCC_OscConfig+0x330>)
 8001ce2:	681b      	ldr	r3, [r3, #0]
 8001ce4:	4a66      	ldr	r2, [pc, #408]	; (8001e80 <HAL_RCC_OscConfig+0x330>)
 8001ce6:	f423 2380 	bic.w	r3, r3, #262144	; 0x40000
 8001cea:	6013      	str	r3, [r2, #0]
      
#if defined(RCC_CFGR_PLLSRC_HSI_DIV2)
      /* Configure the HSE predivision factor --------------------------------*/
      __HAL_RCC_HSE_PREDIV_CONFIG(RCC_OscInitStruct->HSEPredivValue);
 8001cec:	4b64      	ldr	r3, [pc, #400]	; (8001e80 <HAL_RCC_OscConfig+0x330>)
 8001cee:	6adb      	ldr	r3, [r3, #44]	; 0x2c
 8001cf0:	f023 020f 	bic.w	r2, r3, #15
 8001cf4:	f507 7300 	add.w	r3, r7, #512	; 0x200
 8001cf8:	f5a3 73fe 	sub.w	r3, r3, #508	; 0x1fc
 8001cfc:	681b      	ldr	r3, [r3, #0]
 8001cfe:	689b      	ldr	r3, [r3, #8]
 8001d00:	495f      	ldr	r1, [pc, #380]	; (8001e80 <HAL_RCC_OscConfig+0x330>)
 8001d02:	4313      	orrs	r3, r2
 8001d04:	62cb      	str	r3, [r1, #44]	; 0x2c
#endif /* RCC_CFGR_PLLSRC_HSI_DIV2 */

       /* Check the HSE State */
      if(RCC_OscInitStruct->HSEState != RCC_HSE_OFF)
 8001d06:	f507 7300 	add.w	r3, r7, #512	; 0x200
 8001d0a:	f5a3 73fe 	sub.w	r3, r3, #508	; 0x1fc
 8001d0e:	681b      	ldr	r3, [r3, #0]
 8001d10:	685b      	ldr	r3, [r3, #4]
 8001d12:	2b00      	cmp	r3, #0
 8001d14:	d059      	beq.n	8001dca <HAL_RCC_OscConfig+0x27a>
      {
        /* Get Start Tick */
        tickstart = HAL_GetTick();
 8001d16:	f7fe ffdb 	bl	8000cd0 <HAL_GetTick>
 8001d1a:	f8c7 01f8 	str.w	r0, [r7, #504]	; 0x1f8
        
        /* Wait till HSE is ready */
        while(__HAL_RCC_GET_FLAG(RCC_FLAG_HSERDY) == RESET)
 8001d1e:	e00a      	b.n	8001d36 <HAL_RCC_OscConfig+0x1e6>
        {
          if((HAL_GetTick() - tickstart ) > HSE_TIMEOUT_VALUE)
 8001d20:	f7fe ffd6 	bl	8000cd0 <HAL_GetTick>
 8001d24:	4602      	mov	r2, r0
 8001d26:	f8d7 31f8 	ldr.w	r3, [r7, #504]	; 0x1f8
 8001d2a:	1ad3      	subs	r3, r2, r3
 8001d2c:	2b64      	cmp	r3, #100	; 0x64
 8001d2e:	d902      	bls.n	8001d36 <HAL_RCC_OscConfig+0x1e6>
          {
            return HAL_TIMEOUT;
 8001d30:	2303      	movs	r3, #3
 8001d32:	f000 bf43 	b.w	8002bbc <HAL_RCC_OscConfig+0x106c>
 8001d36:	f44f 3300 	mov.w	r3, #131072	; 0x20000
 8001d3a:	f8c7 31d0 	str.w	r3, [r7, #464]	; 0x1d0
   __ASM volatile ("rbit %0, %1" : "=r" (result) : "r" (value) );
 8001d3e:	f8d7 31d0 	ldr.w	r3, [r7, #464]	; 0x1d0
 8001d42:	fa93 f3a3 	rbit	r3, r3
 8001d46:	f8c7 31cc 	str.w	r3, [r7, #460]	; 0x1cc
  return result;
 8001d4a:	f8d7 31cc 	ldr.w	r3, [r7, #460]	; 0x1cc
        while(__HAL_RCC_GET_FLAG(RCC_FLAG_HSERDY) == RESET)
 8001d4e:	fab3 f383 	clz	r3, r3
 8001d52:	b2db      	uxtb	r3, r3
 8001d54:	095b      	lsrs	r3, r3, #5
 8001d56:	b2db      	uxtb	r3, r3
 8001d58:	f043 0301 	orr.w	r3, r3, #1
 8001d5c:	b2db      	uxtb	r3, r3
 8001d5e:	2b01      	cmp	r3, #1
 8001d60:	d102      	bne.n	8001d68 <HAL_RCC_OscConfig+0x218>
 8001d62:	4b47      	ldr	r3, [pc, #284]	; (8001e80 <HAL_RCC_OscConfig+0x330>)
 8001d64:	681b      	ldr	r3, [r3, #0]
 8001d66:	e015      	b.n	8001d94 <HAL_RCC_OscConfig+0x244>
 8001d68:	f44f 3300 	mov.w	r3, #131072	; 0x20000
 8001d6c:	f8c7 31c8 	str.w	r3, [r7, #456]	; 0x1c8
   __ASM volatile ("rbit %0, %1" : "=r" (result) : "r" (value) );
 8001d70:	f8d7 31c8 	ldr.w	r3, [r7, #456]	; 0x1c8
 8001d74:	fa93 f3a3 	rbit	r3, r3
 8001d78:	f8c7 31c4 	str.w	r3, [r7, #452]	; 0x1c4
 8001d7c:	f44f 3300 	mov.w	r3, #131072	; 0x20000
 8001d80:	f8c7 31c0 	str.w	r3, [r7, #448]	; 0x1c0
 8001d84:	f8d7 31c0 	ldr.w	r3, [r7, #448]	; 0x1c0
 8001d88:	fa93 f3a3 	rbit	r3, r3
 8001d8c:	f8c7 31bc 	str.w	r3, [r7, #444]	; 0x1bc
 8001d90:	4b3b      	ldr	r3, [pc, #236]	; (8001e80 <HAL_RCC_OscConfig+0x330>)
 8001d92:	6a5b      	ldr	r3, [r3, #36]	; 0x24
 8001d94:	f44f 3200 	mov.w	r2, #131072	; 0x20000
 8001d98:	f8c7 21b8 	str.w	r2, [r7, #440]	; 0x1b8
 8001d9c:	f8d7 21b8 	ldr.w	r2, [r7, #440]	; 0x1b8
 8001da0:	fa92 f2a2 	rbit	r2, r2
 8001da4:	f8c7 21b4 	str.w	r2, [r7, #436]	; 0x1b4
  return result;
 8001da8:	f8d7 21b4 	ldr.w	r2, [r7, #436]	; 0x1b4
 8001dac:	fab2 f282 	clz	r2, r2
 8001db0:	b2d2      	uxtb	r2, r2
 8001db2:	f042 0220 	orr.w	r2, r2, #32
 8001db6:	b2d2      	uxtb	r2, r2
 8001db8:	f002 021f 	and.w	r2, r2, #31
 8001dbc:	2101      	movs	r1, #1
 8001dbe:	fa01 f202 	lsl.w	r2, r1, r2
 8001dc2:	4013      	ands	r3, r2
 8001dc4:	2b00      	cmp	r3, #0
 8001dc6:	d0ab      	beq.n	8001d20 <HAL_RCC_OscConfig+0x1d0>
 8001dc8:	e05d      	b.n	8001e86 <HAL_RCC_OscConfig+0x336>
        }
      }
      else
      {
        /* Get Start Tick */
        tickstart = HAL_GetTick();
 8001dca:	f7fe ff81 	bl	8000cd0 <HAL_GetTick>
 8001dce:	f8c7 01f8 	str.w	r0, [r7, #504]	; 0x1f8
        
        /* Wait till HSE is disabled */
        while(__HAL_RCC_GET_FLAG(RCC_FLAG_HSERDY) != RESET)
 8001dd2:	e00a      	b.n	8001dea <HAL_RCC_OscConfig+0x29a>
        {
           if((HAL_GetTick() - tickstart ) > HSE_TIMEOUT_VALUE)
 8001dd4:	f7fe ff7c 	bl	8000cd0 <HAL_GetTick>
 8001dd8:	4602      	mov	r2, r0
 8001dda:	f8d7 31f8 	ldr.w	r3, [r7, #504]	; 0x1f8
 8001dde:	1ad3      	subs	r3, r2, r3
 8001de0:	2b64      	cmp	r3, #100	; 0x64
 8001de2:	d902      	bls.n	8001dea <HAL_RCC_OscConfig+0x29a>
          {
            return HAL_TIMEOUT;
 8001de4:	2303      	movs	r3, #3
 8001de6:	f000 bee9 	b.w	8002bbc <HAL_RCC_OscConfig+0x106c>
 8001dea:	f44f 3300 	mov.w	r3, #131072	; 0x20000
 8001dee:	f8c7 31b0 	str.w	r3, [r7, #432]	; 0x1b0
   __ASM volatile ("rbit %0, %1" : "=r" (result) : "r" (value) );
 8001df2:	f8d7 31b0 	ldr.w	r3, [r7, #432]	; 0x1b0
 8001df6:	fa93 f3a3 	rbit	r3, r3
 8001dfa:	f8c7 31ac 	str.w	r3, [r7, #428]	; 0x1ac
  return result;
 8001dfe:	f8d7 31ac 	ldr.w	r3, [r7, #428]	; 0x1ac
        while(__HAL_RCC_GET_FLAG(RCC_FLAG_HSERDY) != RESET)
 8001e02:	fab3 f383 	clz	r3, r3
 8001e06:	b2db      	uxtb	r3, r3
 8001e08:	095b      	lsrs	r3, r3, #5
 8001e0a:	b2db      	uxtb	r3, r3
 8001e0c:	f043 0301 	orr.w	r3, r3, #1
 8001e10:	b2db      	uxtb	r3, r3
 8001e12:	2b01      	cmp	r3, #1
 8001e14:	d102      	bne.n	8001e1c <HAL_RCC_OscConfig+0x2cc>
 8001e16:	4b1a      	ldr	r3, [pc, #104]	; (8001e80 <HAL_RCC_OscConfig+0x330>)
 8001e18:	681b      	ldr	r3, [r3, #0]
 8001e1a:	e015      	b.n	8001e48 <HAL_RCC_OscConfig+0x2f8>
 8001e1c:	f44f 3300 	mov.w	r3, #131072	; 0x20000
 8001e20:	f8c7 31a8 	str.w	r3, [r7, #424]	; 0x1a8
   __ASM volatile ("rbit %0, %1" : "=r" (result) : "r" (value) );
 8001e24:	f8d7 31a8 	ldr.w	r3, [r7, #424]	; 0x1a8
 8001e28:	fa93 f3a3 	rbit	r3, r3
 8001e2c:	f8c7 31a4 	str.w	r3, [r7, #420]	; 0x1a4
 8001e30:	f44f 3300 	mov.w	r3, #131072	; 0x20000
 8001e34:	f8c7 31a0 	str.w	r3, [r7, #416]	; 0x1a0
 8001e38:	f8d7 31a0 	ldr.w	r3, [r7, #416]	; 0x1a0
 8001e3c:	fa93 f3a3 	rbit	r3, r3
 8001e40:	f8c7 319c 	str.w	r3, [r7, #412]	; 0x19c
 8001e44:	4b0e      	ldr	r3, [pc, #56]	; (8001e80 <HAL_RCC_OscConfig+0x330>)
 8001e46:	6a5b      	ldr	r3, [r3, #36]	; 0x24
 8001e48:	f44f 3200 	mov.w	r2, #131072	; 0x20000
 8001e4c:	f8c7 2198 	str.w	r2, [r7, #408]	; 0x198
 8001e50:	f8d7 2198 	ldr.w	r2, [r7, #408]	; 0x198
 8001e54:	fa92 f2a2 	rbit	r2, r2
 8001e58:	f8c7 2194 	str.w	r2, [r7, #404]	; 0x194
  return result;
 8001e5c:	f8d7 2194 	ldr.w	r2, [r7, #404]	; 0x194
 8001e60:	fab2 f282 	clz	r2, r2
 8001e64:	b2d2      	uxtb	r2, r2
 8001e66:	f042 0220 	orr.w	r2, r2, #32
 8001e6a:	b2d2      	uxtb	r2, r2
 8001e6c:	f002 021f 	and.w	r2, r2, #31
 8001e70:	2101      	movs	r1, #1
 8001e72:	fa01 f202 	lsl.w	r2, r1, r2
 8001e76:	4013      	ands	r3, r2
 8001e78:	2b00      	cmp	r3, #0
 8001e7a:	d1ab      	bne.n	8001dd4 <HAL_RCC_OscConfig+0x284>
 8001e7c:	e003      	b.n	8001e86 <HAL_RCC_OscConfig+0x336>
 8001e7e:	bf00      	nop
 8001e80:	40021000 	.word	0x40021000
      if((__HAL_RCC_GET_FLAG(RCC_FLAG_HSERDY) != RESET) && (RCC_OscInitStruct->HSEState == RCC_HSE_OFF))
 8001e84:	bf00      	nop
        }
      }
    }
  }
  /*----------------------------- HSI Configuration --------------------------*/ 
  if(((RCC_OscInitStruct->OscillatorType) & RCC_OSCILLATORTYPE_HSI) == RCC_OSCILLATORTYPE_HSI)
 8001e86:	f507 7300 	add.w	r3, r7, #512	; 0x200
 8001e8a:	f5a3 73fe 	sub.w	r3, r3, #508	; 0x1fc
 8001e8e:	681b      	ldr	r3, [r3, #0]
 8001e90:	681b      	ldr	r3, [r3, #0]
 8001e92:	f003 0302 	and.w	r3, r3, #2
 8001e96:	2b00      	cmp	r3, #0
 8001e98:	f000 817d 	beq.w	8002196 <HAL_RCC_OscConfig+0x646>
    /* Check the parameters */
    assert_param(IS_RCC_HSI(RCC_OscInitStruct->HSIState));
    assert_param(IS_RCC_CALIBRATION_VALUE(RCC_OscInitStruct->HSICalibrationValue));
    
    /* Check if HSI is used as system clock or as PLL source when PLL is selected as system clock */ 
    if((__HAL_RCC_GET_SYSCLK_SOURCE() == RCC_SYSCLKSOURCE_STATUS_HSI) 
 8001e9c:	4ba6      	ldr	r3, [pc, #664]	; (8002138 <HAL_RCC_OscConfig+0x5e8>)
 8001e9e:	685b      	ldr	r3, [r3, #4]
 8001ea0:	f003 030c 	and.w	r3, r3, #12
 8001ea4:	2b00      	cmp	r3, #0
 8001ea6:	d00b      	beq.n	8001ec0 <HAL_RCC_OscConfig+0x370>
       || ((__HAL_RCC_GET_SYSCLK_SOURCE() == RCC_SYSCLKSOURCE_STATUS_PLLCLK) && (__HAL_RCC_GET_PLL_OSCSOURCE() == RCC_PLLSOURCE_HSI)))
 8001ea8:	4ba3      	ldr	r3, [pc, #652]	; (8002138 <HAL_RCC_OscConfig+0x5e8>)
 8001eaa:	685b      	ldr	r3, [r3, #4]
 8001eac:	f003 030c 	and.w	r3, r3, #12
 8001eb0:	2b08      	cmp	r3, #8
 8001eb2:	d172      	bne.n	8001f9a <HAL_RCC_OscConfig+0x44a>
 8001eb4:	4ba0      	ldr	r3, [pc, #640]	; (8002138 <HAL_RCC_OscConfig+0x5e8>)
 8001eb6:	685b      	ldr	r3, [r3, #4]
 8001eb8:	f403 3380 	and.w	r3, r3, #65536	; 0x10000
 8001ebc:	2b00      	cmp	r3, #0
 8001ebe:	d16c      	bne.n	8001f9a <HAL_RCC_OscConfig+0x44a>
 8001ec0:	2302      	movs	r3, #2
 8001ec2:	f8c7 3190 	str.w	r3, [r7, #400]	; 0x190
   __ASM volatile ("rbit %0, %1" : "=r" (result) : "r" (value) );
 8001ec6:	f8d7 3190 	ldr.w	r3, [r7, #400]	; 0x190
 8001eca:	fa93 f3a3 	rbit	r3, r3
 8001ece:	f8c7 318c 	str.w	r3, [r7, #396]	; 0x18c
  return result;
 8001ed2:	f8d7 318c 	ldr.w	r3, [r7, #396]	; 0x18c
    {
      /* When HSI is used as system clock it will not disabled */
      if((__HAL_RCC_GET_FLAG(RCC_FLAG_HSIRDY) != RESET) && (RCC_OscInitStruct->HSIState != RCC_HSI_ON))
 8001ed6:	fab3 f383 	clz	r3, r3
 8001eda:	b2db      	uxtb	r3, r3
 8001edc:	095b      	lsrs	r3, r3, #5
 8001ede:	b2db      	uxtb	r3, r3
 8001ee0:	f043 0301 	orr.w	r3, r3, #1
 8001ee4:	b2db      	uxtb	r3, r3
 8001ee6:	2b01      	cmp	r3, #1
 8001ee8:	d102      	bne.n	8001ef0 <HAL_RCC_OscConfig+0x3a0>
 8001eea:	4b93      	ldr	r3, [pc, #588]	; (8002138 <HAL_RCC_OscConfig+0x5e8>)
 8001eec:	681b      	ldr	r3, [r3, #0]
 8001eee:	e013      	b.n	8001f18 <HAL_RCC_OscConfig+0x3c8>
 8001ef0:	2302      	movs	r3, #2
 8001ef2:	f8c7 3188 	str.w	r3, [r7, #392]	; 0x188
   __ASM volatile ("rbit %0, %1" : "=r" (result) : "r" (value) );
 8001ef6:	f8d7 3188 	ldr.w	r3, [r7, #392]	; 0x188
 8001efa:	fa93 f3a3 	rbit	r3, r3
 8001efe:	f8c7 3184 	str.w	r3, [r7, #388]	; 0x184
 8001f02:	2302      	movs	r3, #2
 8001f04:	f8c7 3180 	str.w	r3, [r7, #384]	; 0x180
 8001f08:	f8d7 3180 	ldr.w	r3, [r7, #384]	; 0x180
 8001f0c:	fa93 f3a3 	rbit	r3, r3
 8001f10:	f8c7 317c 	str.w	r3, [r7, #380]	; 0x17c
 8001f14:	4b88      	ldr	r3, [pc, #544]	; (8002138 <HAL_RCC_OscConfig+0x5e8>)
 8001f16:	6a5b      	ldr	r3, [r3, #36]	; 0x24
 8001f18:	2202      	movs	r2, #2
 8001f1a:	f8c7 2178 	str.w	r2, [r7, #376]	; 0x178
 8001f1e:	f8d7 2178 	ldr.w	r2, [r7, #376]	; 0x178
 8001f22:	fa92 f2a2 	rbit	r2, r2
 8001f26:	f8c7 2174 	str.w	r2, [r7, #372]	; 0x174
  return result;
 8001f2a:	f8d7 2174 	ldr.w	r2, [r7, #372]	; 0x174
 8001f2e:	fab2 f282 	clz	r2, r2
 8001f32:	b2d2      	uxtb	r2, r2
 8001f34:	f042 0220 	orr.w	r2, r2, #32
 8001f38:	b2d2      	uxtb	r2, r2
 8001f3a:	f002 021f 	and.w	r2, r2, #31
 8001f3e:	2101      	movs	r1, #1
 8001f40:	fa01 f202 	lsl.w	r2, r1, r2
 8001f44:	4013      	ands	r3, r2
 8001f46:	2b00      	cmp	r3, #0
 8001f48:	d00a      	beq.n	8001f60 <HAL_RCC_OscConfig+0x410>
 8001f4a:	f507 7300 	add.w	r3, r7, #512	; 0x200
 8001f4e:	f5a3 73fe 	sub.w	r3, r3, #508	; 0x1fc
 8001f52:	681b      	ldr	r3, [r3, #0]
 8001f54:	691b      	ldr	r3, [r3, #16]
 8001f56:	2b01      	cmp	r3, #1
 8001f58:	d002      	beq.n	8001f60 <HAL_RCC_OscConfig+0x410>
      {
        return HAL_ERROR;
 8001f5a:	2301      	movs	r3, #1
 8001f5c:	f000 be2e 	b.w	8002bbc <HAL_RCC_OscConfig+0x106c>
      }
      /* Otherwise, just the calibration is allowed */
      else
      {
        /* Adjusts the Internal High Speed oscillator (HSI) calibration value.*/
        __HAL_RCC_HSI_CALIBRATIONVALUE_ADJUST(RCC_OscInitStruct->HSICalibrationValue);
 8001f60:	4b75      	ldr	r3, [pc, #468]	; (8002138 <HAL_RCC_OscConfig+0x5e8>)
 8001f62:	681b      	ldr	r3, [r3, #0]
 8001f64:	f023 02f8 	bic.w	r2, r3, #248	; 0xf8
 8001f68:	f507 7300 	add.w	r3, r7, #512	; 0x200
 8001f6c:	f5a3 73fe 	sub.w	r3, r3, #508	; 0x1fc
 8001f70:	681b      	ldr	r3, [r3, #0]
 8001f72:	695b      	ldr	r3, [r3, #20]
 8001f74:	21f8      	movs	r1, #248	; 0xf8
 8001f76:	f8c7 1170 	str.w	r1, [r7, #368]	; 0x170
   __ASM volatile ("rbit %0, %1" : "=r" (result) : "r" (value) );
 8001f7a:	f8d7 1170 	ldr.w	r1, [r7, #368]	; 0x170
 8001f7e:	fa91 f1a1 	rbit	r1, r1
 8001f82:	f8c7 116c 	str.w	r1, [r7, #364]	; 0x16c
  return result;
 8001f86:	f8d7 116c 	ldr.w	r1, [r7, #364]	; 0x16c
 8001f8a:	fab1 f181 	clz	r1, r1
 8001f8e:	b2c9      	uxtb	r1, r1
 8001f90:	408b      	lsls	r3, r1
 8001f92:	4969      	ldr	r1, [pc, #420]	; (8002138 <HAL_RCC_OscConfig+0x5e8>)
 8001f94:	4313      	orrs	r3, r2
 8001f96:	600b      	str	r3, [r1, #0]
      if((__HAL_RCC_GET_FLAG(RCC_FLAG_HSIRDY) != RESET) && (RCC_OscInitStruct->HSIState != RCC_HSI_ON))
 8001f98:	e0fd      	b.n	8002196 <HAL_RCC_OscConfig+0x646>
      }
    }
    else
    {
      /* Check the HSI State */
      if(RCC_OscInitStruct->HSIState != RCC_HSI_OFF)
 8001f9a:	f507 7300 	add.w	r3, r7, #512	; 0x200
 8001f9e:	f5a3 73fe 	sub.w	r3, r3, #508	; 0x1fc
 8001fa2:	681b      	ldr	r3, [r3, #0]
 8001fa4:	691b      	ldr	r3, [r3, #16]
 8001fa6:	2b00      	cmp	r3, #0
 8001fa8:	f000 8088 	beq.w	80020bc <HAL_RCC_OscConfig+0x56c>
 8001fac:	2301      	movs	r3, #1
 8001fae:	f8c7 3168 	str.w	r3, [r7, #360]	; 0x168
   __ASM volatile ("rbit %0, %1" : "=r" (result) : "r" (value) );
 8001fb2:	f8d7 3168 	ldr.w	r3, [r7, #360]	; 0x168
 8001fb6:	fa93 f3a3 	rbit	r3, r3
 8001fba:	f8c7 3164 	str.w	r3, [r7, #356]	; 0x164
  return result;
 8001fbe:	f8d7 3164 	ldr.w	r3, [r7, #356]	; 0x164
      {
       /* Enable the Internal High Speed oscillator (HSI). */
        __HAL_RCC_HSI_ENABLE();
 8001fc2:	fab3 f383 	clz	r3, r3
 8001fc6:	b2db      	uxtb	r3, r3
 8001fc8:	f103 5384 	add.w	r3, r3, #276824064	; 0x10800000
 8001fcc:	f503 1384 	add.w	r3, r3, #1081344	; 0x108000
 8001fd0:	009b      	lsls	r3, r3, #2
 8001fd2:	461a      	mov	r2, r3
 8001fd4:	2301      	movs	r3, #1
 8001fd6:	6013      	str	r3, [r2, #0]
        
        /* Get Start Tick */
        tickstart = HAL_GetTick();
 8001fd8:	f7fe fe7a 	bl	8000cd0 <HAL_GetTick>
 8001fdc:	f8c7 01f8 	str.w	r0, [r7, #504]	; 0x1f8
        
        /* Wait till HSI is ready */
        while(__HAL_RCC_GET_FLAG(RCC_FLAG_HSIRDY) == RESET)
 8001fe0:	e00a      	b.n	8001ff8 <HAL_RCC_OscConfig+0x4a8>
        {
          if((HAL_GetTick() - tickstart ) > HSI_TIMEOUT_VALUE)
 8001fe2:	f7fe fe75 	bl	8000cd0 <HAL_GetTick>
 8001fe6:	4602      	mov	r2, r0
 8001fe8:	f8d7 31f8 	ldr.w	r3, [r7, #504]	; 0x1f8
 8001fec:	1ad3      	subs	r3, r2, r3
 8001fee:	2b02      	cmp	r3, #2
 8001ff0:	d902      	bls.n	8001ff8 <HAL_RCC_OscConfig+0x4a8>
          {
            return HAL_TIMEOUT;
 8001ff2:	2303      	movs	r3, #3
 8001ff4:	f000 bde2 	b.w	8002bbc <HAL_RCC_OscConfig+0x106c>
 8001ff8:	2302      	movs	r3, #2
 8001ffa:	f8c7 3160 	str.w	r3, [r7, #352]	; 0x160
   __ASM volatile ("rbit %0, %1" : "=r" (result) : "r" (value) );
 8001ffe:	f8d7 3160 	ldr.w	r3, [r7, #352]	; 0x160
 8002002:	fa93 f3a3 	rbit	r3, r3
 8002006:	f8c7 315c 	str.w	r3, [r7, #348]	; 0x15c
  return result;
 800200a:	f8d7 315c 	ldr.w	r3, [r7, #348]	; 0x15c
        while(__HAL_RCC_GET_FLAG(RCC_FLAG_HSIRDY) == RESET)
 800200e:	fab3 f383 	clz	r3, r3
 8002012:	b2db      	uxtb	r3, r3
 8002014:	095b      	lsrs	r3, r3, #5
 8002016:	b2db      	uxtb	r3, r3
 8002018:	f043 0301 	orr.w	r3, r3, #1
 800201c:	b2db      	uxtb	r3, r3
 800201e:	2b01      	cmp	r3, #1
 8002020:	d102      	bne.n	8002028 <HAL_RCC_OscConfig+0x4d8>
 8002022:	4b45      	ldr	r3, [pc, #276]	; (8002138 <HAL_RCC_OscConfig+0x5e8>)
 8002024:	681b      	ldr	r3, [r3, #0]
 8002026:	e013      	b.n	8002050 <HAL_RCC_OscConfig+0x500>
 8002028:	2302      	movs	r3, #2
 800202a:	f8c7 3158 	str.w	r3, [r7, #344]	; 0x158
   __ASM volatile ("rbit %0, %1" : "=r" (result) : "r" (value) );
 800202e:	f8d7 3158 	ldr.w	r3, [r7, #344]	; 0x158
 8002032:	fa93 f3a3 	rbit	r3, r3
 8002036:	f8c7 3154 	str.w	r3, [r7, #340]	; 0x154
 800203a:	2302      	movs	r3, #2
 800203c:	f8c7 3150 	str.w	r3, [r7, #336]	; 0x150
 8002040:	f8d7 3150 	ldr.w	r3, [r7, #336]	; 0x150
 8002044:	fa93 f3a3 	rbit	r3, r3
 8002048:	f8c7 314c 	str.w	r3, [r7, #332]	; 0x14c
 800204c:	4b3a      	ldr	r3, [pc, #232]	; (8002138 <HAL_RCC_OscConfig+0x5e8>)
 800204e:	6a5b      	ldr	r3, [r3, #36]	; 0x24
 8002050:	2202      	movs	r2, #2
 8002052:	f8c7 2148 	str.w	r2, [r7, #328]	; 0x148
 8002056:	f8d7 2148 	ldr.w	r2, [r7, #328]	; 0x148
 800205a:	fa92 f2a2 	rbit	r2, r2
 800205e:	f8c7 2144 	str.w	r2, [r7, #324]	; 0x144
  return result;
 8002062:	f8d7 2144 	ldr.w	r2, [r7, #324]	; 0x144
 8002066:	fab2 f282 	clz	r2, r2
 800206a:	b2d2      	uxtb	r2, r2
 800206c:	f042 0220 	orr.w	r2, r2, #32
 8002070:	b2d2      	uxtb	r2, r2
 8002072:	f002 021f 	and.w	r2, r2, #31
 8002076:	2101      	movs	r1, #1
 8002078:	fa01 f202 	lsl.w	r2, r1, r2
 800207c:	4013      	ands	r3, r2
 800207e:	2b00      	cmp	r3, #0
 8002080:	d0af      	beq.n	8001fe2 <HAL_RCC_OscConfig+0x492>
